:100000000C94EE000C94DF070C94B8070C94910745
:100010000C946A070C9416010C9416010C94430777
:100020000C9416010C940D080C94E5020C945703E3
:100030000C9416010C9416010C9416010C941601E4
:100040000C9416010C9416010C9416010C941601D4
:100050000C9416010C9416010C9416010C94F906DC
:100060000C9416010C9416010C9416010C941601B4
:100070000C9416010C9416010C9416010C941601A4
:100080000C9416010C9416010C9416010C94160194
:100090000C9417080C9416010C9416010C9416017C
:1000A0000C9416010C9416010C941601BF05C205A0
:1000B000B105B505B905E305E305E305C605CA05C0
:1000C000CE05D405D805E305DE05000000002500B7
:1000D00028002B002E0031000000000200090F0054
:1000E00000030401000C00000000000000000000FC
:1000F000000000000000080B0002020201000904D9
:100100000000010202000005240010010524010185
:1001100001042402060524060001070581031000DE
:100120004009040100020A00000007050202400025
:100130000007058302400000040309045370617244
:100140006B46756E00537061726B46756E2050720F
:100150006F204D6963726F001201000200000040C1
:100160004F1B069200010102030112010002EF027F
:1001700001404F1B06920001010203010000000034
:10018000240027002A002D0030000408020110403E
:1001900080401020408040800802040180402010F0
:1001A00002011080102040402004040404040304D1
:1001B0000502020202040302020202060606060605
:1001C000060404020202040443414E206661696C85
:1001D0000043414E206F6B210000CC0B11241FBE49
:1001E000CFEFDAE0DEBFCDBF11E0A0E0B1E0E6E2A4
:1001F000FCE102C005900D92A234B107D9F722E0CC
:10020000A2E4B1E001C01D92AC34B207E1F710E006
:10021000CEEED0E004C02197FE010E94060ECD3E36
:10022000D107C9F70E94FB0B0C94110E0C9400002F
:100230004091BF015091C0012091BD013091BE019C
:1002400042175307B4F49091E8009570E1F3909150
:10025000E80092FD19C08093F1008091BF01909158
:10026000C00101968F739927892B19F48EEF809323
:10027000E8008091BF019091C00101969093C00168
:100280008093BF0181E0089580E00895DF92EF92AE
:10029000FF920F931F93CF93DF93D82E8A017B0198
:1002A000E40EF51EEB01CE15DF0571F0D7FE03C09D
:1002B000FE01849101C088810E941801219681115C
:1002C000F2CF8FEF9FEF01C0C801DF91CF911F9157
:1002D0000F91FF90EF90DF900895615030F02091E2
:1002E000F100FC0120830196F8CF289884E68093E2
:1002F000C6010895CF92DF92EF92FF920F931F9362
:10030000CF93DF936C017A018B01C0E0D0E0CE1572
:10031000DF0589F0D8016D918D01D601ED91FC9139
:100320000190F081E02DC6010995892B11F47E0121
:1003300002C02196ECCFC701DF91CF911F910F91A1
:10034000FF90EF90DF90CF900895CF93DF931F92AF
:10035000CDB7DEB76983DC01ED91FC910280F381BA
:10036000E02D41E050E0BE016F5F7F4F09950F9097
:10037000DF91CF91089583E08093E9008091F200AE
:10038000882319F08AE38093E8000895FC018485AE
:10039000958597FD0BC09FB7F89482E08093E900A4
:1003A0008091F2009FBF90E0019608959FB7F89466
:1003B00082E08093E9008091F2009FBF90E0089571
:1003C0003FB7F8948091B8019091B901A091BA011A
:1003D000B091BB0126B5A89B05C02F3F19F001962F
:1003E000A11DB11D3FBFBA2FA92F982F8827820FBB
:1003F000911DA11DB11DBC01CD0142E0660F771F0B
:10040000881F991F4A95D1F70895089585ED809327
:10041000BC008091BC0084FDFCCF10928B0108953C
:1004200040916501262F30E0240F311D2132310526
:10043000DCF420918B012430C9F4FC0180E090E0D1
:10044000861758F4309165012191DC01AD5BBE4FF8
:10045000A30FB11D2C930196F3CF80916501680F16
:100460006093650180E0089581E0089582E0089539
:1004700008958FEF9FEF08958FEF9FEF089580917C
:10048000420190E09195819591090895CF93DF9372
:1004900000D0CDB7DEB7CB01642F49835A830E94C9
:1004A00010024981842F5A81952F0F900F90DF9170
:1004B000CF910895CF93DF931F92CDB7DEB76983B5
:1004C00061E0CE0101960E94100281E090E00F9061
:1004D000DF91CF91089581E08093C50108950E9436
:1004E0000C0E0F931F93CF93DF931F92CDB7DEB700
:1004F00082E0898342E450E066EF70E080E80E9489
:1005000046010E947B0BDC0112960D911C91139702
:100510000115110569F0D801ED91FC910280F3817C
:10052000E02DBE016F5F7F4FC801099597FF07C09F
:1005300089810F90DF91CF911F910F910895F8015C
:1005400000851185E5CF0F931F93CF93DF931F9203
:10055000CDB7DEB78C01FC018485958597FF0EC071
:10056000CE0101960E94510B019719F4298130E0C8
:1005700002C02FEF3FEFF80135872487F80184850B
:1005800095850F90DF91CF911F910F910895CF9393
:10059000DF931F92CDB7DEB7FC018485958597FD6B
:1005A00005C02FEF3FEF358724870BC0CE010196A2
:1005B0000E94510B019719F4898190E002C08FEFDE
:1005C0009FEF0F90DF91CF9108951F920F920FB67A
:1005D0000F9211248F939F938091E1009091E100FD
:1005E000937F9093E10083FF0FC01092E90091E0A8
:1005F0009093EB001092EC0092E39093ED00109238
:10060000C70198E09093F00082FF20C093E09093A0
:10061000E9009091F200992319F09AE39093E80091
:100620009091C101992339F09091C101915090931B
:10063000C101992389F19091C601992339F09091D4
:10064000C60191509093C601992341F184FF10C0D7
:100650008091E2008E7E81608093E2008091E100D3
:100660008F7E8093E1008091C3018E7E806111C0F6
:1006700080FF16C08091E2008E7E80618093E20050
:100680008091E1008E7E8093E1008091C3018E7E97
:1006900081608093C30104C05D9ACDCF289AD6CFE4
:1006A0009F918F910F900FBE0F901F9018951F92E2
:1006B0000F920FB60F921124CF92DF92EF92FF921A
:1006C0000F931F932F933F934F935F936F937F935A
:1006D0008F939F93AF93BF93EF93FF93CF93DF934A
:1006E000CDB7DEB76C97DEBFCDBF1092E900809129
:1006F000E80083FFFAC168E0CE0145960E946D01D3
:1007000082EF8093E8008D8987FF05C09091E80013
:1007100090FFFCCF03C09EEF9093E800982F907657
:1007200009F0C6C09E892F89188D91110CC08038A0
:1007300029F48091C4018093F10002C01092F1006D
:100740001092F10047C1422F50E0512B913051F4EB
:10075000811140C14130510509F03CC18091C40173
:100760008D7F0BC0933061F4811134C1413051054C
:1007700009F030C18091C40182608093C4012AC114
:10078000953041F48091E80080FFFCCF20682093F1
:10079000E30020C1963009F05FC0EB8CFC8C109216
:1007A000E9001092C0011092BF01123091F5109231
:1007B000BE011092BD010E94710299E0BE016F5FFF
:1007C0007F4FDB01E92F1D92EA95E9F799831A83A0
:1007D00091E09E8390EA98879AEF99872091BF01D4
:1007E0003091C001275F3F4F3C832B838D83109254
:1007F000E9001092C0011092BF01F092BE01E09298
:10080000BD0149E050E080E00E9446010E94710273
:10081000E1C0F092BE01E092BD010E947B0BDC01C1
:100820001296ED90FC901397E114F10409F4C0C006
:10083000D701ED91FC910480F581E02DBE016B5E46
:100840007F4FC7010995009719F00CF0C3C0C6C0CF
:10085000F701E084F184E8CF973009F4BFC0983005
:1008600021F481E08093F100B5C0993009F0B2C065
:10087000837009F0B3C0E7E1F1E081E021E036E305
:100880009081992361F08093E9002093EB0091918E
:100890009093EC003093ED008F5F873089F78EE7FF
:1008A0008093EA001092EA008F898093C70192C07A
:1008B0008B8D9C8D1092E9001092C0011092BF01A7
:1008C0009093BE018093BD01898D811156C08E89A0
:1008D0009D89913A59F4813209F080C047E050E097
:1008E00064E071E080E00E94460174C0913209F03A
:1008F00075C0833289F4888D90E0982F88272F89DE
:10090000822BA0E0B0E08093000190930101A093BE
:100910000201B09303015EC0803269F48091E80067
:1009200082FFFCCF67E084E091E00E946D018BEFD5
:100930008093E80006C0823209F04CC08F89809312
:100940000B018091C201882319F0EEEFFAE002C09A
:10095000E0E0F8E08091040190910501A09106018A
:10096000B0910701803B9440A105B10509F088C012
:1009700080910B0180FFA0C083C00E947B0BDC0133
:1009800012960D911C9113970115110539F1D8019B
:10099000ED91FC910190F081E02DBE016B5E7F4FE7
:1009A000C8010995811116C0F80100851185ECCFA9
:1009B0001130C1F0133091F48F89882309F455C0A8
:1009C0008230E9F440E862E185E491E00E948F0B17
:1009D000882321F08EEF8093E80087C081E2809326
:1009E000EB0083C08B8D9C8D089711F41093BC0194
:1009F0008091BC01811136C068E571E038C081305A
:100A000029F440E868E08CE391E0E0CF833031F7EF
:100A10000E947B0BDC011296ED90FC9013978E01E7
:100A20000F5F1F4F6801E114F10479F0D701ED91D8
:100A3000FC910680F781E02DB801C7010995080FE8
:100A4000111DF701E084F184EECFD8011C92F6016C
:100A500001900020E9F73197BF016C197D0940E052
:100A6000C601B4CF6AE671E002C068E371E06115C7
:100A7000710509F4B3CFFB01449150E080E833CF16
:100A80000FB6F894A895809160008861809360000B
:100A9000109260000FBEA895EE3F2AE0F20739F0F1
:100AA0008091FE0A9091FF0A9183808393CF1092E8
:100AB000FF0A1092FE0A8ECFEE3F8AE0F80731F06F
:100AC000808191819093FF0A8093FE0A87E797E7E0
:100AD000918380839BE088E10FB6F894A89580937A
:100AE00060000FBE9093600075CF6C960FB6F894BF
:100AF000DEBF0FBECDBFDF91CF91FF91EF91BF91D0
:100B0000AF919F918F917F916F915F914F913F91A5
:100B10002F911F910F91FF90EF90DF90CF900F904A
:100B20000FBE0F901F901895362F90E0FC01E852F1
:100B3000FF4F4491FC01E657FE4F2491FC01E7551D
:100B4000FE4F8491882309F451C04423E1F150E021
:100B5000FA013197EF30F105B0F5EA5AFF4F0C94E6
:100B6000060E909180009F7707C0909180009F7D36
:100B700003C090918000977F9093800024C094B52B
:100B80009F7702C094B59F7D94BD1DC09091900049
:100B90009F7707C0909190009F7D03C09091900037
:100BA000977F909390000FC09091C0009F7703C0F3
:100BB0009091C0009F7D9093C00005C09091C200AD
:100BC000977F9093C200E82FF0E0EE0FFF1FE653EF
:100BD000FF4FA591B4918FB7F894EC91311103C0F8
:100BE00020952E2301C02E2B2C938FBF0895CF93D9
:100BF000DF9390E0FC01E657FE4F2491FC01E7559E
:100C0000FE4F8491882361F190E0880F991FFC01C9
:100C1000E458FE4FC591D491FC01E653FF4FA591D6
:100C2000B491611109C09FB7F894888120958223FF
:100C30008883EC912E230BC0623061F49FB7F89447
:100C40003881822F809583238883EC912E2B2C93DF
:100C50009FBF06C08FB7F894E8812E2B28838FBFE3
:100C6000DF91CF9108958F929F92AF92BF92CF92D2
:100C7000DF92EF92FF926B017C010E94E0014B0139
:100C80005C01C114D104E104F104F1F00E94E0011F
:100C9000DC01CB0188199909AA09BB09883E934058
:100CA000A105B10570F321E0C21AD108E108F108ED
:100CB00088EE880E83E0981EA11CB11CC114D104DB
:100CC000E104F10419F7DDCFFF90EF90DF90CF90B2
:100CD000BF90AF909F908F9008958F929F92AF9208
:100CE000BF92CF92DF92EF92FF920F931F93CF9319
:100CF000DF935C016B018A0180910B01882309F469
:100D00005EC08091C701882309F459C08091C30156
:100D100080FF05C08091E00082608093E000E801E0
:100D20008AEFF82E93E0E92E2FE3822E3AE3932EFA
:100D3000209709F43DC08FB7F894E092E9009091B4
:100D4000E80095FF06C09091F200282D291B922FF4
:100D500001C090E08FBF91110AC0FA94FF2079F191
:100D600061E070E080E090E00E943306E1CF292F3F
:100D700030E0C217D3070CF49C2F8FB7F894E092A1
:100D8000E9002091E80025FF11C0292F30E0C21BA7
:100D9000D30BF601915020F041914093F100FACF2E
:100DA000C20ED31E9091E80095FF13C08FBFC0CF35
:100DB0005D9884E68093C1011016110644F081E02D
:100DC00090E0F5019383828380E090E005C0C80144
:100DD00003C09092E800EACFDF91CF911F910F916D
:100DE000FF90EF90DF90CF90BF90AF909F908F904B
:100DF00008951F920F920FB60F9211242F933F93D5
:100E00008F939F93AF93BF938091B4019091B5015D
:100E1000A091B601B091B7013091B30123E0230F47
:100E20002D3720F40196A11DB11D05C026E8230F22
:100E30000296A11DB11D2093B3018093B40190933C
:100E4000B501A093B601B093B7018091B80190911C
:100E5000B901A091BA01B091BB010196A11DB11DCC
:100E60008093B8019093B901A093BA01B093BB01EC
:100E7000BF91AF919F918F913F912F910F900FBE96
:100E80000F901F9018951F920F920FB60F9211247A
:100E90002F933F934F935F936F937F938F939F9382
:100EA000AF93BF93EF93FF93E0911401F09115017D
:100EB0000995FF91EF91BF91AF919F918F917F9194
:100EC0006F915F914F913F912F910F900FBE0F90B7
:100ED0001F9018951F920F920FB60F9211242F9307
:100EE0003F934F935F936F937F938F939F93AF93B2
:100EF000BF93EF93FF93E0911201F09113010995D5
:100F0000FF91EF91BF91AF919F918F917F916F91E1
:100F10005F914F913F912F910F900FBE0F901F90B7
:100F200018951F920F920FB60F9211242F933F9393
:100F30004F935F936F937F938F939F93AF93BF93E1
:100F4000EF93FF93E0911001F09111010995FF914A
:100F5000EF91BF91AF919F918F917F916F915F9131
:100F60004F913F912F910F900FBE0F901F901895AA
:100F70001F920F920FB60F9211242F933F934F930E
:100F80005F936F937F938F939F93AF93BF93EF93F1
:100F9000FF93E0910E01F0910F010995FF91EF9100
:100FA000BF91AF919F918F917F916F915F914F9181
:100FB0003F912F910F900FBE0F901F9018951F9289
:100FC0000F920FB60F9211242F933F934F935F937D
:100FD0006F937F938F939F93AF93BF93EF93FF9301
:100FE000E0910C01F0910D010995FF91EF91BF91F6
:100FF000AF919F918F917F916F915F914F913F91B1
:101000002F910F900FBE0F901F9018958EBD00006E
:101010000DB407FEFDCF8EB508951F920F920FB647
:101020000F9211240F900FBE0F901F9018951F92D2
:101030000F920FB60F9211242F933F934F935F930C
:101040006F937F938F939F93AF93BF93EF93FF9390
:101050008091B900887F803609F49CC068F5883299
:1010600009F45BC090F4803109F454C038F488234B
:1010700009F4F6C0883009F44DC0F6C0883109F48F
:101080004CC0803209F45DC0EFC0803409F468C000
:1010900048F4803309F455C0883309F0E5C08093E3
:1010A0008A01D8C0803509F44FC0883509F45DC085
:1010B000883409F0D9C0D6C0883909F4C7C0A8F46B
:1010C000883709F467C038F4883609F463C080377C
:1010D00009F460C0C9C0883809F4B8C0803909F47F
:1010E0005FC0803809F0C0C05BC0803B09F486C097
:1010F00038F4803A09F466C0883A09F47FC0B4C075
:10110000803C09F4A7C0883C09F4A4C0883B09F4DA
:101110008AC0AAC08091B00110C09091AF018091A7
:10112000AE01981770F5E091AF0181E08E0F8093CA
:10113000AF01F0E0E257FE4F80818093BB0085EC69
:1011400086C080938A018EC0E091AF0181E08E0F4E
:101150008093AF018091BB00F0E0E257FE4F8083A7
:101160009091AF018091AE016EC0E091AF0181E03E
:101170008E0F8093AF018091BB00F0E0E257FE4FED
:10118000808380918D0181116DC081E080938C01FD
:1011900084EA61C083E080938B0110928901CFCFF4
:1011A00080918901803208F051C0E091890181E08D
:1011B0008E0F809389018091BB00F0E0E759FE4FCC
:1011C0008083BDCF85EC8093BC0010928B01809111
:1011D0008901803230F4E0918901F0E0E759FE4F57
:1011E00010826091890170E0E0916701F0916801DF
:1011F00089E691E009951092890136C084E08093D8
:101200008B011092660110926501E0916301F091EB
:101210006401099580916501811105C081E0809389
:10122000650110924301E091660181E08E0F809389
:101230006601F0E0ED5BFE4F80818093BB009091F2
:10124000660180916501981708F479CF85E880934D
:10125000BC000AC085EC8093BC0010928B0104C0D6
:1012600010928A010E940602FF91EF91BF91AF9107
:101270009F918F917F916F915F914F913F912F91AE
:101280000F900FBE0F901F901895EF92FF920F9343
:101290001F93CF93DF931F92CDB7DEB7182FF62E93
:1012A000E42E60E080914A0279830E94940583E0F5
:1012B0000E940608812F0E9406080F2D7981172FA2
:1012C000F12CFE1459F0F8E0FF1641F080E00E9486
:1012D0000608F80181938F01F394F3CF61E08091C8
:1012E0004A020F90DF91CF911F910F91FF90EF90E5
:1012F0000C9494051F93CF93DF93182FCAE3D2E089
:1013000060E088890E94940583E00E940608812F8E
:101310000E94060880E00E940608182F61E0888974
:101320000E949405812FDF91CF911F9108950F9313
:101330001F93CF93DF9300D000D0CDB7DEB7182F27
:1013400010923A0210923B0210923C0210923D021F
:1013500010923E0244E0BE016F5F7F4F0E9445093C
:101360008A819981482F50E065E0559547956A95A7
:10137000E1F728E0929F400D511D1124052E000C2D
:10138000660B770B40933B0250933C0260933D0207
:1013900070933E0283FF29C092E0440F551F661FE1
:1013A000771F9A95D1F78370480F511D611D711DEC
:1013B000762F652F542F44278B81480F511D611DB7
:1013C000711D762F652F542F44278C81480F511D96
:1013D000611D711D40933B0250933C0260933D029E
:1013E00070933E0281E080933A028FEF810F0E945A
:1013F0007A09082F84E0810F0E947A09482F03FFA1
:1014000004C081E08093480202C0109248024F70ED
:1014100040933F0260E472E085E0810F0E9445093D
:101420000F900F900F900F90DF91CF911F910F9120
:101430000895EF92FF920F931F93CF93DF931F9224
:10144000CDB7DEB7082F162F8AE3E82E82E0F82EFC
:1014500060E0F701808949830E94940585E00E943D
:101460000608802F0E940608812F0E9406084981E5
:10147000842F0E94060861E0F70180890E9494058C
:1014800083EE93E00197F1F70F90DF91CF911F91D9
:101490000F91FF90EF900895CF93C82F482F60EEE3
:1014A0008FE00E94190A8FE00E947A09807E91E005
:1014B0008C1301C090E0892FCF9108951F93CF9393
:1014C000DF93CAE3D2E060E088890E94940580EA55
:1014D0000E94060880E00E940608182F61E08889B3
:1014E0000E949405812FDF91CF911F9108950F9352
:1014F0001F93CF93DF93082F162FCAE3D2E060E04B
:1015000088890E94940582E00E940608802F0E942C
:101510000608812F0E94060861E088890E949405D0
:1015200083EE93E00197F1F7DF91CF911F910F9137
:1015300008951F93CF93DF9300D000D0CDB7DEB7CF
:10154000182F1C821B82613019F488E08A8301C045
:101550001A82198260E080914A020E94940582E01A
:101560000E940608812F0E94060889810E940608B1
:101570008A810E9406088B810E9406088C810E9445
:10158000060861E080914A020E94940583EE93E090
:101590000197F1F70F900F900F900F90DF91CF917F
:1015A0001F910895BC01009791F0FC01019000206B
:1015B000E9F73197AF01481B590BE091DE01F0913B
:1015C000DF010280F381E02D8EED91E0099480E04F
:1015D00090E008958F929F92AF92BF920F931F93C6
:1015E000CF93DF93CDB7DEB7A1970FB6F894DEBFE8
:1015F0000FBECDBF19A2423008F44AE08E010F5D44
:101600001F4F842E912CA12CB12CA50194010E9476
:10161000E40DE62FB901CA0101501109EA3014F4B2
:10162000E05D01C0E95CD801EC93232B242B252B32
:1016300061F7C8010E94D20AA1960FB6F894DEBFE6
:101640000FBECDBFDF91CF911F910F91BF90AF9093
:101650009F908F9008950F931F93CF93DF938C01EA
:10166000C0E0D0E0F801EC0FFD1F6491662371F03B
:10167000E091DE01F091DF010190F081E02D8EED2F
:1016800091E00995892B11F02196ECCF8DE391E043
:101690000E94D20A8C0F9D1FDF91CF911F910F9155
:1016A0000895FC018091C701811103C08FEF9FEF66
:1016B00008959FB7F89482E08093E9002091F200AA
:1016C00030E01216130614F421E030E02115310544
:1016D00059F0289884E68093C6018091F1008083B8
:1016E0008091F200882319F09FBFC90108958BE60D
:1016F0008093E800F9CF8091D60181110DC082E07E
:101700008093D20184E08093D3011092D50110928E
:10171000D40181E08093D60182ED91E00895CF92CB
:10172000DF92EF92FF920F931F93CF93DF931F925D
:10173000CDB7DEB7182F062FE42E862F880F8E5FC9
:1017400099830E94180183E00E941801F12EC12E96
:101750009981D92E8C2D8F19801798F4F601E7FE08
:1017600002C0849101C080810E941801182F80E07E
:101770000E9418018123FFEFCF1ADF0A8111EACFFF
:1017800001C081E00F90DF91CF911F910F91FF90E9
:10179000EF90DF90CF900895CF93DF93EEEDF1E0DF
:1017A0001382128288EE93E0A0E0B0E084839583F8
:1017B000A683B78321E231E0318320832FEF3FEF0F
:1017C00035872487EEE2F2E01382128284839583C8
:1017D000A683B78381E391E091838083CAE3D2E05B
:1017E0008AE0888B61E00E94F70561E08889DF91DB
:1017F000CF910C949405789484B5826084BD84B5AF
:10180000816084BD85B5826085BD85B5816085BDFB
:1018100080916E00816080936E00109281008091B3
:10182000810082608093810080918100816080933B
:101830008100809180008160809380008091910080
:1018400082608093910080919100816080939100EB
:10185000809190008160809390008091C1008460AD
:101860008093C1008091C10082608093C10080910B
:10187000C10081608093C1008091C300816080932A
:10188000C3008091C00082608093C0008091C2003C
:1018900081608093C20080917A00846080937A0096
:1018A00080917A00826080937A0080917A008160D2
:1018B00080937A0080917A00806880937A001092F9
:1018C000C7011092C4011092C3018091D7008160BA
:1018D0008093D70080EA8093D80089B5806189BD64
:1018E00089B5826089BD09B400FEFDCF61E070E07A
:1018F00080E090E00E9433068091D8008F7C806168
:101900008093D8008091E000807F8093E0008091F8
:10191000E1008E7E8093E1008DE08093E200559A95
:10192000209AEEEFFFE7859194918B3F9C4D19F43F
:1019300081E08093C20168EB7BE080E090E00E9450
:1019400033068FEF9FEF9093EB018093EA014AEB10
:10195000C42E41E0D42E0BE911E050E4E52EFFB691
:10196000F8948091C801811125C0F6018491F80195
:10197000249190E0880F991F84589E4FFC01A591F7
:10198000B4918C91282321F461E081E10E949405B7
:1019900061E081E10E94F7058CB580618CBD8CB55A
:1019A00080648CBD61E08FE00E94F70561E080E11A
:1019B0000E94F7058091C8018F5F8093C801FFBE28
:1019C00060E080914A020E94940580EC0E94060823
:1019D00061E080914A020E9494056AE070E080E034
:1019E00090E00E943306E0924B0280E80E944C0A8D
:1019F00081115AC061E08AE20E94770A61EB89E2B4
:101A00000E94770A65E088E20E94770A61E080E23E
:101A10000E94990A61E084E20E94990A61E080E0F4
:101A20000E94990A60E084E00E94990A61E088E0DF
:101A30000E94990A60E080E10E94990A61E084E1D5
:101A40000E94990A60E088E10E94990AC0E360E080
:101A50008C2F0E94770A60E080E18C0F0E94770A49
:101A600060E080E28C0F0E94770ACF5FCE3379F777
:101A700060E080E60E94770A60E080E70E94770AD3
:101A800063E08BE20E94770A44E064E680E60E940D
:101A9000190A40E060E680E70E94190A80914B0233
:101AA0000E944C0A882359F088EC91E00E942B0B8D
:101AB00064E670E080E090E00E94330650CF81ED54
:101AC00091E00E942B0B60E087E00E94F7058BE617
:101AD00092E0909315018093140180916A008F7CAD
:101AE000806280936A00EE9A10924B0280E00E941E
:101AF0004C0AC0E0D0E08091C501811105C020975B
:101B0000D1F30E940000F7CF1092C5010E945E0A37
:101B10008370A9F30E945E0A80FF06C081E60E94DE
:101B2000970940E061E007C081FF1FC081E70E9484
:101B3000970940E062E08CE20E94190A20913F027E
:101B40002093D101E9ECF1E080E090E030E08217F1
:101B500093076CF48830910551F0DC01A65CBD4F11
:101B600016964C9141930196F2CF1092D10160915B
:101B70003B0270913C0280913D0290913E0240E117
:101B80000E94EA0A80E491E00E94D20A09EC11E086
:101B90008091D10190E09801295C314028173907E4
:101BA00074F4F80161918F0170E080E090E040E111
:101BB0000E94EA0A80E491E00E94D20AE9CF8DE314
:101BC00091E00E94D20AA2CFA1E21A2EAA1BBB1B4F
:101BD000FD010DC0AA1FBB1FEE1FFF1FA217B307F9
:101BE000E407F50720F0A21BB30BE40BF50B661F0F
:101BF000771F881F991F1A9469F7609570958095D3
:101C000090959B01AC01BD01CF010895EE0FFF1F20
:101C10000590F491E02D099481E090E0F8940C9403
:061C2000110EF894FFCF45
:101C2600FFFFFFFF00E100000000000005020502C3
:101C360005020502050200C18081000000000000C7
:101C460000A5016D06C601C702A302BB0100000084
:101C5600005A0246023F023C02390238020D0A00CF
:021C6600090073
:00000001FF
