:100000000C94FB010C94E2110C94BB110C94941110
:100010000C946D110C9423020C9423020C94461141
:100020000C9423020C9423020C9413120C94ED12E2
:100030000C9423020C9423020C9423020C942302AC
:100040000C9423020C9423020C9423020C9423029C
:100050000C9423020C9423020C9423020C94E020B1
:100060000C9423020C9423020C9423020C9423027C
:100070000C9423020C9423020C9423020C9423026C
:100080000C9423020C9423020C9423020C9423025C
:100090000C94640E0C9423020C9423020C942302FF
:1000A0000C9423020C9423020C942302691F6C1FEE
:1000B0005B1F5F1F631F8D1F8D1F8D1F701F741FA0
:1000C000781F7E1F821F8D1F881F00407A10F35AF1
:1000D00000A0724E18090010A5D4E80000E8764888
:1000E000170000E40B54020000CA9A3B000000E134
:1000F000F505000080969800000040420F000000C7
:10010000A08601000000102700000000E8030000A6
:1001100000006400000000000A0000000000010070
:10012000000000002C76D888DC674F0823DFC1DF91
:10013000AE59E1B1B796E5E3E453C63AE651997694
:1001400096E8E6C28426EB898C9B62ED407C6FFCCE
:10015000EFBC9C9F40F2BAA56FA5F490055A2AF710
:100160005C936B6CF9676DC11BFCE0E40D47FEF519
:1001700020E6B500D0ED902E030094357705008081
:10018000841E080000204E0A000000C80C333333E0
:10019000330F986E12831141EF8D2114893BE65580
:1001A00016CFFEE6DB18D1844B381BF77C1D901D63
:1001B000A4BBE424203284725E228100C9F124ECC5
:1001C000A1E53D272000200020453A0020543A00B8
:1001D00020453A0020453A003A0000000000002D7A
:1001E0002D001C100500DF60DDD88945C74C9CD26E
:1001F000659D9E648A9F00000306B2000200050F01
:100200003900021810050038B60834A909A0478B38
:10021000FDA0768815B66500010184000400070082
:100220002A0044006500760069006300650049000B
:100230006E00740065007200660061006300650076
:1002400047005500490044007300000050007B0047
:1002500039003700350046003400340044003900CE
:100260002D0030004400300038002D0034003300F1
:10027000460044002D0038004200330045002D00A8
:100280003100320037004300410038004100460091
:1002900046004600390044007D000000000000A038
:1002A000001400030057494E55534200000000005F
:1002B00000000000000A00000000000306B2000871
:1002C0000001000000A80008000200080B00020264
:1002D00002010009040000010202000005240010D0
:1002E000010524010101042402060524060001077A
:1002F00005810310004009040100020A0000000704
:1003000005020240000007058302400000040309C3
:100310000412010002EF0201404F1B06920001018E
:10032000020301537061726B46756E005370617207
:100330006B46756E2050726F204D6963726F0000BE
:1003400020200020202020202020202020543A009F
:10035000205350443A002052504D3A004C4F002058
:100360002020002020202020202020543A0020534C
:100370003A0020523A004C4F570000000000240081
:1003800027002A002D003000000000002500280072
:100390002B002E00310004040404040304050202AF
:1003A000020204030202020206060606060604040E
:1003B00002020204040408020110408040102040A0
:1003C000804080080204018040201002011080104B
:1003D000204040200000000200090F00000304013B
:1003E000000C000000000000000000000000000001
:1003F00000004C29082911241FBECFEFDAE0DEBF30
:10040000CDBF26E0AAECB1E001C01D92AE3EB2071E
:10041000E1F711E0A0E0B1E0EAE7F3E602C0059001
:100420000D92AA3CB107D9F711E0CAEFD1E004C0A0
:100430002197FE010E94942EC93FD107C9F70E945F
:100440002A210C94B0310C9400007F928F929F92DD
:10045000AF92BF92CF92DF92EF92FF920F931F93D2
:10046000CF93DF93CDB7DEB7A5970FB6F894DEBF75
:100470000FBECDBF8091CC01882389F01092CC01B2
:1004800004E610E093E9E92E9FE0F92E21E1D22E57
:1004900036E0C32E0E945120837009F07CC40E9474
:1004A000AB1B8091D301882311F40C944D0A8091E9
:1004B0000501882309F476C080910801813009F490
:1004C00071C00E944516E62F29833A834B835C83D3
:1004D0006D837E838F8360910801852F0E94602E3B
:1004E0009093D101E093D001692FCE0108960E942C
:1004F000D81EBE01685F7F4F89E395E00E9403111B
:10050000CE0108960E941A116091D001CE01089682
:100510000E94D81EBE01685F7F4F83E395E00E9472
:100520000311CE0108960E941A1163E375E0CE0113
:1005300044960E94331869E375E0CE0108960E9444
:100540003318BE01685F7F4FCE010E960E942811BE
:1005500068ED71E0CE010E960E943E10BE016C5E09
:100560007F4F0E947010BC01CE014A960E94281154
:10057000BE01665E7F4F8DE295E00E940311CE01C1
:100580004A960E941A11CE010E960E941A11CE01AF
:1005900008960E941A11CE0144960E941A1181E019
:1005A0008093D2010DE612E0C12CD12C8AE0B82E46
:1005B0008091B10290E0E090D403F090D503C8168A
:1005C000D90608F04DC0F80180819181E816F9063E
:1005D00020F48091000181113DC0F8016481758192
:1005E000C7010E946C2E228133818217930791F5F7
:1005F00080910301813071F40E945919882351F0D0
:10060000F80186819781823F934021F48091D20145
:1006100081112DC78091CE019091CF01E816F90686
:1006200031F46CE070E080E090E00E94A620F801D8
:100630006681778180E090E09801275F3F4F408599
:100640000E94601D8091D4039091D5039093CF01B7
:100650008093CE01FFEFCF1ADF0A0F5E1F4FA8CFA6
:10066000E0910101E370E09301010E2F10E021E120
:10067000E29FF0011124E158FC4F80819181E8163E
:10068000F90620F480910001811139C081E1809F39
:10069000F001819FF00D1124E158FC4F64817581B8
:1006A000C7010E946C2E228133818217930739F58E
:1006B0008091CE019091CF01E816F90631F46CE0FB
:1006C00070E080E090E00E94A62081E1809FF00130
:1006D000819FF00D11249F0128573C4FE158FC4F9A
:1006E0006681778180E090E040850E94601D809166
:1006F000D4039091D5039093CF018093CE012091A4
:10070000CD018091D4039091D503422F50E031E187
:10071000239FF0011124EE54FD4F608171818617F3
:10072000970720F43091000131111AC331E1349F51
:10073000F001359FF00D1124EE54FD4F6481758159
:100740000E946C2E428153818417950709F008C3DB
:100750002111D8C280910301823009F44BC108F005
:10076000A3C0813009F0CEC243E06BE475E0CE0156
:1007700001960E942D1ABE016F5F7F4F80E00E949C
:10078000E918CE0101960E941A111091CB01412F58
:1007900063E675E0CE014A960E942D1A43E065E4B7
:1007A00075E0CE0144960E942D1A44E061E575E0A3
:1007B000CE010E960E942D1A412F6DE575E0CE01F7
:1007C00001960E942D1ABE016F5F7F4FCE010896E1
:1007D0000E94281161E275E0CE0108960E94701017
:1007E000BE01625F7F4F0E94701064ED71E00E9455
:1007F0003E10BE016C5E7F4F0E9470100E94401739
:10080000BE01665E7F4F0E947010BC01CE018096D3
:100810000E942811BE01605E7F4F81E00E94E918AE
:10082000CE0180960E941A11CE0108960E941A11DC
:10083000CE0101960E941A11CE010E960E941A1145
:10084000CE0144960E941A11CE014A960E941A11B6
:100850001091CB01412F69E675E0CE0144960E94CC
:100860002D1A43E06FE375E0CE010E960E942D1A1B
:10087000412F6FE675E0CE0101960E942D1ABE0150
:100880006F5F7F4FCE0108960E94281165E175E0E9
:10089000CE0108960E947010BE01625F7F4F0E94D9
:1008A00070100E944017E3C1833009F442C18430C4
:1008B00009F028C21091CB01412F63E675E0CE010B
:1008C0004A960E942D1A43E065E475E0CE014496F5
:1008D0000E942D1A44E061E575E0CE010E960E945B
:1008E0002D1A412F6DE575E0CE0101960E942D1A5B
:1008F000BE016F5F7F4FCE0108960E94281161E212
:1009000075E0CE0108960E947010BE01625F7F4FB5
:100910000E94701068EC71E00E943E10BE016C5E97
:100920007F4F0E9470100E944017BE01665E7F4F8D
:100930000E947010BC01CE0180960E942811BE0159
:10094000605E7F4F81E00E94E918CE0180960E9490
:100950001A11CE0108960E941A11CE0101960E942A
:100960001A11CE010E960E941A11CE0144960E94D1
:100970001A11CE014A960E941A114091CB016FE6DE
:1009800075E0CE014A960E942D1A6DE275E0CE0107
:1009900044960E94281144E06BE475E0CE010E9667
:1009A0000E942D1A4091CB0169E675E0CE010196B7
:1009B0000E942D1ABE016F5F7F4FCE0108960E94E4
:1009C00028116BE175E0CE0108960E947010BE01FF
:1009D000625F7F4F0E94701066EC71E00E943E10D3
:1009E000BE016C5E7F4F0E94701064EC71E00E944B
:1009F0003E1060C11091CB01412F63E675E0CE013E
:100A00004A960E942D1A43E065E475E0CE014496B3
:100A10000E942D1A44E061E575E0CE010E960E9419
:100A20002D1A412F6DE575E0CE0101960E942D1A19
:100A3000BE016F5F7F4FCE0108960E94281161E2D0
:100A400075E0CE0108960E947010BE01625F7F4F74
:100A50000E94701060ED71E00E943E10BE016C5E5D
:100A60007F4F0E9470100E944017BE01665E7F4F4C
:100A70000E947010BC01CE0180960E942811BE0118
:100A8000605E7F4F81E00E94E918CE0180960E944F
:100A90001A11CE0108960E941A11CE0101960E94E9
:100AA0001A11CE010E960E941A11CE0144960E9490
:100AB0001A11CE014A960E941A111091CB01412FB2
:100AC0006FE675E0CE014A960E942D1A43E06FE36F
:100AD00075E0CE0144960E942D1A44E06BE475E067
:100AE000CE010E960E942D1A412F69E675E0CE01C7
:100AF00001960E942D1ABE016F5F7F4FCE010896AE
:100B00000E9428116BE175E0CE0108960E947010DA
:100B1000BE01625F7F4F0E9470106CEC71E00E941A
:100B20003E10BE016C5E7F4F0E9470100E94401705
:100B3000C1C043E065E475E0CE0108960E942D1A1D
:100B40006FE871E0CE0101960E943111BE01685F2D
:100B50007F4FCE0101960E947010BC01CE010E960F
:100B60000E942811BE01625F7F4F87E295E00E94DC
:100B70000311CE010E960E941A11CE0101960E9419
:100B80001A11CE0108960E941A111091CB01412F23
:100B900063E675E0CE0144960E942D1A4091CA0189
:100BA0004E5F6DE275E0CE010E960E94A31A412FB2
:100BB0006DE575E0CE0101960E942D1ABE016F5FB2
:100BC0007F4FCE0108960E942811BE01625F7F4FC1
:100BD000CE0108960E947010BE016C5E7F4F0E948D
:100BE0007010BC01CE014A960E942811BE01665EBB
:100BF0007F4F81E00E94E918CE014A960E941A11A7
:100C0000CE0108960E941A11CE0101960E941A1177
:100C1000CE010E960E941A11CE0144960E941A111E
:100C20001091CB01412F6FE675E0CE0144960E94F2
:100C30002D1A4091CA014E5F67E275E0CE010E9613
:100C40000E94A31A412F69E675E0CE0101960E9429
:100C50002D1ABE016F5F7F4FCE0108960E942811AA
:100C6000BE01625F7F4FCE0108960E947010BE01E8
:100C70006C5E7F4F0E947010BC01CE014A960E94AC
:100C80002811BE01665E7F4F82E00E94E918CE0106
:100C90004A960E941A11CE0108960E941A11CE019E
:100CA00001960E941A11CE010E960E941A11CE01D1
:100CB000449626C0BE01665E7F4F0E947010BC0144
:100CC000CE0180960E942811BE01605E7F4F82E0B7
:100CD0000E94E918CE0180960E941A11CE01089652
:100CE0000E941A11CE0101960E941A11CE010E9691
:100CF0000E941A11CE0144960E941A11CE014A9602
:100D00000E941A112091CE013091CF018091D4031D
:100D10009091D5032817390731F46CE070E080E03A
:100D200090E00E94A620E091CD010E2F10E081E11D
:100D3000E89FF00111249F0125543D4FEE54FD4FD3
:100D40006681778180E090E040850E94601DC80147
:100D5000019660917E0370E00E94802E8093CD0109
:100D600069E170E080E090E00E94A6208091D403C9
:100D70009091D50349968115EDE79E0728F490934D
:100D8000D5038093D40389C31092D5031092D40362
:100D90001092000182C30E94512080FF06C081E6AC
:100DA0000E94CF1F40E061E007C081FF0AC081E7D9
:100DB0000E94CF1F40E062E08CE20E94811780E039
:100DC00001C084E09091FD04992389F04091FE04D4
:100DD0005091FF0460910005709101057068409387
:100DE000FE045093FF0460930005709301059091F9
:100DF0000B05992389F04091FE045091FF04609106
:100E000000057091010570644093FE045093FF0447
:100E10006093000570930105811125C08091FE0447
:100E20009091FF04A0910005B09101058093DD0130
:100E30009093DE01A093DF01B093E00120910205C1
:100E40002093DC01A3E0B5E0E4EDF1E080E090E088
:100E500030E0821793074CF48830910531F04D91C2
:100E600041930196F6CF1092DC018091DD019091C3
:100E7000DE01A091DF01B091E001833224E092070E
:100E8000A105B10509F41DC130F4853B9340A105CE
:100E9000B10571F0FFCA8636F4E09F07A105B105E0
:100EA00009F4B2C28E329740A105B10579F1F2CAB8
:100EB00080910901882309F4EDCA80910A0181110A
:100EC000E9CA1092D603E091D603E43008F0E2CAF2
:100ED000F0E0EC52FE4F6081CE0101960E947A1C38
:100EE0008091D603C89EC0011124BE016F5F7F4F61
:100EF000835A9A4F0E947A1ACE0101960E941A11C3
:100F00008091D6038F5F8093D603DDCF8091090156
:100F1000882309F494C080910A01882309F48FC0C2
:100F20008091D401873009F08AC08091D501823642
:100F300009F085C08091D601813409F080C080918C
:100F4000D701803429F0813409F079C082E03CC0B7
:100F50001092D603E091D603E230A0F5F0E0EE0F58
:100F6000FF1FE852FE4F608170E0762F6627818177
:100F7000680F711D072E000C880B990B0E94F32C33
:100F80002DEC3CEC4CE45DE30E94522D0E94802F3E
:100F9000CE0101960E947A1C8091D603C89EC001A2
:100FA0001124BE016F5F7F4F835A9A4F0E947A1AB5
:100FB000CE0101960E941A118091D6038F5F809313
:100FC000D603C8CF81E039C08093D603E091D60321
:100FD000E43090F5F0E0EE0FFF1FEC52FE4F608121
:100FE00070E0762F66278181680F711D072E000C37
:100FF000880B990B0E94F32C2DEC3CEC4CE45DE348
:101000000E94522D0E94802FCE0101960E947A1CD0
:101010008091D603C89EC0011124BE016F5F7F4F2F
:10102000835A9A4F0E947A1ACE0101960E941A1191
:101030008091D6038F5FC8CF82E0809301018091B9
:101040000901882309F426CA80910A01882309F43A
:1010500021CA8091D401863009F01CCA8091D50143
:10106000823609F017CA8091D601813409F012CA7C
:101070008091D701803609F00DCA6091D8016623AE
:1010800061F0CE0101960E946419BE016F5F7F4F2F
:101090008FE395E00E947A1A0DC06FED71E0CE01EA
:1010A00001960E941F11BE016F5F7F4F8FE395E095
:1010B0000E940311CE0101960E941A1110920101A3
:1010C000E9C96091D60170E0762F66278091D7013B
:1010D000680F711D6D3F3FEF7307ACF077FF02C0E3
:1010E0006D5F7F4F7595679575956795072E000C19
:1010F000880B990B0E94F32C20E030E040E05FE386
:101100000E949B2E14C077FF02C06D5F7F4F7595C4
:10111000679575956795072E000C880B990B0E94B3
:10112000F32C20E030E040E05FE30E949A2E0E9422
:10113000792FCE0101960E94051FBE016F5F7F4F80
:1011400081E595E00E940311CE0101960E941A11DB
:101150008091D40190E0982F88272091D501820FAB
:10116000911DB8010E94802E64567109072E000C53
:10117000880B990B0E94F32C4B015C0170900401C9
:10118000711005C06BE272E18FE19FE304C060E083
:1011900070E080E89FE3A50194010E94522D20E0B9
:1011A00030E0A9010E94AF2F87FD16C0711005C065
:1011B0006BE272E18FE19FE304C060E070E080E8E1
:1011C0009FE3A50194010E94522D20E030E040E011
:1011D0005FE30E949B2E15C0711005C06BE272E1A7
:1011E0008FE19FE304C060E070E080E89FE3A50129
:1011F00094010E94522D20E030E040E05FE30E9425
:101200009A2E0E94792FCE0101960E94051FBE01E1
:101210006F5F7F4F8BE495E00E940311CE01019632
:101220000E941A116091D801CE0101960E946419A2
:10123000BE016F5F7F4F85E495E00E947A1ACE0170
:1012400001960E941A118091D301882309F45EC08F
:101250008091D4018F3F09F059C01092D3011092B0
:10126000D2016EED71E0CE0101960E941F11BE0108
:101270006F5F7F4F8BE495E00E940311CE010196D2
:101280000E941A116DED71E0CE0101960E941F11AE
:10129000BE016F5F7F4F81E595E00E940311CE0193
:1012A00001960E941A116CED71E0CE0101960E9428
:1012B0001F11BE016F5F7F4F85E495E00E9403110F
:1012C000CE0101960E941A116BED71E0CE010196DC
:1012D0000E941F11BE016F5F7F4F8FE395E00E9458
:1012E0000311CE0101960E941A116AED71E0CE0140
:1012F00001960E941F11BE016F5F7F4F87E595E049
:101300000E940311CE0101960E941A118091D3010F
:101310008111C0C88091D4018F3F09F4BBC881E01E
:101320008093D30160E087E00E946A20EE98F092FB
:101330002E01E0922D0168EE73E080E090E00E94C3
:10134000A6201092D5031092D4031092D603E091F8
:10135000D60380916C02E81798F5DE9EF001112407
:101360009F0123513E4FEC51FE4F6681778180E013
:1013700090E040850E94601DE091D603DE9EF00162
:101380001124EC51FE4F6281738180E090E00E9455
:10139000A6208091D603D89EF0011124EC51FE4F77
:1013A0004091D4035091D50322813381240F351FFE
:1013B0003093D5032093D4038F5F8093D603C7CF98
:1013C0001092D5031092D40381E080930001109213
:1013D000CD0180910A01882371F06091B80370916A
:1013E000B90380E090E02BEB33E04091BA030E9418
:1013F000601D109201010E94D71864EF71E080E037
:1014000090E00E94A62046C880910501811142C843
:1014100060910801613009F43DC88091D40186953E
:101420008695869590E02091060130E04091070175
:10143000411103C04FEF5FEF02C041E050E0429F17
:10144000F001439FF00D529FF00D11248E0F9F1F4E
:1014500070E00E94802E8093D1018091D501869505
:1014600086958093D00181E08093D20113C880914A
:10147000D1016B2D0E94602EF0E18F9F900D112401
:10148000F80191878091D0010E94602EF0E18F9F3A
:10149000900D1124F8019287BDC8A5960FB6F89457
:1014A000DEBF0FBECDBFDF91CF911F910F91FF9097
:1014B000EF90DF90CF90BF90AF909F908F907F90F4
:1014C00008952FB7F89487708093E9009091E80011
:1014D000892F807295FF04C09091F20080E4891BEF
:1014E0002FBF0895CF93DF931F92CDB7DEB79091B2
:1014F000E301911103C08FEF9FEF2AC03FB7F8942B
:1015000087708093E9008091F20090E01816190628
:1015100014F481E090E0282FFE01319644E621503A
:1015200038F0289840932C045091F1005193F7CF54
:10153000009721F02091F200222331F03FBF019764
:10154000D1F6898190E004C02BE62093E800F6CF25
:101550000F90DF91CF9108959FB7F8948770809393
:10156000E9008091F2009FBF0895CF92DF92EF9241
:10157000FF920F931F93CF93DF936C017A018B013E
:10158000C0E0D0E0CE15DF0581F0D8016D918D016E
:10159000D601ED91FC910190F081E02DC6010995F5
:1015A000892B11F02196EECF7E01C701DF91CF91FB
:1015B0001F910F91FF90EF90DF90CF900895CF9300
:1015C000DF931F92CDB7DEB76983DC01ED91FC910B
:1015D0000280F381E02D41E050E0BE016F5F7F4F5C
:1015E00009950F90DF91CF91089583E00E94610AE1
:1015F00090E00895FC018485958597FD05C02FEF47
:101600003FEF35872487089582E00C94720ACF93C8
:10161000DF93EC018C859D8597FF05C082E00E94D9
:10162000720A9D878C878C859D85DF91CF91089567
:10163000FC018485958597FD06C082E00E94AC0A76
:1016400090E00196089582E00E94AC0A90E008952F
:10165000FC0182818F5BFB01808381E0089585ED31
:101660008093BC008091BC0084FDFCCF10927C0470
:1016700008954091F903262F30E0240F311D2132C7
:101680003105DCF420917C042430C9F4FC0180E0B5
:1016900090E0861758F43091F9032191DC01A752AC
:1016A000BC4FA30FB11D2C930196F3CF8091F9038A
:1016B000680F6093F90380E0089581E0089582E067
:1016C0000895089508950895E091340480913304B5
:1016D000E81730F4F0E0EB5CFB4F808190E0089578
:1016E0008FEF9FEF08959091340480913304981701
:1016F00050F4E92FF0E0EB5CFB4F208130E09F5F7E
:101700009093340402C02FEF3FEFC90108958091F8
:10171000330490E020913404821B91090895CF9204
:10172000DF92EF92FF920F931F93CF93DF937C0191
:10173000CB018A0120917D04222389F0EB016B010A
:10174000C40ED51ECC15DD0569F06991D701ED9168
:10175000FC910190F081E02DC7010995F3CF642F32
:101760000E94390BC801DF91CF911F910F91FF901B
:10177000EF90DF90CF900895CF93DF931F92CDB776
:10178000DEB7698320917D042223D1F02091A0044B
:10179000203240F021E030E0FC013383228380E0FE
:1017A00090E015C080917E04E82FF0E0E158FB4FF7
:1017B000998190838F5F80937E048093A00405C0FD
:1017C00061E0CE0101960E94390B81E090E00F901C
:1017D000DF91CF91089580E090E008957F928F92FD
:1017E0009F92AF92BF92CF92DF92EF92FF920F93B0
:1017F0001F93CF93DF93C82E8B017A018091E30171
:10180000811103C08FEF9FEF74C08091E10180FFD1
:1018100005C08091E00082608093E000CE2DDF2D36
:10182000D12C8AEFB82E8C2D8770982E8C2D80723B
:10183000882E8C2D8074782E9AE3A92E209719F487
:10184000DD2009F451C08C2D0E94610A81110AC06B
:10185000BA94BB20B9F261E070E080E090E00E94B1
:10186000A620ECCF282F30E0C217D3070CF48C2F22
:101870009FB7F8949092E9002091E80025FF32C0CC
:10188000282F30E0C21BD30B882029F08150A0F014
:101890001092F100FBCFF801C7FE0AC0815050F052
:1018A00044914093F1003196F9CF41914093F1007A
:1018B0008150D8F7020F131FDD2019F0A092E80025
:1018C0000AC08091E80085FD08C0A092E800DD24F0
:1018D000D394209739F0D12C05C0209719F47110BA
:1018E000A092E8009FBFAACF5D9884E680932D0464
:1018F000C701DF91CF911F910F91FF90EF90DF9083
:10190000CF90BF90AF909F908F907F900895CF938E
:10191000DF93EC0180912401882331F083E00E9461
:10192000EE0B1816190634F081E090E09B838A8351
:1019300080E090E0DF91CF91089583E00C9409124C
:101940000F931F93CF93DF931F92CDB7DEB7FB01A9
:1019500023812F30A1F52281211131C024813581CD
:10196000232B69F58C014CE150E06EEF71E080E8CB
:101970000E94941297FF03C08FEF9FEF22C0F801DF
:10198000EF59FF4F81E020813181232B09F480E062
:10199000898341E050E0BE016F5F7F4F80E00E948D
:1019A000941297FDE9CF4CE150E062EE71E080E8DF
:1019B0000E94941297FDE0CF89E390E002C080E09E
:1019C00090E00F90DF91CF911F910F910895CF93E9
:1019D000DF93CDB7DEB767970FB6F894DEBF0FBEC3
:1019E000CDBFFC01DB019C919F5F9C93BE016F5FAB
:1019F0007F4F87E1DB011D928A95E9F789E08983B2
:101A000084E08A8392E09D838FEF8E8347E04A874C
:101A100085E08B879D8720E430E03F872E87498BC8
:101A20008A8B9C8B3E8B2D8B82818B8383818C87D1
:101A30008F5F80688B8B47E150E080E00E949412BA
:101A400067960FB6F894DEBF0FBECDBFDF91CF9182
:101A50000895CF92DF92EF92FF920F931F93CF934F
:101A6000DF9300D0CDB7DEB78C01FB01818190817F
:101A7000292F2076203291F5D80112962C9130E052
:101A8000448155812417350709F040C0913A39F453
:101A90008132E1F547E050E061E171E069C09132E7
:101AA000A9F5833269F482819381A0E0B0E080934C
:101AB0000D0190930E01A0930F01B093100189C006
:101AC000803229F481E191E00E94311F82C082328C
:101AD00009F07FC08281809318017BC02034B1F46B
:101AE000903CA1F4813009F045C084819581029732
:101AF00069F46801B1E6CB0ED11CD6012D913C9161
:101B00002115310519F08281813011F080E062C029
:101B1000F90101900020E9F731977F01E21AF30AF9
:101B200083E08E0D8A8341E050E0BE016E5F7F4FFF
:101B300080E00E94941297FDE9CF83E0898341E021
:101B400050E0BE016F5F7F4F80E00E94941297FDCE
:101B5000DDCFB801605A7F4F41E050E080E00E9445
:101B6000941297FDD3CFA7015527F60160817181AB
:101B700080E027C0823051F684819581079731F645
:101B800046E150E065EB72E080E80E94941297FD18
:101B9000BDCFB8016E5F7F4F41E050E080E00E9412
:101BA000941297FDB3CF47E150E06EE972E080E810
:101BB0000E94941297FDAACF44E850E06AE172E0D7
:101BC00080E80E9494129095892F881F8827881F8B
:101BD00001C081E00F900F90DF91CF911F910F9185
:101BE000FF90EF90DF90CF900895CF93DF939B010C
:101BF0008D599F4FFC0160817181FB010190002094
:101C0000E9F73197EF01C61BD70BAE015527C90184
:101C10000E94A0318C2FDF91CF91089540912A042A
:101C200050912B0420912804309129044217530726
:101C3000B4F49091E8009570E1F39091E80092FD82
:101C400019C08093F10080912A0490912B04019691
:101C50008F739927892B19F48EEF8093E800809178
:101C60002A0490912B04019690932B0480932A04CC
:101C700081E0089580E00895615030F02091F100F6
:101C8000FC0120830196F8CF289884E680932C04E9
:101C900008958091200481110DC082E080931C047E
:101CA00084E080931D0410921F0410921E0481E0B2
:101CB000809320048CE194E008958EBD00000DB463
:101CC00007FEFDCF8EB508951F920F920FB60F92AB
:101CD00011242F933F934F935F936F937F938F9331
:101CE0009F93AF93BF93EF93FF938091B900887F49
:101CF000803609F49CC068F5883209F45BC090F422
:101D0000803109F454C038F4882309F4F6C08830CF
:101D100009F44DC0F6C0883109F44CC0803209F492
:101D20005DC0EFC0803409F468C048F4803309F422
:101D300055C0883309F0E5C080937A04D8C0803557
:101D400009F44FC0883509F45DC0883409F0D9C062
:101D5000D6C0883909F4C7C0A8F4883709F467C029
:101D600038F4883609F463C0803709F460C0C9C00C
:101D7000883809F4B8C0803909F45FC0803809F0A8
:101D8000C0C05BC0803B09F486C038F4803A09F4D7
:101D900066C0883A09F47FC0B4C0803C09F4A7C08B
:101DA000883C09F4A4C0883B09F48AC0AAC0809189
:101DB000570410C09091790480917804981770F5B9
:101DC000E091790481E08E0F80937904F0E0E85A85
:101DD000FB4F80818093BB0085EC86C080937A04A2
:101DE0008EC0E091790481E08E0F80937904809118
:101DF000BB00F0E0E85AFB4F80839091790480911A
:101E000078046EC0E091790481E08E0F80937904AC
:101E10008091BB00F0E0E85AFB4F808380917B0407
:101E200081116DC081E08093560484EA61C083E033
:101E300080937C0410921B04CFCF80911B048032CE
:101E400008F051C0E0911B0481E08E0F80931B04C9
:101E50008091BB00F0E0E550FC4F8083BDCF85EC66
:101E60008093BC0010927C0480911B04803230F47B
:101E7000E0911B04F0E0E550FC4F108260911B04E0
:101E800070E0E0912F04F09130048BEF93E009951E
:101E900010921B0436C084E080937C041092FA03F5
:101EA0001092F903E0913104F09132040995809188
:101EB000F903811105C081E08093F9031092D903E1
:101EC000E091FA0381E08E0F8093FA03F0E0E7528D
:101ED000FC4F80818093BB009091FA038091F903BD
:101EE000981708F479CF85E88093BC000AC085EC88
:101EF0008093BC0010927C0404C010927A040E946B
:101F00002F0BFF91EF91BF91AF919F918F917F9197
:101F10006F915F914F913F912F910F900FBE0F9056
:101F20001F901895089508950E949B31DF92EF92BB
:101F3000FF920F931F93CF93DF93D82EF92EE42EA9
:101F4000062F10E0C8010196880F0E940E0E83E054
:101F50000E940E0ECD2DDF2D0C0F1D1FC017D107B7
:101F600089F0E7FE03C0FE01849101C088810E94D0
:101F70000E0EF82E80E00E940E0E8F212196811108
:101F8000EDCF01C081E0DF91CF911F910F91FF90C4
:101F9000EF90DF9008950F931F93CF93DF938C0101
:101FA000EB01FC0180819181009739F06881798192
:101FB00061157105A1F40E944C3088819981F80166
:101FC000918380838A819B81938382838C819D818D
:101FD00095838483198218821B821A820FC0F801AC
:101FE000428153812C813D814217530720F30E9487
:101FF000A9318C819D81F801958384831D821C8287
:10200000DF91CF911F910F9108950F931F93CF935D
:10201000DF93EC0188819981009729F02A813B8127
:102020002617370788F48B016F5F7F4F0E94D530EA
:10203000009761F0998388831B830A832C813D81FB
:10204000232B11F4FC01108281E001C080E0DF91BC
:10205000CF911F910F910895CF93DF93EC01888169
:102060009981009711F00E944C30198218821D82CC
:102070001C821B821A82DF91CF910895EF92FF920A
:102080000F931F93CF93DF93EC017B0161157105D3
:10209000E1F0CB010E94782A0097D1F02C813D819C
:1020A0008C01020F131FB801CE010E940510882376
:1020B00061F0288139818C819D81B701820F931F46
:1020C0000E94712A1D830C8303C0CE010E942C1034
:1020D000CE01DF91CF911F910F91FF90EF90089566
:1020E000EF92FF920F931F93CF93DF93EC01FB01CD
:1020F00004811581E080F180E114F104C9F001153B
:102100001105C9F08C819D81080F191FB801CE01FE
:102110000E940510882361F0288139818C819D817E
:10212000B701820F931F0E94A9311D830C8303C046
:10213000CE010E942C10CE01DF91CF911F910F9103
:10214000FF90EF900895EF92FF920F931F93CF931C
:10215000DF93EC018B016115710551F0CB010E94F9
:10216000782A7C01BC01CE010E940510811104C0B7
:10217000CE010E942C1007C0FD82EC82B80188813C
:1021800099810E94712ACE01DF91CF911F910F9109
:10219000FF90EF900895EF92FF920F931F93CF93CC
:1021A000DF93EC017B018A01BA010E9405108111C5
:1021B00004C0CE010E942C1007C01D830C83B70100
:1021C000888199810E94A931CE01DF91CF911F9121
:1021D0000F91FF90EF900895CF93DF93EC0161157D
:1021E000710559F0FB0101900020E9F73197AF012B
:1021F000461B570B0E94CB1002C00E942C10CE0130
:10220000DF91CF910895CF93DF93EC01FB01861707
:10221000970761F0608171816115710529F0448132
:1022200055810E94CB1002C00E942C10CE01DF917C
:10223000CF910895FC01808191810C944C30FC0178
:102240001182108213821282158214820C94A310C0
:10225000FC011182108213821282158214820C9466
:102260000311FC01118210821382128215821482E2
:102270006115710551F0FB0101900020E9F73197DC
:10228000AF01461B570B0C94CB1008951F920F9271
:102290000FB60F9211242F933F934F935F936F9339
:1022A0007F938F939F93AF93BF93EF93FF93E091AF
:1022B0002D01F0912E010995FF91EF91BF91AF9102
:1022C0009F918F917F916F915F914F913F912F914E
:1022D0000F900FBE0F901F9018951F920F920FB680
:1022E0000F9211242F933F934F935F936F937F939C
:1022F0008F939F93AF93BF93EF93FF93E0912B0145
:10230000F0912C010995FF91EF91BF91AF919F91B1
:102310008F917F916F915F914F913F912F910F908E
:102320000FBE0F901F9018951F920F920FB60F922D
:1023300011242F933F934F935F936F937F938F93CA
:102340009F93AF93BF93EF93FF93E0912901F09197
:102350002A010995FF91EF91BF91AF919F918F91C4
:102360007F916F915F914F913F912F910F900FBE91
:102370000F901F9018951F920F920FB60F92112475
:102380002F933F934F935F936F937F938F939F937D
:10239000AF93BF93EF93FF93E0912701F091280152
:1023A0000995FF91EF91BF91AF919F918F917F918F
:1023B0006F915F914F913F912F910F900FBE0F90B2
:1023C0001F9018951F920F920FB60F9211242F9302
:1023D0003F934F935F936F937F938F939F93AF93AD
:1023E000BF93EF93FF93E0912501F09126010995AA
:1023F000FF91EF91BF91AF919F918F917F916F91DD
:102400005F914F913F912F910F900FBE0F901F90B2
:1024100018958093E9008091F200882319F08AE3EF
:102420008093E80008951F920F920FB60F92112427
:102430002F933F934F935F936F937F938F939F93CC
:10244000AF93BF93CF93EF93FF93C091E10080913F
:10245000E100837F8093E100C3FF0FC01092E90089
:1024600081E08093EB001092EC0082E38093ED001A
:102470001092E30188E08093F000C2FF19C083E06E
:102480000E94091280912D04882339F080912D0437
:10249000815080932D04882389F180912C04882316
:1024A00039F080912C04815080932C04882341F1D1
:1024B000C4FF10C08091E2008E7E81608093E200B4
:1024C0008091E1008F7E8093E1008091E1018E7E1A
:1024D000806111C0C0FF16C08091E2008E7E8061D5
:1024E0008093E2008091E1008E7E8093E1008091F4
:1024F000E1018E7E81608093E10104C05D9ACDCFC1
:10250000289AD6CFFF91EF91CF91BF91AF919F9134
:102510008F917F916F915F914F913F912F910F908C
:102520000FBE0F901F901895DF92EF92FF920F93BE
:102530001F93CF93DF93D82E8A017B01E40EF51E03
:10254000EB01CE15DF0571F0D7FE03C0FE018491CB
:1025500001C088810E940E0E21968111F2CF8FEF6B
:102560009FEF01C0C801DF91CF911F910F91FF90A4
:10257000EF90DF9008950F931F93CF93DF931F92F7
:10258000CDB7DEB782E0898342E450E06BEC72E0C5
:1025900080E80E9494120E94490EDC0112960D916F
:1025A0001C9113970115110589F0D801ED91FC914B
:1025B0000280F381E02DBE016F5F7F4FC801099556
:1025C00097FD04C0F80100851185ECCF89810F903B
:1025D000DF91CF911F910F9108951F920F920FB627
:1025E0000F921124CF92DF92EF92FF920F931F93DD
:1025F0002F933F934F935F936F937F938F939F930B
:10260000AF93BF93EF93FF93CF93DF93CDB7DEB735
:102610006C97DEBFCDBF1092E9008091E80083FF88
:10262000F3C168E0CE0145960E943C0E82EF809394
:10263000E8008D8987FF05C09091E80090FFFCCFEE
:1026400003C09EEF9093E800982F907609F0C6C0E3
:102650009E894F89588D2F89F88C91110CC0803834
:1026600029F48091E2018093F10002C01092F10000
:102670001092F1003DC1913051F4811139C14130C6
:10268000510509F035C18091E2018D7F0BC0933077
:1026900061F481112DC14130510509F029C18091AA
:1026A000E20182608093E20123C1953049F4809178
:1026B000E80080FFFCCF822F80688093E30018C180
:1026C000963009F05EC00B8D1C8D22E01092E9005F
:1026D00010922B0410922A04F21232C01092290494
:1026E000109228040E94BB1299E0BE016F5F7F4FD9
:1026F000DB01E92F1D92EA95E9F79983FA8291E0CF
:102700009E8390EA98879AEF998720912A043091C6
:102710002B04275F3F4F3C832B838D831092E9006E
:1027200010922B0410922A04109329040093280479
:1027300049E050E080E00E9494120E94BB12D8C091
:1027400010932904009328040E94490EDC0112967C
:102750000D911C9113970115110509F4B3C0D8010F
:10276000ED91FC910480F581E02DBE016B5E7F4F01
:10277000C8010995009709F0BFC0F80100851185CF
:10278000EACF973009F43DC1983021F481E080937D
:10279000F100AEC0993009F0ABC0837009F031C1CF
:1027A000E0E3F1E081E031E096E32081211109C00E
:1027B0008EE78093EA001092EA008F898093E3010C
:1027C00097C08093E9003093EB0021912093EC00B7
:1027D0009093ED008F5F873041F7EACF8B8D9C8D12
:1027E0001092E90010922B0410922A04909329046D
:1027F00080932804898D81114BC08E899D89913ADF
:1028000049F4813209F0FDC047E050E06DE171E02C
:1028100080E0B3C0913209F0F4C0833269F48F894B
:10282000988DA0E0B0E08093190190931A01A093D5
:102830001B01B0931C015CC0803229F48DE191E052
:102840000E94311F55C0823209F052C08F89809397
:102850002401EEEFFFE7859194918B3F9C4D19F099
:10286000E0E0F8E002C0EEEFFAE080911D01909107
:102870001E01A0911F01B0912001803B9440A10551
:10288000B10509F09EC08091240180FF79C099C0F4
:102890000E94490EFC01028113810115110509F402
:1028A000B0C0D801ED91FC910190F081E02DBE0106
:1028B0006B5E7F4FC801099581111AC0F801008530
:1028C0001185EBCFF1E0FF1609F44EC0F3E0FF12E3
:1028D00098C08F89882309F44AC0823089F440E87F
:1028E00062E18CE293E00E94960F882309F489C08C
:1028F0008EEF8093E80088C018161906CCF381C0CB
:10290000813029F440E868E083E293E0ECCF833043
:1029100009F077C00E94490EDC011296ED90FC9000
:1029200013978E010F5F1F4F6801E114F10479F0D6
:10293000D701ED91FC910680F781E02DB801C70128
:102940000995080F111DF701E084F184EECFD8013D
:102950001C92F60101900020E9F73197BF016C1934
:102960007D0940E0C601BFCF61E173E002C06DE0C8
:1029700073E0FB01449150E080E80E949412B8CFCC
:10298000EE3F2AE0F20751F0808191818737A7E777
:102990009A0721F09093FF0A8093FE0A87E797E752
:1029A000918380838091600080932E049BE088E176
:1029B0000FB6F894A895809360000FBE90936000C6
:1029C00097CF808191818737974709F091CFA8955C
:1029D0008091600088618093600080912E048093D4
:1029E0006000EE3FBAE0FB0739F08091FE0A90915B
:1029F000FF0A918380837CCF1092FF0A1092FE0A17
:102A000077CF81E28093EB006C960FB6F894DEBF2F
:102A10000FBECDBFDF91CF91FF91EF91BF91AF91ED
:102A20009F918F917F916F915F914F913F912F91E6
:102A30001F910F91FF90EF90DF90CF900F900FBEFE
:102A40000F901F90189590917C049111FCCF982FB6
:102A5000813208F090E281E080937C0480937B04D3
:102A60002FEF20937A0410927904290F2093780491
:102A70008093570480915704806D80935704809110
:102A80005604813061F4109256048091570480936B
:102A9000BB008091BC0083FDF8CF85EC01C085EEC2
:102AA0008093BC0080917C048130E1F380917904B3
:102AB000891710F490917904E8E5F4E0A5E3B4E017
:102AC00080E0891721F021912D938F5FFACF10922A
:102AD00034048093330408953091A004313208F017
:102AE0004BC080917C048111FCCF90919F0422E027
:102AF00020937C0421E020937B042FEF20937A0421
:102B00001092790430937804EFE7F4E0A8E5B4E09C
:102B100020E0321721F041914D932F5FFACF1092B0
:102B2000570420915704990F922B9093570490913A
:102B30005604913061F4109256049091570490938A
:102B4000BB009091BC0093FDF8CF95EC01C095EED1
:102B50009093BC0090917C049230E1F390917A04C0
:102B60009F3F79F080917A04803241F080917A041D
:102B7000803331F084E005C081E003C082E001C011
:102B800083E010927E041092A00410927D040895B8
:102B9000CF93C62F91E090937D0498E690939F0485
:102BA00010927E041092A004682F81EF94E00E949E
:102BB000BC0B6C2F81EF94E00E94BC0BCF910C9466
:102BC0006C15109234041092330410927E0410920B
:102BD000A00410927C0481E080937B041092560440
:102BE00061E082E00E943E1F61E083E00E943E1FA0
:102BF000E9EBF0E080818E7F808380818D7F808310
:102C000088E48093B80085E48093BC0081E69BE073
:102C1000909332048093310482E69BE090933004D9
:102C200080932F0408950E94E1156CE18EE00E94CC
:102C3000C8156AE070E080E090E00E94A62081E084
:102C400080937D0488E680939F0410927E04109206
:102C5000A00462E081EF94E00E94BC0B0E946C151E
:102C600081E090E00E94231581EF94E00E94730BB5
:102C7000682F6F7B82E00E94C8156AE070E080E0F8
:102C800090E00E94A62081E00895BF92CF92DF924B
:102C9000EF92FF920F931F93CF93DF93CDB7DEB7E1
:102CA00027970FB6F894DEBF0FBECDBF81E08093AB
:102CB0007D0488E680939F0410927E041092A00405
:102CC00060E081EF94E00E94BC0B0E946C1588E0EC
:102CD00090E00E94231581EF94E00E94730B9C0109
:102CE000332794E0359527959A95E1F71AEF082F49
:102CF000129F000D112481EF94E00E94730B9C0140
:102D0000332744E0359527954A95E1F7F82E129F31
:102D1000F00C112481EF94E00E94730B8F73982FB5
:102D200092959F70E82E919FE00C112481EF94E022
:102D30000E94730BB82E81EF94E00E94730B9C01EC
:102D4000332754E0359527955A95E1F7D82E129FF1
:102D5000D00C112481EF94E00E94730B9C01332767
:102D600064E0359527956A95E1F7C82E129FC00C4F
:102D7000112481EF94E00E94730B9C01332774E0CF
:102D8000359527957A95E1F7482F129F400D11242C
:102D9000242F3C2D4D2D5E2D6F2D702F8B2D90E00F
:102DA00027960FB6F894DEBF0FBECDBFDF91CF914F
:102DB0001F910F91FF90EF90DF90CF90BF900895FB
:102DC000AF92BF92CF92DF92EF92FF920F931F9339
:102DD000CF93DF93DC01CD90DC901197C114D10427
:102DE00009F443C01496CD91DC9115972097E9F131
:102DF0008C0176015701BFEFAB1ABB0AF701808146
:102E0000082E000C990B0E94D82C892B11F075010B
:102E1000F1CF2197CC0DDD1D8881082E000C990B78
:102E20000E94D82C892B29F0CE15DF0510F02197B0
:102E3000F3CFAE014F5F5F4F4E195F09D801159672
:102E40005C934E931497CE14DF0420F4B701C601AF
:102E50000E94A031D801ED91FC91119714968D91AB
:102E60009C911597E80FF91F1082DF91CF911F9168
:102E70000F91FF90EF90DF90CF90BF90AF900895AB
:102E80000F931F93CF93DF93EC010C811D810F5F94
:102E90001F4FB8010E940510882369F028813981ED
:102EA0008C819D8165EC71E0820F931F0E94A93196
:102EB0001D830C8303C0CE010E942C10CE01DF9134
:102EC000CF911F910F9108951F93CF93DF93182FE8
:102ED000CDEFD4E060E088890E943E1F83E00E942D
:102EE0005D0E812F0E945D0E80E00E945D0E182F06
:102EF00061E088890E943E1F812FDF91CF911F9151
:102F00000895FF920F931F93CF93DF93F82E062F10
:102F1000142FCDEFD4E060E088890E943E1F85E049
:102F20000E945D0E8F2D0E945D0E802F0E945D0E0F
:102F3000812F0E945D0E61E088890E943E1F83EE12
:102F400093E00197F1F7DF91CF911F910F91FF90DF
:102F50000895FF920F931F93CF93DF93C82FF62E00
:102F6000072F142F60E080910D050E943E1F82E024
:102F70000E945D0E8C2F0E945D0ECF2DD02FCE01B2
:102F8000810F911D8C01C017D10721F089910E94FA
:102F90005D0EF9CF61E080910D050E943E1F83EE2A
:102FA00093E00197F1F7DF91CF911F910F91FF907F
:102FB00008950F931F93CF93DF93082F162FCDEF14
:102FC000D4E060E088890E943E1F82E00E945D0E8E
:102FD000802F0E945D0E812F0E945D0E61E0888926
:102FE0000E943E1F83EE93E00197F1F7DF91CF91AE
:102FF0001F910F910895CF92DF92EF92FF920F935E
:103000001F93CF93DF937C018B016A016BE971E021
:103010000E943111D80114968D919C9115970097BB
:10302000C1F0E6018C159D0508F4EC01D801ED9185
:10303000FC911197EC0FFD1FD08010826D917C9157
:10304000C7010E94EC10F80180819181C80FD91F3F
:10305000D882C701DF91CF911F910F91FF90EF9020
:10306000DF90CF900895EF92FF920F931F93CF932D
:10307000DF9300D000D000D0CDB7DEB78C010E9426
:103080002811C8010E94E01642E050E0B801CE01CC
:1030900001967C010E94FB17E016F10621F0B701B2
:1030A000C8010E94CB0FC7010E941A11F801848148
:1030B0009581029788F467EC71E0C7010E94311195
:1030C000B801C7010E947010BC01C8010E94031121
:1030D000C7010E941A11EACFC80126960FB6F894CC
:1030E000DEBF0FBECDBFDF91CF911F910F91FF903B
:1030F000EF90089581E08093CC010895682F85E7D3
:1031000095E00C947E281F93CF93DF93CDB7DEB765
:1031100027970FB6F894DEBF0FBECDBF8091020196
:103120000E947E18809103010E947E188091040104
:103130000E947E18809105010E947E1880910601F0
:103140000E947E18809107010E947E1880910801DC
:103150000E947E18809109010E947E1880910A01C8
:103160000E947E1880910501882351F00E94131659
:103170000E944516852F162F583110F46C3398F0A5
:1031800080E00E947E1880E00E947E1885E795E02E
:1031900027960FB6F894DEBF0FBECDBFDF91CF915B
:1031A0001F910C9400290E947E18812FEDCF60E0C2
:1031B00087E00E946A208AE798E190932E0180932D
:1031C0002D01EAE6F0E080818F7C80628083EE9AB8
:1031D0000895CF92DF92FF920F931F93CF93DF93C7
:1031E000813059F030F0823059F4C4E193E028E0A6
:1031F00007C0C3E092E022E003C0C4E192E025E012
:103200001092D603D1E180E4F82E8091D6038C177A
:1032100008F047C0A22FB0E0223019F4933019F41F
:103220000BC0253019F4953091F406C0263011F00A
:10323000283069F4963059F4DA9FF001DB9FF00DE5
:103240001124EE54FD4FE90FF11DF1869F5F092F08
:1032500010E0482F50E0FB01C480D5804C155D057F
:1032600060F4C080D180C114D10429F0F601E40FCC
:10327000F51F308103C030E001C030E2DA9FF00179
:10328000DB9FF00D1124EE54FD4FE00FF11F31874D
:103290009F5F983011F42F5F91E08F5F8093D6038A
:1032A000B4CFDF91CF911F910F91FF90DF90CF901E
:1032B000089580910801813029F081E09091030107
:1032C000913009F080E008958F929F92AF92BF9263
:1032D000FF920F931F93CF93DF93CDB7DEB768971D
:1032E0000FB6F894DEBF0FBECDBF8C01062E000CCA
:1032F000770B68527109072E000C880B990B0E94FE
:10330000F32C4B015C01F0900401F11005C066E65E
:1033100076E686EE9FE304C060E070E080E89FE31D
:10332000A50194010E94522D9B01AC01F11005C032
:1033300060E070E080E092E403C060E070E0CB0108
:103340000E949B2E20E030E0A9010E94AF2F87FD54
:1033500024C0F11005C066E676E686EE9FE304C061
:1033600060E070E080E89FE3A50194010E94522D87
:103370009B01AC01F11005C060E070E080E092E4D8
:1033800003C060E070E0CB010E949B2E20E030E0A3
:1033900040E05FE30E949B2E23C0F11005C066E66B
:1033A00076E686EE9FE304C060E070E080E89FE38D
:1033B000A50194010E94522D9B01AC01F11005C0A2
:1033C00060E070E080E092E403C060E070E0CB0178
:1033D0000E949B2E20E030E040E05FE30E949A2EA6
:1033E0000E94792F862F1C8A1B8A1E8A1D8A188E9E
:1033F0001F8A4AE0BE016F5F7F4F082E000C990BB9
:103400000E94812ABE016F5F7F4FCE0143960E94CA
:10341000EC106BE971E0C8010E943111BE016D5ED4
:103420007F4FC8010E940311CE0143960E941A11DA
:10343000C80168960FB6F894DEBF0FBECDBFDF910E
:10344000CF911F910F91FF90BF90AF909F908F9061
:1034500008956BE971E00C943111CF92DF92EF92F5
:10346000FF920F931F93CF93DF9300D000D000D033
:10347000CDB7DEB78C01C42E0E942811C8010E946E
:10348000E016D12CA601B801CE0101967C010E9464
:10349000FB17E016F10621F0B701C8010E94CB0F1F
:1034A000C7010E941A11F801848195818C159D0530
:1034B00088F465EC71E0C7010E943111B801C701C1
:1034C0000E947010BC01C8010E940311C7010E9434
:1034D0001A11E9CFC80126960FB6F894DEBF0FBEC9
:1034E000CDBFDF91CF911F910F91FF90EF90DF90B3
:1034F000CF900895EF92FF920F931F93CF93DF9396
:1035000000D000D000D0CDB7DEB77C018E010F5FB8
:103510001F4FC8010E9428110E151F0521F0B80188
:10352000C7010E94CB0FC8010E941A1126960FB640
:10353000F894DEBF0FBECDBFDF91CF911F910F91E9
:10354000FF90EF900895AF92BF92CF92DF92EF92EB
:10355000FF920F931F93CF93DF93CDB7DEB72C97D6
:103560000FB6F894DEBF0FBECDBF8C01C42E0E94F3
:103570002811C8010E94E016D12CA601B801CE0185
:1035800001967C010E94FB17E016F10621F0B701BD
:10359000C8010E94CB0FC7010E941A11F801848153
:1035A00095818C159D0558F580FF0DC0B801CE01A1
:1035B00007960E942811CE0107960E944017A12C61
:1035C000BB24B3940CC065EC71E0C7010E943111BB
:1035D000B801C7010E947010AA24A394B12CBC01A9
:1035E000C8010E940311AA2019F0C7010E941A11F4
:1035F000BB20A1F2CE0107960E941A11CFCFC801BD
:103600002C960FB6F894DEBF0FBECDBFDF91CF91E1
:103610001F910F91FF90EF90DF90CF90BF90AF90F0
:1036200008951F93CF93DF9300D000D000D0CDB783
:10363000DEB780910901823008F042C082E08093B9
:10364000CB016CE573E08FE095E00E94A31066E586
:1036500073E081E295E00E94A31060E573E08BE1E6
:1036600095E00E94A31063E473E085E195E00E9479
:10367000A3108EE08093CA011092D60316E08091C9
:10368000D603843008F05DC060E473E0CE0101969B
:103690000E941F118091D603189FC0011124BE0102
:1036A0006F5F7F4F835A9A4F0E940311CE0101969C
:1036B0000E941A118091D6038F5F8093D603DFCFCB
:1036C00083E08093CB0166E773E08FE095E00E9492
:1036D000A31062E773E081E295E00E94A3106EE61A
:1036E00073E08BE195E00E94A31063E673E085E14F
:1036F00095E00E94A3108CE08093CA011092D6033B
:1037000016E08091D6038430E0F46FE573E0CE01DB
:1037100001960E941F118091D603189FC0011124A9
:10372000BE016F5F7F4F835A9A4F0E940311CE01F3
:1037300001960E941A118091D6038F5F8093D60361
:10374000E0CF26960FB6F894DEBF0FBECDBFDF9157
:10375000CF911F910895CF92DF92FF920F931F9305
:10376000CF93DF9301E098E6F92E1AE085E795E024
:103770000E94CC28181619060CF0B4C085E795E015
:103780000E94A1289091E006E92FF0E0E052FA4F64
:1037900080839F5F9093E0068A3041F78091E00537
:1037A0008C3411F40E9483188091E005833509F070
:1037B00096C08091E105809302018091E20580939B
:1037C000030181E09091E305911101C080E08093B5
:1037D00004018091E40591E0811101C090E0909393
:1037E00005019091E5059093060191E02091E60591
:1037F000211101C090E0909307019091E70590930B
:1038000008019091E8059093090191E02091E90564
:10381000211101C090E090930A01882309F44BC064
:10382000D091EB05C091EA050E94131600937D0428
:10383000F0929F0410927E041092A00460E081EF49
:1038400094E00E94BC0B60E081EF94E00E94BC0B0E
:103850008D2F612F0E94602E682F660F860F880FB4
:10386000682F6D0F81EF94E00E94BC0B2C2F2F7BF3
:10387000822F612F0E94602E682F660F680F660FDF
:10388000620F81EF94E00E94BC0B65E081EF94E051
:103890000E94BC0B60E181EF94E00E94BC0B61E1EF
:1038A00081EF94E00E94BC0B61E181EF94E00E9403
:1038B000BC0B0E946C150E94831882E0C82E81E028
:1038C000D82EC0E2D0E0F60161916F01CE010E94D6
:1038D0001B2E2196CB32D105B1F70E94111B1092FD
:1038E000E00644CFDF91CF911F910F91FF90DF90C1
:1038F000CF9008958F929F92AF92BF92EF92FF92D6
:103900000F931F93CF93DF93CDB7DEB7A7970FB673
:10391000F894DEBF0FBECDBF7C01109109011111DB
:1039200014C06FE373E0CE0101960E941F116BE992
:1039300071E0C7010E943111BE016F5F7F4FC70167
:103940000E940311CE01019682C06A3108F46CC056
:1039500070E080E090E00E94F32C4B015C0111309C
:1039600029F060EE71EA8CED90E404C060E070E054
:1039700080E89FE3A50194010E94522D20E030E0F1
:10398000A9010E94AF2F87FD16C0113029F060EE0B
:1039900071EA8CED90E404C060E070E080E89FE3A1
:1039A000A50194010E94522D20E030E040E05FE349
:1039B0000E949B2E15C0113029F060EE71EA8CED4B
:1039C00090E404C060E070E080E89FE3A50194010A
:1039D0000E94522D20E030E040E05FE30E949A2EEA
:1039E0000E94792F0E94F32C123029F020E030E061
:1039F00040E85FE304C020E030E048EC52E41BA262
:103A00001AA21DA21CA21FA21EA20E94072F8E0195
:103A10000F5F1F4F22E044E00E94512ABC01CE01FB
:103A200082960E94EC1006C06FE075E0CE0182968F
:103A30000E9428116BE971E0C7010E943111BE019B
:103A40006E5D7F4FC7010E940311CE0182960E94D6
:103A50001A11C701A7960FB6F894DEBF0FBECDBFEF
:103A6000DF91CF911F910F91FF90EF90BF90AF909A
:103A70009F908F9008953FB7F8948091E6069091BB
:103A8000E706A091E806B091E90626B5A89B05C017
:103A90002F3F19F00196A11DB11D3FBFBA2FA92FCD
:103AA000982F8827820F911DA11DB11DBC01CD014A
:103AB00042E0660F771F881F991F4A95D1F7089536
:103AC0004F925F926F928F929F92AF92BF92CF92DE
:103AD000DF92FF920F931F93CF93DF9300D000D01C
:103AE000CDB7DEB76093FE047093FF0480930005AA
:103AF00090930105409302051092FD04F901A3E0A3
:103B0000B5E080E090E050E0841795073CF4883001
:103B1000910521F021912D930196F6CFC12CD12C46
:103B200040908C0150908D0160908E014E0124E0F8
:103B3000820E911C49825A826B82CE0101965C01F1
:103B4000F82E0B2DF50111915F01812F0E94641752
:103B5000982F987083FD02C01F5F05C0A814B90498
:103B600089F710E092E0FFEFCF1ADF0A923029F4D4
:103B700022E3C216D104F1F66BC082E3C816D10469
:103B800009F466C04091020563E075E085E0810FAD
:103B90000E94A91780910B05813029F480910205BC
:103BA0008064809302056091020584E0810F0E9489
:103BB000D9174091FE045091FF0460910005709167
:103BC00001058091FD048130B1F44C835B83AB012E
:103BD00066277727942F9C71842F8370E8E09E9F3F
:103BE000800D112488608A8365E0569547956A9513
:103BF000E1F749830DC0CA0123E0969587952A9580
:103C0000E1F789834295440F407E4A831C821B82E0
:103C100044E06F2D702F812F0E94A917115048E0AA
:103C200068E0812F0E948117C12CD12CFFEFCF1AA1
:103C3000DF0A812F0E94641783FF05C022E3C216AA
:103C4000D104A1F707C082E3C816D10429F402C049
:103C500086E003C087E001C080E00F900F900F90D6
:103C60000F90DF91CF911F910F91FF90DF90CF9038
:103C7000BF90AF909F908F906F905F904F900895FE
:103C8000CF93C82F482F60EE8FE00E9481178FE0FE
:103C90000E946417982F907E81E09C1301C080E001
:103CA000CF910895CF92DF92EF92FF92CF93DF935F
:103CB00000D000D0CDB7DEB76A01EE24FF242C83FC
:103CC0003B83613089F42C2D2C719C2D937038E04E
:103CD000239F900D112498609A83A60125E05695A4
:103CE00047952A95E1F70BC09C2D9295990F907EF0
:103CF0009A83A60193E0569547959A95E1F74983F3
:103D000044E0BE016F5F7F4F0E94A9170F900F9094
:103D10000F900F90DF91CF91FF90EF90DF90CF90B9
:103D20000895CF92DF92EF92FF92CF93C82F6A014E
:103D30007B0180E80E94401E811134C0C230C9F06E
:103D400048F4CC2389F0C13021F5A701960160E049
:103D500084E01DC0C430B9F088F0C530D1F4A701AB
:103D6000960160E088E113C0A701960160E080E061
:103D70000EC0A701960160E088E009C0A701960186
:103D800060E080E104C0A701960160E084E10E9448
:103D9000521E80910E05CF91FF90EF90DF90CF9053
:103DA0000C94401ECF91FF90EF90DF90CF9008953C
:103DB0000F931F93CF93DF93CDB7DEB729970FB63D
:103DC000F894DEBF0FBECDBF8C01862FF8011182A3
:103DD000108213821282158214824AE0BE016F5F44
:103DE0007F4F90E00E948C2ABE016F5F7F4FC80119
:103DF0000E94EC1029960FB6F894DEBF0FBECDBF1F
:103E0000DF91CF911F910F9108950F931F93CF933F
:103E1000DF93CDB7DEB761970FB6F894DEBF0FBE64
:103E2000CDBF8C01CB01F801118210821382128266
:103E3000158214824AE0BE016F5F7F4F0E948C2A78
:103E4000BE016F5F7F4FC8010E94EC1061960FB6F4
:103E5000F894DEBF0FBECDBFDF91CF911F910F91C0
:103E600008952091E80022FFFCCF67E00E943C0EFD
:103E70008BEF8093E80087E090E00895362F90E084
:103E8000FC01EC52FC4F4491FC01EB54FC4F24919B
:103E9000FC01EA56FC4F8491882309F452C0442364
:103EA000E1F150E0FA013197EF30F105B0F5EA5A4F
:103EB000FF4F0C94942E909180009F7707C09091B3
:103EC00080009F7D03C090918000977F9093800039
:103ED00024C094B59F7702C094B59F7D94BD1DC04A
:103EE000909190009F7707C0909190009F7D03C0B4
:103EF00090919000977F909390000FC09091C00098
:103F00009F7703C09091C0009F7D9093C00005C033
:103F10009091C200977F9093C200E82FF0E0EE0FDF
:103F2000FF1FE857FC4FA591B4919FB7F89431114A
:103F300004C08C912095282302C0EC912E2B2C9349
:103F40009FBF0895FF920F931F93CF93DF93182F76
:103F5000F62EC72FD42F60E080910D050E943E1FE2
:103F600083E00E945D0E812F0E945D0E0F2D1C2F9D
:103F7000C0E0CD1751F0C83041F080E00E945D0EE6
:103F8000F80181938F01CF5FF4CF61E080910D053F
:103F9000DF91CF911F910F91FF900C943E1F0F93D3
:103FA0001F93CF93DF9300D000D0CDB7DEB7182F8B
:103FB0001092FD041092FE041092FF04109200056E
:103FC0001092010544E0BE016F5F7F4F0E94A21F67
:103FD0002A813981822F90E065E0959587956A95D1
:103FE000E1F748E0349F800D911D1124092E000C4B
:103FF000AA0BBB0B8093FE049093FF04A0930005D3
:10400000B093010523FF29C032E0880F991FAA1F32
:10401000BB1F3A95D1F72370820F911DA11DB11DD1
:10402000BA2FA92F982F88272B81820F911DA11DB0
:10403000B11DBA2FA92F982F88272C81820F911D8F
:10404000A11DB11D8093FE049093FF04A093000571
:10405000B093010581E08093FD048FEF810F0E94F2
:104060006417082F84E0810F0E94641703FF04C0C7
:1040700091E090930B0502C010920B05482F4F70F2
:104080004093020563E075E085E0810F0E94A21F66
:104090000F900F900F900F90DF91CF911F910F9184
:1040A00008951F93CF93DF93CDEFD4E060E088892C
:1040B0000E943E1F80EA0E945D0E80E00E945D0E1D
:1040C000182F61E088890E943E1F812FDF91CF91D8
:1040D0001F910895CF93DF9390E0FC01EB54FC4FC8
:1040E0002491FC01EA56FC4F8491882361F190E011
:1040F000880F991FFC01E658FC4FC591D491FC0133
:10410000E857FC4FA591B491611109C09FB7F8948D
:104110008881209582238883EC912E230BC0623006
:1041200061F49FB7F8948881322F30958323888378
:10413000EC912E2B2C939FBF06C08FB7F894E8818B
:104140002E2B28838FBFDF91CF9108958F929F925E
:10415000AF92BF92CF92DF92EF92FF926B017C0100
:104160000E943B1D4B015C01C114D104E104F10428
:10417000F1F00E943B1DDC01CB0188199909AA09C5
:10418000BB09883E9340A105B10570F321E0C21A36
:10419000D108E108F10888EE880E83E0981EA11C82
:1041A000B11CC114D104E104F10419F7DDCFFF9073
:1041B000EF90DF90CF90BF90AF909F908F90089539
:1041C0001F920F920FB60F9211242F933F938F934C
:1041D0009F93AF93BF938091E2069091E306A091E5
:1041E000E406B091E5063091E10623E0230F2D3778
:1041F00020F40196A11DB11D05C026E8230F0296EB
:10420000A11DB11D2093E1068093E2069093E30681
:10421000A093E406B093E5068091E6069091E70648
:10422000A091E806B091E9060196A11DB11D809309
:10423000E6069093E706A093E806B093E906BF91DF
:10424000AF919F918F913F912F910F900FBE0F9043
:104250001F901895789484B5826084BD84B5816080
:1042600084BD85B5826085BD85B5816085BD809141
:104270006E00816080936E001092810080918100B9
:1042800082608093810080918100816080938100B1
:104290008091800081608093800080919100826095
:1042A0008093910080919100816080939100809132
:1042B00090008160809390008091C1008460809321
:1042C000C1008091C10082608093C1008091C100D3
:1042D00081608093C1008091C30081608093C3009E
:1042E0008091C00082608093C0008091C200816094
:1042F0008093C20080917A00846080937A008091DC
:104300007A00826080937A0080917A008160809345
:104310007A0080917A00806880937A001092E3019D
:104320001092E2011092E1018091D70081608093A8
:10433000D70080EA8093D80089B5806189BD89B5AE
:10434000826089BD09B400FEFDCF61E070E080E0CD
:1043500090E00E94A6208091D8008F7C806180939D
:10436000D8008091E000807F8093E0008091E100A0
:104370008E7E8093E1008DE08093E200559A209A32
:104380008FEF9FEF9093AE048093AD049093D4058C
:104390008093D3050E94E11580E290E00E94132EE5
:1043A000873009F456C081E080936C021092E501D9
:1043B0001092E40124E630E03093E7012093E60117
:1043C0001092E9011092E8012CE035E03093EB0106
:1043D0002093EA0193E09093EC019CE09093ED012F
:1043E0008093EE011092EF011092F0011092F10112
:1043F0001092F2011092F3011092F401D091030196
:104400008DEF8D0F8230A0F582E080936C021092C8
:10441000F6011092F5018AEF90E09093F8018093F5
:10442000F7011092FA011092F90188EE93E090934F
:10443000FC018093FB0188E08093FD011092FE0156
:104440001092FF0184E08093000284E280930102D5
:1044500034C002E011E0C0E2D0E0CE010E94132E91
:10446000F80181938F012196CB32D105B1F79BCF13
:10447000D13059F582E080936C021092F6011092CF
:10448000F5018AEF90E09093F8018093F701109284
:10449000FA011092F90188EE93E09093FC01809369
:1044A000FB0188E08093FD011092FE011092FF0154
:1044B00089E280930002109201021092020210928F
:1044C00003021092040210920502F0906C02DD24A7
:1044D000D394DF0CD0926C02C1E1CF9DF001112486
:1044E000EC51FE4F1182108202E310E0138302832D
:1044F000158214828FEE93E09783868348E0E42E42
:10450000E08682E3818782878387848783E085874B
:1045100016861786108A0E9459198823E9F0F394A9
:10452000F394F0926C02CD9DF0011124EC51FE4FFA
:1045300011821082138302831582148282EF93E02A
:1045400097838683E0868FEF81878287838784873E
:10455000858780E686871DC0D230E9F0F394F39416
:10456000F0926C02CD9DF0011124EC51FE4F1182AE
:104570001082138302831582148282EF93E0978363
:104580008683E0868FEF818782878387848785870C
:1045900016861786108A10916C0201E0010F0093B5
:1045A0006C02C1E1C19FF0011124EC51FE4F118258
:1045B000108284E690E093838283158214828CE0DB
:1045C00095E09783868383E0808781E0818782E01E
:1045D000828713861486158616861786108A0E948F
:1045E00059198823F9F01E5F10936C02C09FF001E7
:1045F0001124EC51FE4F1182108282E390E09383EC
:1046000082831582148282EF93E09783868388E009
:104610008087118612868FEF83878487858780EF56
:1046200086871FC0D230F9F01E5F10936C02C09FC6
:10463000F0011124EC51FE4F1182108282E390E0D0
:10464000938382831582148282EF93E0978386831B
:1046500088E080878FEF818782878387848785873B
:1046600016861786108AE0916C0281E18E9FD00138
:104670001124AC51BE4F11961C921E9222E330E0E1
:1046800013963C932E93129715961C921E92149794
:1046900021EF33E017963C932E93169728E0189657
:1046A0002C93189795EF19969C93199790E91A9661
:1046B0009C931A971B961C921B971C961C921C97F6
:1046C0001D961C921D971E961C921E971F961C925B
:1046D0001F9750961C9292E09E0F90936C02EF5F92
:1046E0008E9FF0011124EC51FE4F1182108244E69E
:1046F00050E053834283158214824CE055E0578387
:10470000468333E0308761E0618792E092871386C9
:104710001486158616861786108A6093B102109249
:104720006E0210926D021092700210926F0264EF8E
:1047300071E070937202609371025093740240931F
:1047400073023093750280937602909377021092F1
:1047500078028EEB8093790280937A0280937B02B9
:1047600080937C0280937D02D43001F59093B10256
:1047700010927F0210927E028AEF90E09093810265
:1047800080938002109283021092820288EE93E05E
:104790009093850280938402209386021092870270
:1047A00010928802D093890284E223C0D13059F557
:1047B0009093B10210927F0210927E0280E991E004
:1047C000909381028093800288EE93E0909383021D
:1047D00080938202909385028093840220938602C4
:1047E0008FE0809387021092880289E28093890289
:1047F00084E080938A0210928B0210928C021092B5
:104800008D0210928E02C091B102FF24F394FC0E2F
:10481000F092B10221E1D22EDC9EF0011124E35985
:10482000FD4F1182108282EC91E09383828308EE27
:1048300013E0158304838FEE93E09783868338E03B
:10484000E32EE08682E3818782878387848783E003
:1048500085871686178680E2808BD23009F44CC09B
:104860000E945919CE5F2F2D30E0882311F1D130ED
:1048700001F5C093B102D29EF001D39EF00D112438
:10488000E359FD4F1182108284EF91E0938382837C
:104890001583048382EF93E097838683E08682E129
:1048A0008187D2878FEF83878487858780EF86878C
:1048B00021C0C093B10281E1829FF001839FF00D7E
:1048C0001124E359FD4F1182108284EF91E093830C
:1048D000828388EE93E09583848382EF93E09783CD
:1048E000868388E080878FEF8187828783878487AC
:1048F000858716861786108A48EE53E05093B302D8
:104900004093B2021092B5021092B40224EF31E04B
:104910003093B7022093B60296E3C92E93E0D92EC6
:10492000D092B902C092B80298E09093BA0263E0C4
:104930006093BB0271E07093BC028AE08093BD0279
:104940007093BE028EEF8093BF021092C00210924D
:10495000C1021092C202D2E05093C4024093C3023B
:10496000E2E3F0E0F093C602E093C5023093C802A0
:104970002093C702E4E2EE2EE3E0FE2EF092CA029C
:10498000E092C9029093CB027093CC027093CD0257
:10499000D093CE021092CF021092D0021092D10288
:1049A0001092D2021092D3025093D5024093D402B7
:1049B000E4E6F0E0F093D702E093D6023093D90218
:1049C0002093D802E7E3F3E0F093DB02E093DA020E
:1049D0009093DC0286E08093DD0280E28093DE0229
:1049E0008093DF02A0E4A093E0028093E102A09311
:1049F000E2028093E3021092E4025093E6024093B5
:104A0000E50208EC10E01093E8020093E70230930F
:104A1000EA022093E902D092EC02C092EB0290935A
:104A2000ED026093EE027093EF02B5E0B093F002F6
:104A30006093F1026093F2021092F3021092F4027A
:104A40001092F5025093F7024093F602B1EECB2E8E
:104A5000D12CD092F902C092F8023093FB0220933D
:104A6000FA02F092FD02E092FC029093FE02609343
:104A7000FF0270930003D09301031092020310927F
:104A8000030310920403109205031092060350933F
:104A9000080340930703CAEFEC2EF12CF0920A03AF
:104AA000E092090330930C0320930B03F0930E0361
:104AB000E0930D0390930F03B0E1B0931003BBE2BA
:104AC000B093110380931203809313038093140314
:104AD000A093150380931603809317035093190333
:104AE00040931803B3E1EB2EFF24F394F0921B03E1
:104AF000E0921A0330931D0320931C03F0931F03CD
:104B0000E0931E0390932003B1E2B09321038093BE
:104B10002203CDE4CC2EC0922303B5E6DB2ED09247
:104B20002403C2E7C0932503B3E6B0932603A09302
:104B30002703B5E7B093280350932A034093290332
:104B4000BCE2EB2EFF24F394F0922C03E0922B03B3
:104B500030932E0320932D03F0933003E0932F0323
:104B600090933103B2E2B0933203C09333030F2E1C
:104B7000F9E7FF2EF02DF0923403809335038093F4
:104B8000360380933703809338038093390350931F
:104B90003B0340933A030F2EF5E4EF2EFF24F394EA
:104BA000F02DF0923D03E0923C0330933F032093BD
:104BB0003E03F0934103E0934003909342030F2E92
:104BC000F3E2FF2EF02DF092430380934403809391
:104BD0004503809346038093470380934803A09343
:104BE000490380934A0350934C0340934B030F2E89
:104BF000FEE5EF2EFF24F394F02DF0924E03E092A9
:104C00004D033093500320934F03F0935203E093EE
:104C10005103909353030F2EF4E2FF2EF02DF092E8
:104C200054038093550380935603C09257030F2E6D
:104C3000F1E6FF2EF02DF0925803C09359030F2E8A
:104C4000F9E6FF2EF02DF0925A030F2EFEE6FF2E0E
:104C5000F02DF0925B0350935D0340935C030F2EA5
:104C6000F7E7EF2EFF24F394F02DF0925F03E0922C
:104C70005E033093610320936003F0936303E0933A
:104C80006203909364030F2EF5E2FF2EF02DF09255
:104C90006503D0926603C093670380936803809393
:104CA000690380936A0380936B0380936C03CCE069
:104CB000C0937E0350936E0340936D0340E951E02F
:104CC0005093700340936F033093720320937103EA
:104CD000F0937403E09373039093750326E220939B
:104CE0007603809377038093780310927903109270
:104CF0007A0310927B0310927C0310927D03109232
:104D0000800310927F031092820310928103E8E8DF
:104D1000F3E1F0938403E093830326E237E03093DA
:104D20008603209385039093870360938803B09351
:104D3000890381E480938A03A0938B0310928C03F0
:104D400010928D0310928E0310928F031092910394
:104D5000109290031093930300939203F0939503A2
:104D6000E0939403309397032093960390939803D2
:104D700060939903B0939A0380939B0380939C0361
:104D800010929D0310929E0310929F031092A00315
:104D90001092A2031092A1035093A4034093A30383
:104DA00040E157E25093A6034093A5033093A80334
:104DB0002093A7039093A9036093AA03B093AB0336
:104DC0008093AC0380E68093AD031092AE03109203
:104DD000AF031092B0031092B1031092B30310927C
:104DE000B2031092B5031092B4031092B70310925D
:104DF000B6033093B9032093B8039093BA03D093CA
:104E0000BB037093BC031092BD031092BE031092BB
:104E1000BF031092C0031092C1031092C2030E94FC
:104E2000111B87EAC82E83E0D82E06EC13E090E42D
:104E3000E92EFFB6F8948091D703811126C0F601C0
:104E40008491F8012491E82FF0E0EE0FFF1FE6585F
:104E5000FC4FA591B4919C91822F892321F461E0AC
:104E600081E10E943E1F61E081E10E946A208CB5D1
:104E700080618CBD8CB580648CBD61E08FE00E9448
:104E80006A2061E080E10E946A208091D7038F5FF1
:104E90008093D703FFBE60E080910D050E943E1F06
:104EA00080EC0E945D0E61E080910D050E943E1F26
:104EB0006AE070E080E090E00E94A620E0920E059B
:104EC00080E80E94401E882349F00E94AB1B64E6E4
:104ED00070E080E090E00E94A620ABCF61E08AE223
:104EE0000E94D91761EB89E20E94D91765E088E238
:104EF0000E94D91720E030E0A90161E080E20E9421
:104F0000521E20E030E0A90161E084E20E94521EBE
:104F100020E030E0A90161E080E00E94521E20E024
:104F200030E0A90160E084E00E94521E20E030E001
:104F3000A90161E088E00E94521E20E030E0A90152
:104F400060E080E10E94521E20E030E0A90161E0B3
:104F500084E10E94521E20E030E0A90160E088E177
:104F60000E94521EC0E360E08C2F0E94D91760E0BF
:104F700080E18C0F0E94D91760E080E28C0F0E94C4
:104F8000D917CF5FCE3379F760E080E60E94D9175A
:104F900060E080E70E94D91763E08BE20E94D91796
:104FA00044E064E680E60E94811740E060E680E726
:104FB0000E94811780910E050E94401E811185CFAD
:104FC00046E050E062E971E081EA94E00E94870CDB
:104FD00042E050E069E971E081EA94E00E94870CC8
:104FE0000E94D71880E480930E050E94401E109204
:104FF000D80380E80E94401E81110CC020E030E000
:105000004FEF57E060E080E20E94521E80910E0553
:105010000E94401E80E80E94401E81110CC020E0CA
:1050200030E04FEF57E060E084E20E94521E809132
:105030000E050E94401E1092D603C091D603C530C3
:1050400058F440E050E063E274E08C2F0E94911E1F
:10505000CF5FC093D603F1CF81E08093D80340E0C7
:1050600050E063E274E080E00E94911E80910901AB
:105070008823B1F080910A01882341F082E0809377
:10508000D80340E050E06EE277E007C082E0809312
:10509000D80340E050E065EB73E081E00E94911E90
:1050A00080910501882331F00E94131681110EC0F2
:1050B000109205018091D80391E0980F9093D80346
:1050C00040E050E066E674E00E94911E10920E05EA
:1050D00080E00E94401E1092D5031092D40364EF2A
:1050E00071E080E090E00E94A620C0E0D0E00E9445
:1050F00025022097E1F30E940000F9CFCF93DF93C0
:105100001F92CDB7DEB76983DC01ED91FC91048875
:10511000F589E02D41E050E0BE016F5F7F4F0995BA
:105120000F90DF91CF9108950A970C947E28FC018F
:1051300083818F5F0E94610A90E008950A970C9422
:105140009728FC01DC01A25ABF4F8D919C911197C9
:1051500097FD05C02FEF3FEF2D933C93089583817A
:105160000C94720A0A970C94A128CF93DF93EC0158
:10517000C25ADF4F2881398137FF06C0FC01838185
:105180000E94720A9983888388819981DF91CF91E7
:1051900008950A970C94B528FC01E25AFF4F20812C
:1051A0003181FC01838137FD05C00E94AC0A90E08B
:1051B000019608950E94AC0A90E008950A970C9415
:1051C000CC28CF93DF93009769F0EC018B818F5F40
:1051D0000E94EE0B181619066CF081E090E09D8796
:1051E0008C8706C081E090E090930D0080930C00C6
:1051F00080E090E0DF91CF9108950A970C94E12828
:10520000FC0183818F5F0C9409120A970C9400298A
:105210008FE095E00E941A1185E195E00E941A1135
:105220008BE195E00E941A1181E295E00E941A112B
:1052300087E295E00E941A118DE295E00E941A1112
:1052400083E395E00E941A1189E395E00E941A1108
:105250008FE395E00E941A1185E495E00E941A11EF
:105260008BE495E00E941A1181E595E00E941A11E5
:1052700087E595E00E941A118FE695E00E941A11C9
:1052800089E695E00E941A1183E695E00E941A11C2
:105290008DE595E00C941A111092A4041092A304C9
:1052A00088EE93E0A0E0B0E08093A5049093A6047C
:1052B000A093A704B093A80420E431E03093A204A3
:1052C0002093A1042FEF3FEF3093AE042093AD0461
:1052D0001092F4041092F3048093F5049093F60472
:1052E000A093F704B093F80422E531E03093F20480
:1052F0002093F10422E02093790521E020937A05A0
:105300002DEC35E030937C0520937B0510927E05D3
:1053100010927D051092820510928105809383057D
:1053200090938405A0938505B093860584E691E06B
:1053300090937605809375058EE791E090938005B4
:1053400080937F058FEF8093D5058CE991E0909352
:10535000D7058093D6058FEB91E09093D905809384
:10536000D80580E88093CD0581E88093CE050E9422
:10537000490EFC0121818091790590E0820F911DF9
:105380000897C4F5A281B381109729F485E795E0C9
:10539000938382830EC018968D919C9119970097E4
:1053A00011F0DC01F8CF85E795E019969C938E9378
:1053B000189780818093770581818093780590810B
:1053C00080917A05890F808380E090917905891713
:1053D00088F4A0917B05B0917C05A80FB11D9C912C
:1053E000A181B0E0A15DBE4F9C9391819F5F9183AD
:1053F0008F5FEBCF8DE595E00E94291A83E695E05B
:105400000E94291A89E695E00E94291A8FE695E004
:105410000E94291A87E595E00E94291A81E595E006
:105420000E94291A8BE495E00E94291A85E495E0F0
:105430000E94291A8FE395E00E94291A89E395E0DA
:105440000E94291A83E395E00E94291A8DE295E0D3
:105450000E94291A87E295E00E94291A6BE971E0FF
:1054600081E295E00E9431116BE971E08BE195E0FA
:105470000E9431116BE971E085E195E00E943111E4
:105480006BE971E08FE095E00E9431118AE0809332
:105490000D0561E00E946A2061E080910D050C9489
:1054A0003E1FEF920F931F93CF93DF93E80147FDC9
:1054B00002C034E001C034E1042E000C550B57FF4C
:1054C00003C0519541955109E32E022F242FAE01BF
:1054D0000E94A62ACE01DF91CF911F910F91EF90EC
:1054E0000895FB01DC0105900D920020E1F708957D
:1054F000FC0105900020E9F7809590958E0F9F1F85
:105500000895BB274A3031F4992322F4BDE29095E7
:1055100081959F4F0C948D2ABB27FB015527AA2705
:10552000880F991FAA1FA41710F0A41B8395505130
:10553000B9F7A05DAA3308F0A95DA193009779F7A8
:10554000B111B1931192CB010C94E12CA9E0B0E020
:10555000ECEAFAE20C942F2E6A01122FB02E2BE304
:10556000201720F0FF24F394F00E02C02CE3F22E5B
:105570000F2D27E0AE014F5F5F4F0E94002CBC0152
:105580004981842F8970813031F0E1FC06C0E0FE52
:1055900006C090E205C09DE203C09BE201C090E01E
:1055A0005E2D507143FF3CC0911102C083E001C0E9
:1055B00084E0811718F4212F281B01C020E051112D
:1055C0000BC0F601822F30E2882319F0319381500D
:1055D000FBCFC20ED11C20E0992329F0D6019C9369
:1055E000F60131966F01C6010396E2FE0AC03EE461
:1055F000D6013C9341E411964C93119712963C933B
:1056000006C03EE6F601308341E641833283FC0169
:10561000322F40E2332309F442C041933150FACF94
:1056200042FF44C0911102C083E001C084E08117B1
:1056300018F4212F281B01C020E051110BC0F601E6
:10564000822F30E2882319F031938150FBCFC20EB4
:10565000D11C20E0992329F0D6019C93F6013196C4
:105660006F01C6010396E2FE0BC039E4D6013C93FC
:105670003EE411963C93119736E412963C9307C092
:1056800039E6F60130833EE6318336E63283FC01AB
:10569000322F40E2332319F041933150FBCFFC010C
:1056A000E20FF11D10828EEF9FEFA6C021E030E0E7
:1056B000911102C020E030E0161617061CF4FB0121
:1056C000319602C0E1E0F0E02E0F3F1FBB2021F039
:1056D000EB2DF0E0319602C0E0E0F0E02E0F3F1F2E
:1056E000E12FF0E02E173F071CF4121B212F01C001
:1056F00020E08E2D887159F4F601822F30E2882344
:1057000019F031938150FBCFC20ED11C20E09923B8
:1057100029F0D6019C93F60131966F0151110BC00F
:10572000F601822F90E3882319F091938150FBCFEB
:10573000C20ED11C20E00F2D060F9A81342F30713C
:1057400044FF03C0913309F40150101624F40930CA
:1057500018F008E001C001E0AB0177FF02C040E0B3
:1057600050E0FB01E41BF50BA1E0B0E0AC0FBD1F66
:10577000EA0FFB1F8EE2A82E4B01801A91080B2D19
:1057800010E01195019511094F3FBFEF5B0721F420
:10579000D601AC9211966D01641775072CF0841632
:1057A000950614F4818101C080E34150510931967E
:1057B000D60111967D014017510724F0D6018C9334
:1057C0006701E2CF6417750739F4963320F49533F7
:1057D00019F4311101C081E3F6018083F701822FB2
:1057E00090E2882319F091938150FBCFF701E20FEB
:1057F000F11D108280E090E02996ECE00C944B2E95
:10580000283008F027E03327DA01990F311D87FD92
:10581000916000966105710539F432602E5F3D9309
:1058200030E32A95E1F708959F3F30F08038710505
:10583000610509F03C5F3C5F3D93913008F0806862
:10584000911DDF93CF931F930F93FF92EF92192F28
:10585000987F9695E92F96959695E90FFF27EC5D31
:10586000FE4F99273327EE24FF24A701E701059077
:105870000894079428F4360FE71EF81E491F511D9F
:10588000660F771F881F991F0694A1F7059007944C
:1058900028F4E70EF81E491F561FC11D770F881FF9
:1058A000991F661F0694A1F70590079428F4F80E37
:1058B000491F561FC71FD11D880F991F661F771FCD
:1058C0000694A1F70590079420F4490F561FC71FAF
:1058D000D81F990F661F771F881F0694A9F7849118
:1058E0001095177041F0D695C79557954795F79441
:1058F000E7941A95C1F7EAECF0E0689415901591D9
:1059000035916591959105907FE27395E118F10AC3
:10591000430B560BC90BD009C0F7E10CF11E431F16
:10592000561FC91FD01D7EF4703311F48A95E6CF3F
:10593000E894015030F0080F0AF40027021708F429
:10594000202F2395022F7A3328F079E37D932A952F
:10595000E9F710C07D932A9589F606949795679587
:10596000379517951794E118F10A430B560BC90B9D
:10597000D00998F023957E9173957A3308F070E3FF
:105980007C932013B8F77E9170617D9330F08395FE
:1059900071E37D9370E32A95E1F71124EF90FF9076
:1059A0000F911F91CF91DF91992787FD90950895D1
:1059B00091110C94BF2D803219F089508550C8F791
:1059C0000895DC01FC01672F71917723E1F732978D
:1059D00004C07C916D9370836291AE17BF07C8F3CA
:1059E0000895E89409C097FB3EF4909580957095D2
:1059F00061957F4F8F4F9F4F9923A9F0F92F96E91B
:105A0000BB279395F695879577956795B795F1118F
:105A1000F8CFFAF4BB0F11F460FF1BC06F5F7F4F2C
:105A20008F4F9F4F16C0882311F096E911C077233E
:105A300021F09EE8872F762F05C0662371F096E847
:105A4000862F70E060E02AF09A95660F771F881F16
:105A5000DAF7880F9695879597F90895990F0008BA
:105A6000550FAA0BE0E8FEEF16161706E807F90730
:105A7000C0F012161306E407F50798F0621B730BCB
:105A8000840B950B39F40A2661F0232B242B252B4C
:105A900021F408950A2609F4A140A6958FEF811DEF
:105AA000811D08950E94652D0C94D92D0E94CB2D47
:105AB00038F00E94D22D20F0952311F00C94C22DC5
:105AC0000C94C82D11240C940D2E0E94EA2D70F315
:105AD000959FC1F3950F50E0551F629FF001729F93
