:100000000C9475030C94F7170C94D0170C94A91743
:100010000C9482170C949D030C949D030C945B1715
:100020000C949D030C949D030C941E180C94901832
:100030000C949D030C949D030C949D030C949D03C0
:100040000C949D030C949D030C949D030C949D03B0
:100050000C949D030C949D030C949D030C946F1FB2
:100060000C949D030C949D030C949D030C949D0390
:100070000C949D030C949D030C949D030C949D0380
:100080000C949D030C949D030C949D030C949D0370
:100090000C94CD1C0C949D030C949D030C949D0317
:1000A0000C949D030C949D030C949D03C11EC41ECF
:1000B000B31EB71EBB1EE51EE51EE51EC81ECC1EE8
:1000C000D01ED61EDA1EE51EE01E54504D53206988
:1000D0006E746572616374696F6E206D6F64653AEA
:1000E0002000446973706C61792070726573737558
:1000F00072653A20006B5061005073690042617272
:100100007300507265737375726520756E697473D0
:100110003A20003234680031326800486964650072
:10012000436C6F636B206D6F64653A200054696D9A
:1001300065207A6F6E653A200054696D6520736F93
:10014000757263653A2000556E6974733A200041F8
:10015000667465726D61726B65742077697468206E
:1001600043414E2028657874656E646564206F7520
:1001700074707574290041667465726D61726B6587
:100180007420776974682043414E202873696D702C
:100190006C65206F7574707574290053746F636B90
:1001A0000041667465726D61726B6574004855201C
:1001B000747970653A2000436F6E666967207665D2
:1001C0007273696F6E3A20000A0A43757272656E27
:1001D000742073657474696E67730A005365747470
:1001E000696E67732073617665642C20676574742B
:1001F000696E67206261636B20746F206F70657237
:100200006174696F6E206D6F646500536176696E0D
:10021000672073657474696E67732E2E2E0A0A0048
:100220005365742054504D5320696E746572616338
:1002300074696F6E206D6F64650A31202D205265E0
:1002400071756573740A32202D2042726F61646388
:1002500061737400507265737375726520756E6991
:1002600074730A31202D205073690A32202D206BBF
:1002700050610A33202D20426172730A0044697371
:10028000706C617920746972657320707265737324
:100290007572650A31202D205965730A32202D2090
:1002A0004E6F0A0053656C656374207370656564F6
:1002B0002F74656D706572617475726520756E69F5
:1002C00074730A31202D204D65747269630A3220DF
:1002D0002D20416D65726963616E0A00536574205B
:1002E000636C6F636B206D6F64650A31202D20484D
:1002F0006964650A32202D203132680A33202D20AE
:1003000032346800456E7465722074696D657A6F69
:100310006E6520282B2D20686F757273290A0045A1
:100320006E746572206C6F63616C2074696D6520FA
:10033000696E2032346820666F726D6174202848BF
:10034000483A4D4D29206F7220456E7465722074B5
:100350006F206B6565702061732069730053656C55
:100360006563742074696D6520736F757263650AC7
:1003700031202D2039313120417373697374204746
:1003800050532028323031302B290A32202D20635F
:100390006F6E74726F6C6C6572207265616C207424
:1003A000696D6520636C6F636B0A0053656C6563F0
:1003B0007420485520747970650A31202D204166DB
:1003C0007465726D61726B65740A32202D205374EE
:1003D0006F636B0A33202D2041667465726D617204
:1003E0006B657420776974682043414E20287369D7
:1003F0006D706C6520696E666F290A34202D20416E
:10040000667465726D61726B6574207769746820BB
:1004100043414E2028657874656E64656420696E7A
:10042000666F290A00464F5244204644494D2043F6
:100430006F6E74726F6C6C657220636F6E66696745
:1004400075726174696F6E0A0043414E206661697E
:100450006C0043414E206F6B2100202020002020A3
:10046000202020202020543A0020533A0020523AE5
:10047000004C4F570020200020202020202020204A
:100480002020543A00205350443A002052504D3A14
:10049000004C4F00507265737320616E79206B655C
:1004A0007920746F20656E74657220736574746949
:1004B0006E6773206D656E752E2E2E20000A3E200D
:1004C000003A003A0043757272656E7420525443CC
:1004D0002074696D653A20002000200020453A0014
:1004E00020543A0020453A0020453A0000254D545A
:1004F0005241434B00003A0000000000002D2D0047
:10050000080B0002020201000904000001020200BF
:100510000005240010010524010101042402060540
:1005200024060001070581031000400904010002B0
:100530000A00000007050202400000070583024090
:1005400000000403090412010002EF0201404F1BE6
:100550000392000101020301537061726B46756ED4
:1005600000537061726B46756E2050726F204D693A
:1005700063726F0000000000240027002A002D0095
:10058000300000000000250028002B002E00310064
:100590000404040404030405020202020403020228
:1005A0000202060606060606040402020204040409
:1005B0000802011040804010204080408008020462
:1005C00001804020100201108010204040200000D7
:1005D000000200090F0000030401000C00000000ED
:1005E00000000000000000000000000000407A1041
:1005F000F35A00A0724E18090010A5D4E80000E8D4
:100600007648170000E40B54020000CA9A3B000031
:1006100000E1F505000080969800000040420F00C0
:100620000000A08601000000102700000000E80381
:10063000000000006400000000000A00000000004C
:100640000100000000002C76D888DC674F0823DF0B
:10065000C1DFAE59E1B1B796E5E3E453C63AE651DE
:10066000997696E8E6C28426EB898C9B62ED407C05
:100670006FFCEFBC9C9F40F2BAA56FA5F490055AA1
:100680002AF75C936B6CF9676DC11BFCE0E40D47C6
:10069000FEF520E6B500D0ED902E030094357705E9
:1006A0000080841E080000204E0A000000C80C33A1
:1006B0003333330F986E12831141EF8D2114893B30
:1006C000E65516CFFEE6DB18D1844B381BF77C1DB0
:1006D000901DA4BBE424203284725E228100C9F103
:1006E00024ECA1E53D27722BF52B11241FBECFEF83
:1006F000DAE0DEBFCDBF11E0A0E0B1E0EAEBF8E662
:1007000002C005900D92A839B107D9F725E0A8E9F4
:10071000B1E001C01D92A235B207E1F713E0C4E7D2
:10072000D3E004C02197FE010E946D2CC337D1078E
:10073000C9F70E94EC1F0C9450340C94000081E027
:100740008093A8030895CF92DF92FF920F931F9397
:10075000CF93DF93813059F030F0823059F4C4E107
:1007600093E028E007C0C3E092E022E003C0C4E1C8
:1007700092E025E010928F03D1E180E4F82E809181
:100780008F038C1708F047C0A22FB0E0223019F475
:10079000933019F40BC0253019F4953091F406C04C
:1007A000263011F0283069F4963059F4DA9FF001C0
:1007B000DB9FF00D1124E759FD4FE90FF11DF18684
:1007C0009F5F092F10E0482F50E0FB01C480D580C7
:1007D0004C155D0560F4C080D180C114D10429F0AE
:1007E000F601E40FF51F308103C030E001C030E2B4
:1007F000DA9FF001DB9FF00D1124E759FD4FE00F68
:10080000F11F31879F5F983011F42F5F91E08F5F68
:1008100080938F03B4CFDF91CF911F910F91FF9001
:10082000DF90CF900895EF92FF920F931F93CF9395
:10083000DF93CDB7DEB7A7970FB6F894DEBF0FBE34
:10084000CDBF7C016A31B0F170E080E090E00E94A1
:10085000073310910201112329F020EE31EA4CED0B
:1008600050E404C020E030E040E85FE30E944233FF
:100870000E94882D113029F020E030E040E85FE34D
:1008800004C020E030E048EC52E41BA21AA21DA2F2
:100890001CA21FA21EA20E94E02C8E010F5F1F4F00
:1008A00022E044E00E94EA2FBC01CE0182960E9421
:1008B0008E1606C067E874E0CE0182960E94F71695
:1008C00064E971E0C7010E940017BE016E5D7F4FB1
:1008D000C7010E94A516CE0182960E94BC16C701D0
:1008E000A7960FB6F894DEBF0FBECDBFDF91CF91B4
:1008F0001F910F91FF90EF900895FF920F931F9318
:10090000CF93DF93CDB7DEB768970FB6F894DEBF0D
:100910000FBECDBF8C01062E000C770B68527109FB
:10092000072E000C880B990B0E940733F0900401EE
:10093000F11005C026E636E646EE5FE304C020E08F
:1009400030E040E85FE30E944233F11005C020E050
:1009500030E040E052E403C020E030E0A9010E9412
:10096000742C0E94882D1C8A1B8A1E8A1D8A188E50
:100970001F8A0E94522D862F4AE0BE016F5F7F4F73
:10098000082E000C990B0E944130BE016F5F7F4F13
:10099000CE0143960E948E1664E971E0C8010E9460
:1009A0000017BE016D5E7F4FC8010E94A516CE01E3
:1009B00043960E94BC16C80168960FB6F894DEBF35
:1009C0000FBECDBFDF91CF911F910F91FF90089582
:1009D000AF92BF92CF92DF92EF92FF920F931F934D
:1009E000CF93DF93CDB7DEB72C970FB6F894DEBF69
:1009F0000FBECDBF8C01C42E0E94F716C8010E9405
:100A00000915D12C960140E050E0B801CE010196C5
:100A10007C010E9415170E151F0521F0B701C801B2
:100A20000E94B515C7010E94BC16F801848195810A
:100A30008C159D0548F580FF0DC0B801CE010796C5
:100A40000E94F716CE0107960E94E711A12CBB2445
:100A5000B3940CC06DE871E0C7010E940017B801A3
:100A6000C7010E943216AA24A394B12CBC01C8016C
:100A70000E94A516AA2019F0C7010E94BC16BB202F
:100A8000A1F2CE010796CFCFC8012C960FB6F894ED
:100A9000DEBF0FBECDBFDF91CF911F910F91FF90B1
:100AA000EF90DF90CF90BF90AF900895CF92DF92FC
:100AB000EF92FF920F931F93CF93DF9300D000D05C
:100AC00000D0CDB7DEB78C01C42E0E94F716C80146
:100AD0000E940915D12C960140E050E0B801CE01EA
:100AE00001967C010E9415170E151F0521F0B70114
:100AF000C8010E94B515C7010E94BC16F801848187
:100B000095818C159D0570F46DE871E0C7010E9418
:100B10000017B801C7010E943216BC01C8010E942B
:100B2000A516E9CFC80126960FB6F894DEBF0FBE12
:100B3000CDBFDF91CF911F910F91FF90EF90DF908C
:100B4000CF900895EF92FF920F931F93CF93DF936F
:100B500000D000D000D0CDB7DEB77C018E010F5F92
:100B60001F4FC8010E94F716E016F10621F0B801E8
:100B7000C7010E94B515C8010E94BC1626960FB683
:100B8000F894DEBF0FBECDBFDF91CF911F910F91C3
:100B9000FF90EF90089560E087E00E94F91E8FE9D2
:100BA00093E09093220180932101EAE6F0E08081B6
:100BB0008F7C80628083EE9A089564E971E00C94E2
:100BC0000017CF93DF93CDB7DEB76F970FB6F894CA
:100BD000DEBF0FBECDBF0E9467110E94D2105C83A2
:100BE0006D837E8385EC94E00E9450104AE06E8114
:100BF000CE014A960E94C1164AE06D81CE0144960C
:100C00000E94C1164AE06C81CE0108960E94C1166E
:100C1000BE01685F7F4FCE010E960E94F71663EC0F
:100C200074E0CE010E960E940016BE016C5E7F4FEE
:100C30000E94321661EC74E00E940016BE01665EEE
:100C40007F4F0E9432160E941410CE010E960E9411
:100C5000BC16CE0108960E94BC16CE0144960E9496
:100C6000BC16CE014A960E94BC166F960FB6F89439
:100C7000DEBF0FBECDBFDF91CF91089580910501FA
:100C8000813029F081E090910801913009F080E0F5
:100C900008958F929F92AF92BF92CF92DF92EF9280
:100CA000FF920F931F93CF93DF93CDB7DEB7C55459
:100CB000D1090FB6F894DEBF0FBECDBF64E971E075
:100CC000CE0182960E9400178091A803811105C071
:100CD000B0909A03B11013C01BC51092A80304E68C
:100CE000E02EF12C8DEAC82E84E1D82E91E1B92EA8
:100CF00026E0A22E0E94EC13837051F321C580914F
:100D00000101882309F478C080910501813009F43C
:100D100073C00E94D210E62F29833A834B835C83F1
:100D20006D837E838F8360910501852F0E94392C0E
:100D300090939803E09397034AE0692FCE01889639
:100D40000E94C116BE01685D7F4F81EB94E00E9456
:100D5000A516CE0188960E94BC164AE060919703C2
:100D6000CE0188960E94C116BE01685D7F4F8BEA56
:100D700094E00E94A516CE0188960E94BC166BEAEC
:100D800074E0CE01C4960E94A11161EB74E0CE0123
:100D900088960E94A111BE01685D7F4FCE018E969C
:100DA0000E94F71666EF74E0CE018E960E94001640
:100DB000BE016C5C7F4F0E943216BC01CE01CA9608
:100DC0000E94F716BE01665C7F4F85EA94E00E94A0
:100DD000A516CE01CA960E94BC16CE018E960E9420
:100DE000BC16CE0188960E94BC16CE01C4960E9405
:100DF000BC1681E08093990304E212E08DE2C82ED4
:100E000082E0D82E812C912C9AE0A92E8091680244
:100E100090E0E0908B03F0908C038816990608F020
:100E200050C0F80180819181E816F90620F4809184
:100E30000B0181113DC0F80164817581C7010E94D9
:100E4000452C228133818217930791F58091080107
:100E5000813071F40E943E06882351F0F8018681AA
:100E60009781823F934021F480919903811183C738
:100E700080919403909195038E159F0531F46CE059
:100E800070E080E090E00E94351FF8016681778174
:100E900080E090E09601F601319740810E944E1269
:100EA00080918B0390918C0390939503809394038E
:100EB000FFEF8F1A9F0A0F5E1F4F21E1C20ED11C58
:100EC000A5CFE0910C01E370E0930C010E2F10E030
:100ED00031E1E39FF0011124EA5CFC4F80819181B4
:100EE000E816F90620F480910B01811139C081E1E7
:100EF000809FF001819FF00D1124EA5CFC4F64811A
:100F00007581C7010E94452C228133818217930786
:100F100039F580919403909195038E159F0531F4D6
:100F20006CE070E080E090E00E94351F81E1809FDE
:100F3000F001819FF00D11249F01215C3C4FEA5C80
:100F4000FC4F6681778180E090E040850E944E12E0
:100F500080918B0390918C039093950380939403DD
:100F600064E971E0CE0182960E948E1689E194E0D8
:100F70000E943A1B181619065CF589E194E00E945C
:100F8000131C182F89831A8241E050E0BE016F5F65
:100F90007F4FCE0182960E9487151A3039F7BE0125
:100FA0006E5D7F4FCE0101960E94F716BE016F5F06
:100FB0007F4F8FEC94E00E94A516CE0101960E940F
:100FC000BC1665EF74E0CE0182960E944516CECF26
:100FD0006DEE74E0CE0101960E94EE162D813E81E9
:100FE0008091D3049091D4042817390731F5898171
:100FF0009A816091CF047091D004009719F0611527
:101000007105A9F46115710551F02115310539F00B
:10101000FB01808190E09195819591090AC000972C
:1010200069F0232B59F0FC01808190E002C00E94FE
:10103000DA2FBB24B394892B09F0B12CCE01019691
:101040000E94BC16BB2089F06CEE74E0CE010196C4
:101050000E94EE16BE016F5F7F4F8FEC94E00E94FE
:10106000A516CE0101960E94BC1680918B0390912B
:101070008C0320919303422F50E031E1239FF00134
:101080001124E759FD4F608171818617970720F47D
:1010900030910B01311122C331E1349FF001359FB2
:1010A000F00D1124E759FD4F648175810E94452C94
:1010B000428153818417950709F010C32111E0C2C2
:1010C00080910801823009F44FC108F0A5C0813039
:1010D00009F0D6C243E063EC74E0CE0101960E94B1
:1010E0005605BE016F5F7F4F80E00E94A303CE01D3
:1010F00001960E94BC1640918E036BED74E0CE0108
:10110000CA960E94560543E06DEB74E0CE01C4968A
:101110000E94560544E069EC74E0CE018E960E9470
:10112000560540918E0365ED74E0CE0101960E9454
:101130005605BE016F5F7F4FCE0188960E94F7165D
:1011400069E974E0CE0188960E943216BE01625DA4
:101150007F4F0E94321668EE74E00E940016BE01B6
:101160006C5C7F4F0E9432160E94E711BE01665CE4
:101170007F4F0E943216BC01CE01805C9F4F0E94BF
:10118000F716BE01605C7F4F81E00E94A303CE0191
:10119000805C9F4F0E94BC16CE0188960E94BC16B0
:1011A000CE0101960E94BC16CE018E960E94BC16FE
:1011B000CE01C4960E94BC16CE01CA960E94BC16EF
:1011C00040918E0367EE74E0CE01C4960E945605EE
:1011D00043E067EB74E0CE018E960E945605409185
:1011E0008E0361EE74E0CE0101960E945605BE01A9
:1011F0006F5F7F4FCE0188960E94F7166DE874E00E
:10120000CE0188960E943216BE01625D7F4F0E9419
:1012100032160E94E711E7C1833009F446C18430D9
:1012200009F02EC240918E036BED74E0CE01CA9698
:101230000E94560543E06DEB74E0CE01C4960E9417
:10124000560544E069EC74E0CE018E960E94560586
:1012500040918E0365ED74E0CE0101960E94560523
:10126000BE016F5F7F4FCE0188960E94F71669E935
:1012700074E0CE0188960E943216BE01625D7F4FF7
:101280000E9432166CED74E00E940016BE016C5C88
:101290007F4F0E9432160E94E711BE01665C7F4FAD
:1012A0000E943216BC01CE01805C9F4F0E94F7164F
:1012B000BE01605C7F4F81E00E94A303CE01805C91
:1012C0009F4F0E94BC16CE0188960E94BC16CE018C
:1012D00001960E94BC16CE018E960E94BC16CE01CD
:1012E000C4960E94BC16CE01CA960E94BC164091BC
:1012F0008E0367EE74E0CE01CA960E94560565EA39
:1013000074E0CE01C4960E94F71644E063EC74E0EA
:10131000CE018E960E94560540918E0361EE74E0D8
:10132000CE0101960E945605BE016F5F7F4FCE0130
:1013300088960E94F71663E974E0CE0188960E94B1
:101340003216BE01625D7F4F0E9432166AED74E074
:101350000E940016BE016C5C7F4F0E94321668ED41
:1013600074E00E94001662C140918E036BED74E040
:10137000CE01CA960E94560543E06DEB74E0CE01A3
:10138000C4960E94560544E069EC74E0CE018E9646
:101390000E94560540918E0365ED74E0CE010196E2
:1013A0000E945605BE016F5F7F4FCE0188960E9456
:1013B000F71669E974E0CE0188960E943216BE01E4
:1013C000625D7F4F0E94321664EE74E00E94001648
:1013D000BE016C5C7F4F0E9432160E94E711BE0175
:1013E000665C7F4F0E943216BC01CE01805C9F4F2D
:1013F0000E94F716BE01605C7F4F81E00E94A3034C
:10140000CE01805C9F4F0E94BC16CE0188960E9440
:10141000BC16CE0101960E94BC16CE018E960E948B
:10142000BC16CE01C4960E94BC16CE01CA960E947C
:10143000BC1640918E0367EE74E0CE01CA960E94FE
:10144000560543E067EB74E0CE01C4960E94560552
:1014500044E063EC74E0CE018E960E945605409104
:101460008E0361EE74E0CE0101960E945605BE0126
:101470006F5F7F4FCE0188960E94F71663E974E094
:10148000CE0188960E943216BE01625D7F4F0E9497
:10149000321660EE74E00E940016BE016C5C7F4F55
:1014A0000E9432160E94E711C1C043E06DEB74E068
:1014B000CE0188960E9456056FE871E0CE01019634
:1014C0000E940017BE01685D7F4FCE0101960E9409
:1014D0003216BC01CE018E960E94F716BE01625DE7
:1014E0007F4F8FE994E00E94A516CE018E960E9450
:1014F000BC16CE0101960E94BC16CE0188960E94B1
:10150000BC1640918E036BED74E0CE01C4960E9430
:10151000560540918D034E5F65EA74E0CE018E96CC
:101520000E94E80440918E0365ED74E0CE010196BF
:101530000E945605BE016F5F7F4FCE0188960E94C4
:10154000F716BE01625D7F4FCE0188960E9432166B
:10155000BE016C5C7F4F0E943216BC01CE01CA9660
:101560000E94F716BE01665C7F4F81E00E94A303D4
:10157000CE01CA960E94BC16CE0188960E94BC1667
:10158000CE0101960E94BC16CE018E960E94BC161A
:10159000CE01C4960E94BC1640918E036BED74E0A0
:1015A000CE01C4960E94560540918D034E5F6FE9AF
:1015B00074E0CE018E960E94E80440918E0365EDA2
:1015C00074E0CE0101960E945605BE016F5F7F4F09
:1015D000CE0188960E94F716BE01625D7F4FCE0154
:1015E00088960E943216BE016C5C7F4F0E943216B4
:1015F000BC01CE01CA960E94F716BE01665C7F4F01
:1016000082E00E94A303CE01CA960E94BC16CE01BE
:1016100088960E94BC16CE0101960E94BC16CE018F
:101620008E960E94BC16CE01C49628C0BE01665C90
:101630007F4F0E943216BC01CE01805C9F4F0E94FA
:10164000F716BE01605C7F4F82E00E94A303CE01CB
:10165000805C9F4F0E94BC16CE0188960E94BC16EB
:10166000CE0101960E94BC16CE018E960E94BC1639
:10167000CE01C4960E94BC16CE01CA960E94BC162A
:10168000209194033091950380918B0390918C036A
:101690002817390731F46CE070E080E090E00E9498
:1016A000351FE09193030E2F10E081E1E89FF001D8
:1016B00011249F012E583D4FE759FD4F66817781D8
:1016C00080E090E040850E944E12C8010196609132
:1016D000350370E00E94592C8093930369E170E018
:1016E00080E090E00E94351F80918B0390918C03E5
:1016F00049968115EDE79E0728F490938C0380931B
:101700008B0306C010928C0310928B0310920B0176
:10171000CE0182960E94BC16CB5BDF4F0FB6F894C9
:10172000DEBF0FBECDBFDF91CF911F910F91FF9014
:10173000EF90DF90CF90BF90AF909F908F900895E3
:101740000E94EC1380FF06C081E60E94051440E071
:1017500061E007C081FF0AC081E70E94051440E0F4
:1017600062E08CE20E94F91180E001C084E0909177
:101770007504992389F04091760450917704609123
:1017800078047091790470684093760450937704DC
:10179000609378047093790490918304992389F07D
:1017A00040917604509177046091780470917904A7
:1017B0007064409376045093770460937804709338
:1017C0007904811127C08091760490917704A091CB
:1017D0007804B09179048093A4039093A503A09317
:1017E000A603B093A70320917A042093A303EBE907
:1017F000F3E080E090E030E0821793076CF48830EB
:10180000910551F0DC01AB58BB4F16964C914193BA
:101810000196F2CF1092A3038091A4039091A503A7
:10182000A091A603B091A703833224E09207A105FB
:10183000B10509F41DC130F4853B9340A105B10504
:1018400071F058CA8636F4E09F07A105B10509F486
:1018500067C28E329740A105B10579F14BCA8091DC
:101860000301882309F446CA80910701811142CA05
:1018700010928F03E0918F03E43008F03BCAF0E050
:10188000E556FC4F6081CE0101960E9413048091C1
:101890008F03A89EC0011124BE016F5F7F4F8B5242
:1018A0009B4F0E94A205CE0101960E94BC1680911A
:1018B0008F038F5F80938F03DDCF80910301882397
:1018C00009F494C080910701882309F48FC08091A6
:1018D0009B03873009F08AC080919C03823609F00F
:1018E00085C080919D03813409F080C080919E0362
:1018F000803429F0813409F079C082E03CC0109234
:101900008F03E0918F03E230A0F5F0E0EE0FFF1FB0
:10191000E156FC4F608170E0762F66278181680F69
:10192000711D072E000C880B990B0E9407332DECBC
:101930003CEC4CE45DE30E9442330E94592DCE0101
:1019400001960E94130480918F03A89EC001112468
:10195000BE016F5F7F4F8B529B4F0E94A205CE014D
:1019600001960E94BC1680918F038F5F80938F0336
:10197000C8CF81E039C080938F03E0918F03E430BA
:1019800090F5F0E0EE0FFF1FE556FC4F608170E030
:10199000762F66278181680F711D072E000C880B3A
:1019A000990B0E9407332DEC3CEC4CE45DE30E9464
:1019B00042330E94592DCE0101960E94130480915A
:1019C0008F03A89EC0011124BE016F5F7F4F8B5211
:1019D0009B4F0E94A205CE0101960E94BC168091E9
:1019E0008F038F5FC8CF82E080930C018091030149
:1019F000882309F47FC980910701882309F47AC9F3
:101A000080919B03863009F075C980919C038236D2
:101A100009F070C980919D03813409F06BC98091F0
:101A20009E03803609F066C960919F03662361F0CA
:101A3000CE0101960E947D04BE016F5F7F4F87EB50
:101A400094E00E94A2050DC06DEF74E0CE010196F6
:101A50000E94EE16BE016F5F7F4F87EB94E00E94FD
:101A6000A516CE0101960E94BC1610920C0142C927
:101A700060919D0370E0762F662780919E03680F2A
:101A8000711D77FF02C06D5F7F4F759567957595E6
:101A90006795072E000C880B990B0E9407330E9454
:101AA000882D19A618A61BA61AA61DA61CA60E945C
:101AB000592DDC01CB014AE0BE016F5F7F4F0E94D0
:101AC0006C30BE016F5F7F4FCE0188960E948E16EC
:101AD000BE01685D7F4F89EC94E00E94A516CE019F
:101AE00088960E94BC1680919B0390E0982F8827CF
:101AF00020919C03820F911DB7010E94592C6456BE
:101B00007109072E000C880B990B0E940733209156
:101B10000401211105C02BE232E14FE15FE304C073
:101B200020E030E040E85FE30E9442330E94882DCD
:101B300019A618A61BA61AA61DA61CA68E010F5F25
:101B40001F4F20E042E00E94EA2FBC01CE018896A0
:101B50000E948E16BE01685D7F4F83EC94E00E9468
:101B6000A516CE0188960E94BC1660919F03C801FD
:101B70000E947D04B8018DEB94E00E94A205C8018B
:101B80000E94BC1680919A03882309F44AC0809170
:101B90009B038F3F09F045C010929A03109299035E
:101BA0006CEF74E0C8010E94EE16B80183EC94E07B
:101BB0000E94A516C8010E94BC166BEF74E0C80114
:101BC0000E94EE16B80189EC94E00E94A516C801A7
:101BD0000E94BC166AEF74E0C8010E94EE16B801BC
:101BE0008DEB94E00E94A516C8010E94BC1669EF17
:101BF00074E0C8010E94EE16B80187EB94E00E94E1
:101C0000A516C8010E94BC1668EF74E0C8010E94C6
:101C1000EE16B8018FEC94E00E94A516C8010E9450
:101C2000BC1680919A03811165C880919B038F3FF8
:101C300009F460C881E080939A0360E087E00E9425
:101C4000F91EEE98D0922201C092210168EE73E055
:101C500080E090E00E94351F10928C0310928B035D
:101C600010928F03E0918F0380912302E81798F57B
:101C7000BE9EF00111249F012C553E4FE556FE4FAC
:101C80006681778180E090E040850E944E12E0916D
:101C90008F03BE9EF0011124E556FE4F62817381D1
:101CA00080E090E00E94351F80918F03B89EF00184
:101CB0001124E556FE4F40918B0350918C032281F5
:101CC0003381240F351F30938C0320938B038F5F58
:101CD00080938F03C7CF10928C0310928B0381E007
:101CE00080930B011092930380910701882371F078
:101CF00060916F037091700380E090E022E733E021
:101D0000409171030E944E1210920C010E94CB056B
:101D100064EF71E080E090E00E94351F0C947A0639
:101D20008091010181110C947A0660910501613066
:101D300011F40C947A0620919B03269526952695FE
:101D40008091060190E0820F911D70E00E94592C55
:101D50008093980380919C03869586958093970342
:101D600080919D03869586958093960381E080936C
:101D700099030C947A06809198036A2D0E94392C5D
:101D8000F0E18F9F900D1124F601908380919703CD
:101D90000E94392CF0E18F9F900D1124F801928759
:101DA00067C80F931F93CF93DF9380E290E00E9468
:101DB0000334853071F400E011E0C0E2D0E0CE01E0
:101DC0000E940334F80181938F012196CB32D10513
:101DD000B1F7DF91CF911F910F910895FF920F936B
:101DE0001F93CF93DF9300D0CDB7DEB78C0164E9AA
:101DF00071E00E9400178DEB94E00E942F1080E2AA
:101E0000F82E8DE0F81611F189E194E00E943A1B5A
:101E100018161906B4F789E194E00E94131CF82EF5
:101E200089831A8241E050E0BE016F5F7F4FC80195
:101E30000E948715E0911904F0911A040190F08135
:101E4000E02D6F2D89E194E00995DBCFC8010E9458
:101E50000915C8010F900F90DF91CF911F910F913D
:101E6000FF9008959091F6039111FCCF813208F014
:101E700080E291E09093F6039093F5032FEF209387
:101E8000F4031092F303280F2093F2039093F103CD
:101E90009091F103906D9093F1039091F003913044
:101EA00061F41092F0039091F1039093BB00909134
:101EB000BC0093FDF8CF95EC01C095EE9093BC006B
:101EC0009091F6039130E1F39091F303981710F499
:101ED0008091F303A0EDB3E029EF33E0F9019E2FE9
:101EE000921B981718F49D919193F9CF1092F803D3
:101EF0008093F70308951F93CF93DF93182FC5E7BF
:101F0000D4E060E088890E94961E83E00E94C61C8F
:101F1000812F0E94C61C80E00E94C61C182F61E021
:101F200088890E94961E812FDF91CF911F9108957D
:101F3000CF92DF92FF920F931F93CF93DF931F9265
:101F4000CDB7DEB7F82E162F042F60E08091850400
:101F500079830E94961E82E00E94C61C8F2D0E94EB
:101F6000C61CF12EC12E7981D72E8C2D8F1980178A
:101F700030F4F60181916F010E94C61CF6CF61E03A
:101F8000809185040E94961E83EE93E00197F1F7FD
:101F90000F90DF91CF911F910F91FF90DF90CF9025
:101FA0000895EF92FF920F931F93CF93DF931F92A9
:101FB000CDB7DEB7182FF62EE42E60E080918504B1
:101FC00079830E94961E83E00E94C61C812F0E9486
:101FD000C61C0F2D7981172FF12CFE1459F0F8E053
:101FE000FF1641F080E00E94C61CF80181938F012A
:101FF000F394F3CF61E0809185040F90DF91CF914E
:102000001F910F91FF90EF900C94961EE091190490
:10201000F0911A040280F381E02D42E050E062E981
:1020200071E089E194E00994CF93DF93E091190482
:10203000F0911A04DC0114964D915C9115976D9105
:102040007C910280F381E02D89E194E00995EC0117
:102050000E9406108C0F9D1FDF91CF9108950F9362
:102060001F93CF93DF938C01C0E0D0E0F801EC0F19
:10207000FD1F6491662371F0E0911904F0911A0438
:102080000190F081E02D89E194E00995892B11F010
:102090002196ECCFCE01DF91CF911F910F91089542
:1020A000CF93DF930E942F10EC010E9406108C0F3B
:1020B0009D1FDF91CF9108952091CF039091CE0382
:1020C000213208F04AC08091F6038111FCCF32E042
:1020D0003093F60331E03093F5033FEF3093F40390
:1020E0001092F3032093F203AEEAB3E040ED53E025
:1020F000FA013E2F341B321718F43D913193F9CF7A
:102100001092F1032091F103990F922B9093F10318
:102110009091F003913061F41092F0039091F103EB
:102120009093BB009091BC0093FDF8CF95EC01C05B
:1021300095EE9093BC009091F6039230E1F390916C
:10214000F4039F3F79F08091F403803241F0809155
:10215000F403803331F084E005C081E003C082E005
:1021600001C083E01092AD031092CF031092AC0334
:102170000895CF93C62F91E09093AC0398E6909387
:10218000CE031092AD031092CF03682F89E694E03E
:102190000E94BD1F6C2F89E694E00E94BD1FCF9165
:1021A0000C945C100F931F93CF93DF93CDB7DEB7E2
:1021B0002C970FB6F894DEBF0FBECDBF81E08093A1
:1021C000AC0388E68093CE031092AD031092CF0348
:1021D00060E089E694E00E94BD1F0E945C1088E0E8
:1021E00090E00E94320F89E694E00E946E1B9C01F1
:1021F000332794E0359527959A95E1F71AEF782FD4
:10220000129F700D112489E694E07C870E946E1B5A
:102210009C01332744E0359527954A95E1F7682FCF
:10222000129F600D112489E694E06B870E946E1B5B
:102230008F73982F92959F70582F919F500D112456
:1022400089E694E05A870E946E1B082F89E694E085
:102250000E946E1B9C01992754E0959587955A958D
:10226000E1F7422F189F400D112489E694E0498739
:102270000E946E1B9C01992764E0959587956A954D
:10228000E1F7322F189F300D112489E694E038874A
:102290000E946E1BDC01BB2774E0B595A7957A956B
:1022A000E1F7282F1A9F200D1124388549855A857A
:1022B0006B857C85802F90E02C960FB6F894DEBF5E
:1022C0000FBECDBFDF91CF911F910F910895109256
:1022D000F8031092F7031092AD031092CF030E94FF
:1022E000531E6CE18EE00E94B9106AE070E080E05D
:1022F00090E00E94351F81E08093AC0388E68093D4
:10230000CE031092AD031092CF0362E089E694E011
:102310000E94BD1F0E945C1081E090E00E94320F7D
:1023200089E694E00E946E1B682F6F7B82E00E941A
:10233000B9106AE070E080E090E00E94351F81E013
:102340000895EF92FF920F931F93CF93DF9300D0E6
:1023500000D000D0CDB7DEB78C010E94F716C801BF
:102360000E94091522E030E040E050E0B801CE01C3
:1023700001967C010E9415170E151F0521F0B7016B
:10238000C8010E94B515C7010E94BC16F8018481DE
:102390009581029770F465E971E0C7010E9400170A
:1023A000B801C7010E943216BC01C8010E94A516DF
:1023B000EACFC80126960FB6F894DEBF0FBECDBF98
:1023C000DF91CF911F910F91FF90EF900895CF93E0
:1023D000DF93EC0141E050E06DE871E00E94871569
:1023E000811103C0CE010E94EE15CE01DF91CF9185
:1023F0000895EF92FF920F931F93CF93DF931F9255
:10240000CDB7DEB7082F162F85E7E82E84E0F82E2B
:1024100060E0F701808949830E94961E85E00E9452
:10242000C61C802F0E94C61C812F0E94C61C498199
:10243000842F0E94C61C61E0F70180890E94961ECD
:1024400083EE93E00197F1F70F90DF91CF911F9109
:102450000F91FF90EF9008950F931F93CF93DF9309
:10246000082F162FC5E7D4E060E088890E94961EE9
:1024700082E00E94C61C802F0E94C61C812F0E94F1
:10248000C61C61E088890E94961E83EE93E0019746
:10249000F1F7DF91CF911F910F9108957F928F9265
:1024A0009F92AF92BF92CF92DF92EF92FF920F93E3
:1024B0001F93CF93DF9300D000D0CDB7DEB76093EA
:1024C0007604709377048093780490937904409312
:1024D0007A0410927504F90180E090E050E08417CE
:1024E00095075CF48830910541F02191DC01AB58EF
:1024F000BB4F16962C930196F2CFC12CD12C70E3D2
:10250000A72EE0E49E2EF0E58F2E8E010F5F1F4F69
:10251000A3E07A2E700EA9829A828B827801F7014D
:10252000B1907F018B2D0E947B0F982F987083FDB7
:1025300004C0FF24F394FB0C04C07E10F0CFF12CF8
:1025400092E0FFEFCF1ADF0A923029F422E3C2169D
:10255000D10409F768C082E3C816D10409F463C046
:1025600040917A046BE774E085E08F0D0E94980F2C
:1025700080918304813029F480917A04806480936F
:102580007A0460917A0484E08F0D0E942C124091AD
:102590007604509177046091780470917904809169
:1025A00075048130B1F44C835B83AB0166277727D8
:1025B000942F9C71842F8370E8E09E9F800D1124DE
:1025C00088608A8365E0569547956A95E1F7498367
:1025D0000DC0CA0123E0969587952A95E1F7898376
:1025E0004295440F407E4A831C821B8244E0B8011E
:1025F0008F2D0E94980FFA9448E068E08F2D0E947A
:10260000F91100E010E00F5F1F4F8F2D0E947B0F2C
:1026100083FF04C002331105B1F707C0023311056F
:1026200021F080E003C086E001C087E00F900F90AA
:102630000F900F90DF91CF911F910F91FF90EF902E
:10264000DF90CF90BF90AF909F908F907F90089534
:10265000FC018091AA03811103C08FEF9FEF0895C1
:102660009FB7F89482E08093E9002091F20030E077
:102670001216130614F421E030E02115310559F04B
:10268000289884E68093A9038091F100808380914B
:10269000F200882319F09FBFC90108958BE680934B
:1026A000E800F9CFCF93C82F482F60EE8FE00E944B
:1026B000F9118FE00E947B0F807E91E08C1301C0A6
:1026C00090E0892FCF910895CF92DF92EF92FF9201
:1026D000CF93DF9300D000D0CDB7DEB76A01EE24F0
:1026E000FF242C833B83613089F42C2D2C719C2D8D
:1026F000937038E0239F900D112498609A83A6016F
:1027000025E0569547952A95E1F70BC09C2D9295AB
:10271000990F907E9A83A60193E0569547959A95D6
:10272000E1F7498344E0BE016F5F7F4F0E94980F3D
:102730000F900F900F900F90DF91CF91FF90EF903F
:10274000DF90CF9008951F93CF93DF9300D000D0F8
:10275000CDB7DEB7182F9A01AB0180E829833A8301
:102760004B835C830E94521329813A814B815C81A7
:1027700081112AC0123099F038F4112369F0113018
:10278000C1F460E084E013C0143079F058F01530E3
:1027900081F460E088E10BC060E080E008C060E0A8
:1027A00088E005C060E080E102C060E084E10E9452
:1027B0006413809186040F900F900F900F90DF911B
:1027C000CF911F910C9452130F900F900F900F9078
:1027D000DF91CF911F9108951F93CF93DF93C5E7AA
:1027E000D4E060E088890E94961E80EA0E94C61CA0
:1027F00080E00E94C61C182F61E088890E94961E06
:10280000812FDF91CF911F9108950F931F93CF9345
:10281000DF9300D000D0CDB7DEB7182F109275042B
:102820001092760410927704109278041092790432
:1028300044E0BE016F5F7F4F0E94D10F8A81998172
:10284000482F50E065E0559547956A95E1F728E0F7
:10285000929F400D511D1124052E000C660B770B25
:1028600040937604509377046093780470937904CE
:1028700083FF29C092E0440F551F661F771F9A956A
:10288000D1F78370480F511D611D711D762F652F83
:10289000542F44278B81480F511D611D711D762FC8
:1028A000652F542F44278C81480F511D611D711DC8
:1028B000409376045093770460937804709379047E
:1028C00081E0809375048FEF810F0E947B0F082FAA
:1028D00084E0810F0E947B0F482F03FF04C081E03A
:1028E0008093830402C0109283044F7040937A0453
:1028F0006BE774E085E0810F0E94D10F0F900F907D
:102900000F900F90DF91CF911F910F9108952FB7E6
:10291000F89483E08093E9009091E800892F807219
:1029200095FF04C09091F20080E4891B2FBF0895A9
:102930008091F10481110DC082E08093ED0484E068
:102940008093EE041092F0041092EF0481E08093E3
:10295000F1048DEE94E00895089508950E94CC2F1F
:102960000F931F93CF93DF93EC0188819981009798
:1029700029F02A813B812617370788F48B016F5F86
:102980007F4F0E94022F009761F0998388831B83F9
:102990000A832C813D81232B11F4FC01108281E0FC
:1029A00001C080E0DF91CF911F910F9108950F93A7
:1029B0001F93CF93DF931F92CDB7DEB782E0898359
:1029C00042E450E060E075E080E80E94921C0E94C2
:1029D0009814DC0112960D911C91139701151105A5
:1029E00069F0D801ED91FC910280F381E02DBE01E8
:1029F0006F5F7F4FC801099597FF07C089810F90CE
:102A0000DF91CF911F910F910895F80100851185F5
:102A1000E5CFAF92BF92CF92DF92EF92FF920F93EA
:102A20001F93CF93DF93DC01CD90DC901197C114FD
:102A3000D10409F442C01496CD91DC9115972097EA
:102A4000E1F18C0156017501BFEFAB1ABB0AF7012A
:102A50008081082E000C990B0E94EC32892B99F78B
:102A60002197CC0DDD1D8881082E000C990B0E944A
:102A7000EC32892B91F4AE014F5F5F4F4E195F0925
:102A8000D80115965C934E931497CE14DF0450F43E
:102A9000B701C6010E94D12F05C0CE15DF0558F33E
:102AA0002197E1CFD801ED91FC91119714968D916A
:102AB0009C911597E80FF91F1082DF91CF911F911C
:102AC0000F91FF90EF90DF90CF90BF90AF9008955F
:102AD000FC0124813581232B31F421E0611571053E
:102AE000A1F0FB0108C0FC01808191816115710595
:102AF00031F421E0FC018081882339F005C00E9477
:102B0000DA2F21E0892B09F020E0822F0895EF923F
:102B1000FF920F931F93CF93DF93FC0124813581A4
:102B20006115710511F480E019C041155105A9F036
:102B30007B01EC018A01020F131FB8010E94B0143F
:102B4000882389F3288139818C819D81B701820F87
:102B5000931F0E94E32F1D830C8381E0DF91CF91AF
:102B60001F910F91FF90EF9008950F931F93CF93B4
:102B7000DF938C01EB01FC01808191810097B1F022
:102B8000688179816115710579F0428153812C81C9
:102B90003D814217530740F00E94E32F8C819D81B5
:102BA000F8019583848313C00E946A2E88819981DD
:102BB000F801918380838A819B81938382838C81B6
:102BC0009D8195838483198218821B821A821D82BB
:102BD0001C82DF91CF911F910F910895CF93DF93C6
:102BE000EC0188819981009711F00E946A2E198268
:102BF00018821D821C821B821A82DF91CF91089558
:102C0000EF92FF920F931F93CF93DF93EC017B0121
:102C100061157105E1F0CB010E9438300097D1F0C9
:102C20002C813D818C01020F131FB801CE010E943F
:102C3000B014882361F0288139818C819D81B7018E
:102C4000820F931F0E9431301D830C8303C0CE017D
:102C50000E94EE15CE01DF91CF911F910F91FF9051
:102C6000EF900895CF93DF93EC01FB0144815581F0
:102C7000608171810E948715811103C0CE010E947D
:102C8000EE15CE01DF91CF910895EF92FF920F9351
:102C90001F93CF93DF93EC018B016115710551F008
:102CA000CB010E9438307C01BC01CE010E94B014DF
:102CB000811104C0CE010E94EE1507C0FD82EC8296
:102CC000B801888199810E943130CE01DF91CF9186
:102CD0001F910F91FF90EF900895EF92FF920F9345
:102CE0001F93CF93DF93EC017B018A01BA010E940D
:102CF000B014811104C0CE010E94EE1507C01D83DF
:102D00000C83B701888199810E94E32FCE01DF9166
:102D1000CF911F910F91FF90EF900895CF93DF9384
:102D2000EC016115710559F0FB0101900020E9F7F4
:102D30003197AF01461B570B0E946D1602C00E94CF
:102D4000EE15CE01DF91CF910895CF93DF93EC0183
:102D5000FB018617970761F060817181611571052C
:102D600029F0448155810E946D1602C00E94EE1523
:102D7000CE01DF91CF910895FC01808191810C9467
:102D80006A2E0F931F93CF93DF93CDB7DEB72997AA
:102D90000FB6F894DEBF0FBECDBF8C01862FF801B1
:102DA00011821082138212821582148250E0BE01B9
:102DB0006F5F7F4F90E00E946130BE016F5F7F4F79
:102DC000C8010E948E1629960FB6F894DEBF0FBE7A
:102DD000CDBFDF91CF911F910F910895FC0111821A
:102DE000108213821282158214820C944516FC0103
:102DF0001182108213821282158214820C94A516FD
:102E0000FC011182108213821282158214826115D4
:102E1000710551F0FB0101900020E9F73197AF01F6
:102E2000461B570B0C946D160895BF92CF92DF92FC
:102E3000EF92FF920F931F93CF93DF937C016B016F
:102E40008A01E9012417350720F4812F8901C42F55
:102E5000D82F64E971E0C7010E940017D6011496CB
:102E60008D919C91159708171907D0F48C179D0721
:102E700008F4EC01D601ED91FC911197EC0FFD1FC8
:102E8000B08010824D915C91BA01600F711FC70133
:102E90000E948E16D601ED91FC91EC0FFD1FB082C1
:102EA000C701DF91CF911F910F91FF90EF90DF90BD
:102EB000CF90BF9008951F920F920FB60F921124DA
:102EC0002F933F934F935F936F937F938F939F9332
:102ED000AF93BF93EF93FF93E0912101F091220113
:102EE0000995FF91EF91BF91AF919F918F917F9144
:102EF0006F915F914F913F912F910F900FBE0F9067
:102F00001F9018951F920F920FB60F9211242F93B6
:102F10003F934F935F936F937F938F939F93AF9361
:102F2000BF93EF93FF93E0911F01F091200109956A
:102F3000FF91EF91BF91AF919F918F917F916F9191
:102F40005F914F913F912F910F900FBE0F901F9067
:102F500018951F920F920FB60F9211242F933F9343
:102F60004F935F936F937F938F939F93AF93BF9391
:102F7000EF93FF93E0911D01F0911E010995FF91E0
:102F8000EF91BF91AF919F918F917F916F915F91E1
:102F90004F913F912F910F900FBE0F901F9018955A
:102FA0001F920F920FB60F9211242F933F934F93BE
:102FB0005F936F937F938F939F93AF93BF93EF93A1
:102FC000FF93E0911B01F0911C010995FF91EF9196
:102FD000BF91AF919F918F917F916F915F914F9131
:102FE0003F912F910F900FBE0F901F9018951F9239
:102FF0000F920FB60F9211242F933F934F935F932D
:103000006F937F938F939F93AF93BF93EF93FF93B0
:10301000E0911901F0911A010995FF91EF91BF918B
:10302000AF919F918F917F916F915F914F913F9160
:103030002F910F900FBE0F901F9018951F920F9217
:103040000FB60F9211248F939F938091E10090917E
:10305000E100937F9093E10083FF0FC01092E9009D
:1030600091E09093EB001092EC0092E39093ED00CE
:103070001092AA0398E09093F00082FF20C093E0A2
:103080009093E9009091F200992319F09AE39093BC
:10309000E8009091FD04992339F09091FD0491503E
:1030A0009093FD04992389F19091A903992339F014
:1030B0009091A90391509093A903992341F184FF22
:1030C00010C08091E2008E7E81608093E20080914A
:1030D000E1008F7E8093E100809199018E7E806176
:1030E00011C080FF16C08091E2008E7E80618093C7
:1030F000E2008091E1008E7E8093E1008091990151
:103100008E7E81608093990104C05D9ACDCF289A0C
:10311000D6CF9F918F910F900FBE0F901F90189553
:103120001F920F920FB60F921124CF92DF92EF925F
:10313000FF920F931F932F933F934F935F936F9340
:103140007F938F939F93AF93BF93EF93FF93CF930F
:10315000DF93CDB7DEB76C97DEBFCDBF1092E9002D
:103160008091E80083FFEDC168E0CE0145960E94A2
:10317000B91C82EF8093E8008D8987FF05C090918C
:10318000E80090FFFCCF03C09EEF9093E800982FDB
:10319000907609F0C6C09E892F89188D91110CC0B8
:1031A000803829F480919A018093F10002C0109236
:1031B000F1001092F10048C1422F50E0512B9130A4
:1031C00051F4811141C14130510509F03DC1809157
:1031D0009A018D7F0BC0933061F4811135C141306C
:1031E000510509F031C180919A01826080939A0162
:1031F0002BC1953041F48091E80080FFFCCF20681E
:103200002093E30021C1963009F05FC0EB8CFC8C69
:103210001092E9001092FC041092FB04123091F518
:103220001092FA041092F9040E94D71499E0BE019A
:103230006F5F7F4FDB01E92F1D92EA95E9F79983D4
:103240001A8391E09E8390EA98879AEF998720915C
:10325000FB043091FC04275F3F4F3C832B838D831D
:103260001092E9001092FC041092FB04F092FA0410
:10327000E092F90449E050E080E00E94921C0E9434
:10328000D714E2C0F092FA04E092F9040E94981474
:10329000DC011296ED90FC901397E114F10409F40F
:1032A000C0C0D701ED91FC910480F581E02DBE01F5
:1032B0006B5E7F4FC7010995009719F00CF0C4C0F1
:1032C000C7C0F701E084F184E8CF973009F4C0C0AB
:1032D000983021F481E08093F100B6C0993009F074
:1032E000B3C0837009F0B4C0EEE4F1E081E021E006
:1032F00036E39081992361F08093E9002093EB00FD
:1033000091919093EC003093ED008F5F873089F7B7
:103310008EE78093EA001092EA008F898093AA03D7
:1033200093C08B8D9C8D1092E9001092FC0410923A
:10333000FB049093FA048093F904898D811156C09F
:103340008E899D89913A59F4813209F081C047E014
:1033500050E061E171E080E00E94921C75C0913202
:1033600009F076C0833289F4888D90E0982F882701
:103370002F89822BA0E0B0E080930D0190930E0185
:10338000A0930F01B09310015FC0803269F4809167
:10339000E80082FFFCCF67E081E191E00E94B91C68
:1033A0008BEF8093E80006C0823209F04DC08F8910
:1033B0008093180180919801882319F0EEEFFAE0CC
:1033C00002C0E0E0F8E08091110190911201A0911B
:1033D0001301B0911401803B9440A105B10509F09F
:1033E0007BC08091180180FF93C076C00E94981422
:1033F000DC0112960D911C9113970115110541F1F5
:10340000D801ED91FC910190F081E02DBE016B5E41
:103410007F4FC8010995811117C0F80100851185FA
:10342000ECCF113009F44EC0133091F48F8988230A
:1034300009F445C0823081F440E862E181E695E01C
:103440000E94551C882321F08EEF8093E80079C0FC
:1034500081E28093EB0075C0813029F440E868E098
:1034600088E595E0EDCF833099F70E949814DC0150
:103470001296ED90FC9013978E010F5F1F4F68011D
:10348000E114F10479F0D701ED91FC910680F78108
:10349000E02DB801C7010995080F111DF701E0845F
:1034A000F184EECFD8011C92F60101900020E9F7DB
:1034B0003197BF016C197D0940E0C601C1CF62E4BC
:1034C00075E002C066E475E06115710509F2FB0163
:1034D000449150E080E840CF0FB6F894A8958091D1
:1034E0006000886180936000109260000FBEA89514
:1034F000EE3F2AE0F20739F08091FE0A9091FF0A30
:1035000091838083A1CF1092FF0A1092FE0A9CCF74
:10351000EE3F8AE0F80731F0808191819093FF0AB5
:103520008093FE0A87E797E7918380839BE088E199
:103530000FB6F894A895809360000FBE909360003A
:1035400083CF6C960FB6F894DEBF0FBECDBFDF9170
:10355000CF91FF91EF91BF91AF919F918F917F910B
:103560006F915F914F913F912F911F910F91FF901C
:10357000EF90DF90CF900F900FBE0F901F90189597
:103580004091FB045091FC042091F9043091FA041D
:1035900042175307B4F49091E8009570E1F39091CD
:1035A000E80092FD19C08093F1008091FB04909196
:1035B000FC0401968F739927892B19F48EEF809361
:1035C000E8008091FB049091FC0401969093FC0428
:1035D0008093FB0481E0089580E00895CF92DF920C
:1035E000EF92FF920F931F93CF93DF936C017A01B9
:1035F0008B01C0E0D0E0CE15DF0589F0D8016D91D8
:103600008D01D601ED91FC910190F081E02DC60174
:103610000995892B11F47E0102C02196ECCFC701D8
:10362000DF91CF911F910F91FF90EF90DF90CF909E
:103630000895CF93DF931F92CDB7DEB76983DC0186
:10364000ED91FC910280F381E02D41E050E0BE015C
:103650006F5F7F4F09950F90DF91CF91089583E0C1
:103660008093E9008091F200882319F08AE3809327
:10367000E8000895FC018485958597FD0BC09FB7F0
:10368000F89482E08093E9008091F2009FBF90E07F
:10369000019608959FB7F89482E08093E9008091A5
:1036A000F2009FBF90E0089585ED8093BC0080916B
:1036B000BC0084FDFCCF1092F60308950895E091BC
:1036C000F8038091F703E81730F4F0E0E750FC4F7F
:1036D000808190E008958FEF9FEF08959091F80317
:1036E0008091F703981750F4E92FF0E0E750FC4F72
:1036F000208130E09F5F9093F80302C02FEF3FEFEF
:10370000C90108958091F70390E02091F803821B8E
:10371000910908958F929F92AF92BF92CF92DF92BC
:10372000EF92FF920F931F93CF93DF935C016B0196
:103730007A0180911801882309F45BC08091AA0363
:10374000882309F456C08091990180FF05C08091BB
:10375000E00082608093E000E70110E00AEF83E080
:10376000882E9AE3992E2097D9F10E94871481110F
:103770000AC0015009F43DC061E070E080E090E0D3
:103780000E94351FF0CF282F30E0C217D3070CF46A
:103790008C2F4FB7F8948092E9009091E80095FF44
:1037A0001DC0282F30E0C21BD30BF601982F91507B
:1037B00020F081918093F100FACFC20ED31E112325
:1037C00019F09092E80009C08091E80085FD06C0DC
:1037D0009092E80011E0209709F010E04FBFC3CFAE
:1037E0001111C3CF5D9884E68093FD041E141F045D
:1037F00044F081E090E0F5019383828380E090E0E3
:1038000001C0C701DF91CF911F910F91FF90EF9001
:10381000DF90CF90BF90AF909F908F9008950E94BF
:10382000871490E00895CF93DF931F92CDB7DEB752
:10383000FC018485958597FD05C02FEF3FEF358707
:1038400024870BC0CE0101960E942813019719F41A
:10385000898190E002C08FEF9FEF0F90DF91CF91B1
:1038600008950F931F93CF93DF931F92CDB7DEB7C9
:103870008C01FC018485958597FF0EC0CE010196D1
:103880000E942813019719F4298130E002C02FEF1C
:103890003FEFF80135872487F801848595850F90DF
:1038A000DF91CF911F910F910895CF92DF92EF9208
:1038B000FF920F931F93CF93DF931F92CDB7DEB785
:1038C000182F062FE42E862F880F8E5F99830E9473
:1038D000C01A83E00E94C01AF12EC12E9981D92E00
:1038E0008C2D8F19801798F4F601E7FE02C08491A1
:1038F00001C080810E94C01A182F80E00E94C01A67
:103900008123FFEFCF1ADF0A8111EACF01C081E0E6
:103910000F90DF91CF911F910F91FF90EF90DF906B
:10392000CF900895DF92EF92FF920F931F93CF9362
:10393000DF93D82E8A017B01E40EF51EEB01CE1534
:10394000DF0571F0D7FE03C0FE01849101C08881BC
:103950000E94C01A21968111F2CF8FEF9FEF01C014
:10396000C801DF91CF911F910F91FF90EF90DF90F1
:103970000895615030F02091F100FC012083019600
:10398000F8CF289884E68093A90308958EBD00009F
:103990000DB407FEFDCF8EB508951F920F920FB69E
:1039A0000F9211242F933F934F935F936F937F93C5
:1039B0008F939F93AF93BF93EF93FF938091B90041
:1039C000887F803609F49CC068F5883209F45BC0B2
:1039D00090F4803109F454C038F4882309F4F6C017
:1039E000883009F44DC0F6C0883109F44CC08032EB
:1039F00009F45DC0EFC0803409F468C048F4803336
:103A000009F455C0883309F0E5C08093F403D8C0A9
:103A1000803509F44FC0883509F45DC0883409F059
:103A2000D9C0D6C0883909F4C7C0A8F4883709F4CA
:103A300067C038F4883609F463C0803709F460C081
:103A4000C9C0883809F4B8C0803909F45FC080382B
:103A500009F0C0C05BC0803B09F486C038F4803AEE
:103A600009F466C0883A09F47FC0B4C0803C09F408
:103A7000A7C0883C09F4A4C0883B09F48AC0AAC046
:103A80008091F10310C09091F3038091F203981795
:103A900070F5E091F30381E08E0F8093F303F0E083
:103AA000E053FC4F80818093BB0085EC86C08093FF
:103AB000F4038EC0E091F30381E08E0F8093F30353
:103AC0008091BB00F0E0E053FC4F80839091F303C2
:103AD0008091F2036EC0E091F30381E08E0F80933A
:103AE000F3038091BB00F0E0E053FC4F80838091B2
:103AF000F50381116DC081E08093F00384EA61C019
:103B000083E08093F60310924405CFCF8091440563
:103B1000803208F051C0E091440581E08E0F80931F
:103B200044058091BB00F0E0EC5DFA4F8083BDCF8F
:103B300085EC8093BC001092F6038091440580329E
:103B400030F4E0914405F0E0EC5DFA4F10826091B2
:103B5000440570E0E0912205F091230584E295E0B0
:103B600009951092440536C084E08093F6031092C4
:103B7000210510922005E0911E05F0911F05099581
:103B800080912005811105C081E08093200510926D
:103B9000FE04E091210581E08E0F80932105F0E085
:103BA000E250FB4F80818093BB0090912105809172
:103BB0002005981708F479CF85E88093BC000AC0E7
:103BC00085EC8093BC001092F60304C01092F403BD
:103BD0000E94541BFF91EF91BF91AF919F918F91E4
:103BE0007F916F915F914F913F912F910F900FBEF9
:103BF0000F901F90189540912005262F30E0240F3C
:103C0000311D21323105DCF42091F6032430C9F452
:103C1000FC0180E090E0861758F430912005219156
:103C2000DC01A250BB4FA30FB11D2C930196F3CF23
:103C300080912005680F6093200580E0089581E061
:103C4000089582E00895CF92DF92EF92FF920F9352
:103C50001F93CF93DF937C01262F972F8A018091AA
:103C6000AC03882391F0C62FD72F6E01C40ED51E4A
:103C7000CC15DD0571F06991D701ED91FC910190B2
:103C8000F081E02DC7010995F3CF642F822F0E94A8
:103C9000FB1DC801DF91CF911F910F91FF90EF9015
:103CA000DF90CF9008951092F60381E08093F503A2
:103CB0001092F00361E082E00E94961E61E083E0D2
:103CC0000E94961EE9EBF0E080818E7F80838081E8
:103CD0008D7F808388E48093B80085E48093BC0066
:103CE00008953FB7F89480914A0590914B05A091B3
:103CF0004C05B0914D0526B5A89B05C02F3F19F086
:103D00000196A11DB11D3FBFBA2FA92F982F88275B
:103D1000820F911DA11DB11DBC01CD0142E0660FB6
:103D2000771F881F991F4A95D1F70895362F90E085
:103D3000FC01E253FA4F4491FC01E155FA4F249102
:103D4000FC01E057FA4F8491882309F451C04423C1
:103D5000E1F150E0FA013197EF30F105B0F5EA5AA0
:103D6000FF4F0C946D2C909180009F7707C090912D
:103D700080009F7D03C090918000977F909380008A
:103D800024C094B59F7702C094B59F7D94BD1DC09B
:103D9000909190009F7707C0909190009F7D03C005
:103DA00090919000977F909390000FC09091C000E9
:103DB0009F7703C09091C0009F7D9093C00005C085
:103DC0009091C200977F9093C200E82FF0E0EE0F31
:103DD000FF1FEE57FA4FA591B4918FB7F894EC916D
:103DE000311103C020952E2301C02E2B2C938FBFA1
:103DF0000895CF93DF9390E0FC01E155FA4F2491B1
:103E0000FC01E057FA4F8491882361F190E0880F1C
:103E1000991FFC01EC58FA4FC591D491FC01EE5763
:103E2000FA4FA591B491611109C09FB7F8948881A8
:103E3000209582238883EC912E230BC0623061F49D
:103E40009FB7F8943881822F809583238883EC91E3
:103E50002E2B2C939FBF06C08FB7F894E8812E2B92
:103E600028838FBFDF91CF9108958F929F92AF9259
:103E7000BF92CF92DF92EF92FF926B017C010E9482
:103E8000711E4B015C01C114D104E104F104F1F095
:103E90000E94711EDC01CB0188199909AA09BB098E
:103EA000883E9340A105B10570F321E0C21AD10804
:103EB000E108F10888EE880E83E0981EA11CB11C71
:103EC000C114D104E104F10419F7DDCFFF90EF90A4
:103ED000DF90CF90BF90AF909F908F9008951F92EA
:103EE0000F920FB60F9211242F933F938F939F93AE
:103EF000AF93BF938091460590914705A0914805E7
:103F0000B09149053091450523E0230F2D3720F46A
:103F10000196A11DB11D05C026E8230F0296A11D23
:103F2000B11D209345058093460590934705A093C6
:103F30004805B093490580914A0590914B05A091A1
:103F40004C05B0914D050196A11DB11D80934A0508
:103F500090934B05A0934C05B0934D05BF91AF9145
:103F60009F918F913F912F910F900FBE0F901F90B7
:103F70001895089580E090E00895CF93DF931F9205
:103F8000CDB7DEB769832091AC032223D1F0209115
:103F9000CF03203240F021E030E0FC013383228364
:103FA00080E090E015C08091AD03E82FF0E0E2558D
:103FB000FC4F998190838F5F8093AD038093CF03F3
:103FC00005C061E0CE0101960E94FB1D81E090E0FA
:103FD0000F90DF91CF910895CF93DF93CDB7DEB7E8
:103FE00062970FB6F894DEBF0FBECDBF789484B54C
:103FF000826084BD84B5816084BD85B5826085BDE5
:1040000085B5816085BD80916E00816080936E0072
:104010001092810080918100826080938100809164
:104020008100816080938100809180008160809315
:104030008000809191008260809391008091910036
:1040400081608093910080919000816080939000C6
:104050008091C10084608093C1008091C100826022
:104060008093C1008091C10081608093C1008091E4
:10407000C30081608093C3008091C0008260809300
:10408000C0008091C20081608093C20080917A005C
:10409000846080937A0080917A00826080937A00B5
:1040A00080917A00816080937A0080917A008068A4
:1040B00080937A001092AA0310929A0110929901AB
:1040C0008091D70081608093D70080EA8093D800E8
:1040D00089B5806189BD89B5826089BD09B400FE5A
:1040E000FDCF61E070E080E090E00E94351F80919C
:1040F000D8008F7C80618093D8008091E000807F21
:104100008093E0008091E1008E7E8093E1008DE05D
:104110008093E200559A209AEEEFFFE78591949103
:104120008B3F9C4D19F481E0809398018FEF9FEFB6
:1041300090932604809325041092F8031092F703BD
:104140001092AD031092CF030E94531E0E94D10E15
:1041500060ED77E080E090E00E94351F85E080937D
:104160008F0380918F03882309F44DC384E994E081
:104170000E942F104AE060918F03CE0101960E94A9
:10418000C116CE0101960E941410CE0101960E9424
:10419000BC1668EE73E080E090E00E94351F89E174
:1041A00094E00E943A1B181619060CF028C389E106
:1041B00094E00E94131C0E94061064E971E0CE0195
:1041C0000D960E9400170E94D10E64E971E0CE01A5
:1041D00007960E94001788EC91E00E94501087EB30
:1041E00091E00E942F104AE060910001CE010196FB
:1041F0000E94C116CE0101960E941410CE010196B4
:104200000E94BC168DEA91E00E942F108091080157
:10421000823069F028F4813089F481EA91E00CC0A1
:10422000833041F0843051F48FE491E005C08BE994
:1042300091E002C086E791E00E94501087E491E08F
:104240000E942F1080910401811103C06BE571E081
:1042500002C064E571E0CE0101960E940017CE0114
:1042600001960E941410CE0101960E94BC1689E3AB
:1042700091E00E942F1080910101811103C068E636
:1042800071E002C064E671E0CE0101960E94001761
:10429000CE0101960E941410CE0101960E94BC1618
:1042A00080910101882319F00E94E10513C08DE27D
:1042B00091E00E942F104AE060910601CE01019624
:1042C0000E94C116CE0101960E941410CE010196E3
:1042D0000E94BC1680E291E00E942F10809105019F
:1042E0008C3039F0883141F0813051F48BE191E02C
:1042F00005C087E191E002C083E191E00E94501087
:1043000082E091E00E942F1080910201813031F013
:1043100040F0823051F485EF90E005C08DEF90E0E1
:1043200002C089EF90E00E94501082EE90E00E945F
:104330002F1080910301811103C060E771E002C07A
:104340006CE671E0CE0101960E940017CE01019645
:104350000E941410CE0101960E94BC168AEC90E0D7
:104360000E94501080910701811103C06BE771E03A
:1043700002C063E771E0CE0101960E940017CE01F2
:1043800001960E941410CE0101960E94BC160E9454
:104390000610CE0107960E94BC1685E294E00E94AA
:1043A00050108BEA93E00E945010CE0101960E94BB
:1043B000EE0EBE016F5F7F4FCE010D960E94B515C8
:1043C000CE0101960E94BC1665E871E0CE010D9603
:1043D0000E946815882311F081E01DC067E871E034
:1043E000CE010D960E946815882311F082E013C05B
:1043F00069E871E0CE010D960E946815882311F0DE
:1044000083E009C06BE871E0CE010D960E9468154B
:10441000882319F084E0809308018DE593E00E94E1
:104420005010CE0101960E94EE0EBE016F5F7F4FCD
:10443000CE010D960E94B515CE0101960E94BC16C4
:1044400065E871E0CE010D960E946815882319F089
:10445000109201010BC067E871E0CE010D960E9439
:104460006815882319F081E0809301018091010192
:10447000882309F4A3C00E94E1058FE193E00E9424
:104480005010CE0101960E94EE0EBE016F5F7F4F6D
:10449000CE010D960E94B515CE0101960E94BC1664
:1044A000CE010D960E94141064E971E0CE010D96C4
:1044B0000E94681581119FC025E030E043E050E084
:1044C000BE01635F7F4FCE0101960E94151789815F
:1044D0009A81009721F00E940A30062F01C000E067
:1044E000CE0101960E94BC1622E030E040E050E090
:1044F000BE01635F7F4FCE0101960E94151789812F
:104500009A81009721F00E940A30162F01C010E016
:10451000CE0101960E94BC1681E08093AC0388E630
:104520008093CE031092AD031092CF0360E089E632
:1045300094E00E94BD1F60E089E694E00E94BD1FE8
:104540006AE0F62E802F6F2D0E94392C982F990F3C
:10455000980F990F692F600F89E694E00E94BD1FA4
:104560001F7B812F6F2D0E94392C682F660F860FBD
:10457000880F682F610F89E694E00E94BD1F65E0F7
:1045800089E694E00E94BD1F60E189E694E00E9404
:10459000BD1F61E189E694E00E94BD1F61E189E6EB
:1045A00094E00E94BD1F0E945C1068EE73E080E002
:1045B00090E00E94351F0E94E1051DC084E093E059
:1045C0000E945010CE0101960E94EE0EBE016F5F58
:1045D0007F4FCE010D960E94B515CE0101960E9427
:1045E000BC168D859E85009719F00E940A3001C087
:1045F00060E0609306018CED92E00E945010CE01C5
:1046000001960E94EE0EBE016F5F7F4FCE010D96A8
:104610000E94B515CE0101960E94BC1665E871E0B6
:10462000CE010D960E946815882311F081E013C019
:1046300067E871E0CE010D960E946815882311F09D
:104640008CE009C069E871E0CE010D960E94681502
:10465000882319F088E18093050184EA92E00E94A2
:104660005010CE0101960E94EE0EBE016F5F7F4F8B
:10467000CE010D960E94B515CE0101960E94BC1682
:1046800065E871E0CE010D960E946815882321F03F
:1046900081E08093040109C067E871E0CE010D96C6
:1046A0000E9468158111109204018DE792E00E942A
:1046B0005010CE0101960E94EE0EBE016F5F7F4F3B
:1046C000CE010D960E94B515CE0101960E94BC1632
:1046D00065E871E0CE010D960E946815882321F0EF
:1046E00081E08093030109C067E871E0CE010D9677
:1046F0000E946815811110920301809103018823A3
:1047000099F184E592E00E945010CE0101960E943A
:10471000EE0EBE016F5F7F4FCE010D960E94B51564
:10472000CE0101960E94BC1665E871E0CE010D969F
:104730000E946815882319F01092020115C067E8DD
:1047400071E0CE010D960E946815882311F082E079
:1047500009C069E871E0CE010D960E9468158823B2
:1047600019F081E08093020180E292E00E945010F3
:10477000CE0101960E94EE0EBE016F5F7F4FCE010B
:104780000D960E94B515CE0101960E94BC1665E8F3
:1047900071E0CE010D960E946815882321F081E01A
:1047A0008093070109C067E871E0CE010D960E9471
:1047B00068158111109207018BE092E00E94501061
:1047C00050E0E52E51E0F52E00E210E0F701619196
:1047D0007F01C8010E940B340F5F1F4F0B32110580
:1047E000A9F781E0809390038CED91E00E94501036
:1047F000CE010D960E94BC160E94D10E04C080917D
:104800008F038150ACCC81E08093230210929C01F5
:1048100010929B0124E630E030939E0120939D018D
:104820001092A00110929F012CE035E03093A2017C
:104830002093A10193E09093A3019CE09093A401A5
:104840008093A5011092A6011092A7011092A801D1
:104850001092A9011092AA011092AB0100910801D7
:104860008DEF800F823028F582E080932302109232
:10487000AD011092AC018AEF90E09093AF0180936C
:10488000AE011092B1011092B00188EE93E09093C6
:10489000B3018093B20188E08093B4011092B50116
:1048A0001092B60184E08093B70184E28093B8014E
:1048B00025C0013059F582E0809323021092AD01AA
:1048C0001092AC018AEF90E09093AF018093AE011B
:1048D0001092B1011092B00188EE93E09093B30171
:1048E0008093B20188E08093B4011092B5011092D8
:1048F000B60189E28093B7011092B8011092B90114
:104900001092BA011092BB011092BC01F0902302E8
:10491000BB24B394BF0CB092230211E11F9DD001C0
:104920001124A556BE4F11961C921E9232E3C32E3F
:10493000D12C1396DC92CE92129715961C921E9251
:1049400014978FEE93E017969C938E93169748E0FA
:10495000E42E1896EC92189782E319968C93199787
:104960001A968C931A971B968C931B971C968C9374
:104970001C9783E01D968C931D971E961C921E9784
:104980001F961C921F9750961C920E943E068823E9
:10499000E9F0F394F394F09223021B9DF0011124AB
:1049A000E556FE4F11821082D382C2821582148294
:1049B00082EF93E097838683E0868FEF81878287FB
:1049C00083878487858780E686871DC00230E9F06B
:1049D000F394F394F09223021B9DF0011124E55609
:1049E000FE4F11821082D382C2821582148282EF1E
:1049F00093E097838683E0868FEF81878287838722
:104A00008487858716861786108AF0902302EE2405
:104A1000E394EF0CE092230211E11F9DD0011124D9
:104A2000A556BE4F11961C921E9284E690E01396F6
:104A30009C938E93129715961C921E9214978CE05D
:104A400095E017969C938E93169783E018968C9317
:104A5000189781E019968C93199782E01A968C9397
:104A60001A971B961C921B971C961C921C971D96BE
:104A70001C921D971E961C921E971F961C921F97A4
:104A800050961C920E943E06882301F1F394F39401
:104A9000F09223021E9DF0011124E556FE4F118273
:104AA000108282E390E0938382831582148282EFE6
:104AB00093E09783868388E08087118612868FEF44
:104AC00083878487858780EF868720C0023001F145
:104AD000F394F394F09223021E9DF0011124E55605
:104AE000FE4F1182108282E390E0938382831582CD
:104AF000148282EF93E09783868388E080878FEF2C
:104B00008187828783878487858716861786108AA0
:104B1000E091230281E18E9FD0011124A556BE4F62
:104B200011961C921E9222E330E013963C932E9332
:104B3000129715961C921E92149721EF33E0179648
:104B40003C932E93169728E018962C93189795EF80
:104B500019969C93199790E91A969C931A971B960D
:104B60001C921B971C961C921C971D961C921D97BD
:104B70001E961C921E971F961C921F9750961C9271
:104B800092E09E0F90932302EF5F8E9FF00111241D
:104B9000E556FE4F1182108244E650E05383428373
:104BA000158214824CE055E05783468333E030870A
:104BB00061E0618792E092871386148615861686D7
:104BC0001786108A609368021092250210922402C0
:104BD000109227021092260264EF71E0709329026E
:104BE0006093280250932B0240932A0230932C02A8
:104BF00080932D0290932E0210922F028EEB8093C1
:104C0000300280933102809332028093330280938A
:104C10003402043001F5909368021092360210922B
:104C200035028AEF90E09093380280933702109219
:104C30003A021092390288EE93E090933C028093FE
:104C40003B0220933D0210923E0210923F020093DD
:104C5000400284E223C0013059F59093680210921B
:104C600036021092350280E991E0909338028093E9
:104C7000370288EE93E090933A0280933902909342
:104C80003C0280933B0220933D028FE080933E02E2
:104C900010923F0289E28093400284E080934102B7
:104CA0001092420210924302109244021092450266
:104CB00010916802FF24F394F10EF092680281E1F2
:104CC000B82EB19EF0011124EC5DFD4F11821082CF
:104CD00082EC91E09383828398EEC92E93E0D92EE3
:104CE000D582C4828FEE93E09783868328E0E22EFC
:104CF000E08682E3818782878387848783E0858754
:104D00001686178680E2808B023009F44CC00E9420
:104D10003E061E5F2F2D30E0882311F1013001F592
:104D200010936802B29EF001B39EF00D1124EC5D69
:104D3000FD4F1182108284EF91E093838283D582AC
:104D4000C48282EF93E097838683E08682E1818745
:104D500002878FEF83878487858780EF868721C0CE
:104D60001093680281E1829FF001839FF00D11246E
:104D7000EC5DFD4F1182108284EF91E0938382837A
:104D800088EE93E09583848382EF93E09783868314
:104D900088E080878FEF81878287838784878587F4
:104DA00016861786108A48EE53E050936A024093A5
:104DB000690210926C0210926B0224EF31E0309382
:104DC0006E0220936D0276E3C72E73E0D72ED09249
:104DD0007002C0926F0298E09093710263E060935A
:104DE000720271E0709373028AE080937402709390
:104DF00075028EEF809376021092770210927802FD
:104E000010927902B2E050937B0240937A02E2E37F
:104E1000F0E0F0937D02E0937C0230937F022093D8
:104E20007E02E4E2EE2EE3E0FE2EF0928102E092BA
:104E30008002909382027093830270938402B093F5
:104E400085021092860210928702109288021092B8
:104E5000890210928A0250938C0240938B02E4E6FE
:104E6000F0E0F0938E02E0938D0230939002209355
:104E70008F02E7E3F3E0F0939202E09391029093C4
:104E8000930286E08093940280E28093950280935F
:104E90009602A0E4A093970280939802A0939902AF
:104EA00080939A0210929B0250939D0240939C0221
:104EB00008EC10E010939F0200939E023093A10231
:104EC0002093A002D092A302C092A2029093A402C7
:104ED0006093A5027093A6020F2EF5E0DF2EF02D51
:104EE000D092A7026093A8026093A9021092AA022E
:104EF0001092AB021092AC025093AE024093AD02FE
:104F00000F2EF1EECF2ED12CF02DD092B002C09208
:104F1000AF023093B2022093B102F092B402E09259
:104F2000B3029093B5026093B6027093B702B09348
:104F3000B8021092B9021092BA021092BB021092FB
:104F4000BC021092BD025093BF024093BE020F2ECE
:104F5000FAEFEF2EF12CF02DF092C102E092C00298
:104F60003093C3022093C202F093C502E093C402BF
:104F70009093C6026894FF24F4F8F092C7020F2EB3
:104F8000FBE2FF2EF02DF092C8028093C9028093BD
:104F9000CA028093CB02A093CC028093CD0280936F
:104FA000CE025093D0024093CF020F2EF3E1EF2EAA
:104FB000FF24F394F02DF092D202E092D1023093CC
:104FC000D4022093D302F093D602E093D5029093BB
:104FD000D7020F2EF1E2FF2EF02DF092D80280932F
:104FE000D9020F2EFDE4AF2EF02DA092DA020F2E83
:104FF000F5E6BF2EF02DB092DB020F2EF2E7FF2E6A
:10500000F02DF092DC020F2EF3E6EF2EF02DE09261
:10501000DD02A093DE020F2EF5E7EF2EF02DE092D9
:10502000DF025093E1024093E0020F2EFCE2CF2E0C
:10503000DD24D394F02DD092E302C092E2023093AB
:10504000E5022093E402F093E702E093E6029093F6
:10505000E8020F2EF2E2EF2EF02DE092E902F0923C
:10506000EA020F2EF9E7DF2EF02DD092EB028093AB
:10507000EC028093ED028093EE028093EF02809326
:10508000F0025093F2024093F1020F2EF5E4CF2E7E
:10509000DD24D394F02DD092F402C092F302309329
:1050A000F6022093F502F093F802E093F702909352
:1050B000F9020F2EF3E2DF2EF02DD092FA02809348
:1050C000FB028093FC028093FD028093FE0280939A
:1050D000FF02A093000380930103509303034093C6
:1050E00002030F2EFEE5CF2EDD24D394F02DD092B7
:1050F0000503C09204033093070320930603F09343
:105100000903E093080390930A030F2EF4E2DF2EC5
:10511000F02DD0920B0380930C0380930D03A0928B
:105120000E030F2EF1E6DF2EF02DD0920F03F0923A
:1051300010030F2EF9E6DF2EF02DD09211030F2E63
:10514000FEE6DF2EF02DD09212035093140340930D
:1051500013030F2EF7E7CF2EDD24D394F02DD0923A
:105160001603C09215033093180320931703F0938E
:105170001A03E093190390931B030F2EF5E2DF2E21
:10518000F02DD0921C03B0921D03F0921E03809369
:105190001F03809320038093210380932203809335
:1051A00023030F2EFCE0FF2EF02DF09235035093D9
:1051B00025034093240340E951E050932703409393
:1051C00026033093290320932803F0932B03E093C5
:1051D0002A0390932C0326E220932D0380932E0321
:1051E00080932F03109230031092310310923203F8
:1051F0001092330310923403109237031092360347
:105200001092390310923803E8E8F3E1F0933B037E
:10521000E0933A0326E237E030933D0320933C03CA
:1052200090933E0360933F03E092400381E48093B8
:105230004103A0934203109243031092440310923F
:1052400045031092460310924803109247031093AF
:105250004A0300934903F0934C03E0934B033093CC
:105260004E0320934D0390934F0360935003E092BD
:10527000510380935203809353031092540310926E
:10528000550310925603109257031092590310922F
:10529000580350935B0340935A0340E157E2509305
:1052A0005D0340935C0330935F0320935E03909310
:1052B000600360936103E09262038093630380E67E
:1052C0008093640310926503109266031092670343
:1052D0001092680310926A031092690310926C0393
:1052E00010926B0310926E0310926D033093700353
:1052F00020936F0390937103B093720370937303C1
:105300001092740310927503109276031092770333
:10531000109278031092790380910201811149C0A3
:10532000B0938E0361E974E087E894E00E9445162B
:105330006BE874E089E994E00E94451665E874E042
:1053400083E994E00E94451668E774E08DE894E0F4
:105350000E9445168EE080938D0310928F0306E025
:1053600080918F038430D0F465E774E0CE0101961C
:105370000E94EE1610918F03019FC0011124BE01FF
:105380006F5F7F4F8B529B4F0E94A516CE010196F7
:105390000E94BC161F5F10938F03E2CF41EAA42E38
:1053A00045E0B42E50ECE52E55E0F52E60E4C62E17
:1053B000FEC060938E0361E774E087E894E00E948A
:1053C00045166DE674E089E994E00E94451669E6A9
:1053D00074E083E994E00E9445166EE574E08DE880
:1053E00094E00E944516F0928D0310928F0306E020
:1053F00080918F03843090F66AE574E0CE010196C7
:105400000E94EE1610918F03019FC0011124BE016E
:105410006F5F7F4F8B529B4F0E94A516CE01019666
:105420000E94BC161F5F10938F03E2CFF501849199
:10543000F701249190E0880F991F8C589A4FFC0136
:10544000A591B4918C91282321F461E081E10E941F
:10545000961E61E081E10E94F91E8CB580618CBDD1
:105460008CB580648CBD61E08FE00E94F91E61E024
:1054700080E10E94F91E809191038F5F80939103D8
:10548000DFBE60E0809185040E94961E80EC0E9441
:10549000C61C61E0809185040E94961E6AE070E05F
:1054A00080E090E00E94351FC092860480E80E9450
:1054B0005213811172C061E08AE20E942C1261EBEA
:1054C00089E20E942C1265E088E20E942C1220E002
:1054D00030E0A90161E080E20E94641320E030E046
:1054E000A90161E084E20E94641320E030E0A90198
:1054F00061E080E00E94641320E030E0A90160E0F8
:1055000084E00E94641320E030E0A90161E088E0BB
:105510000E94641320E030E0A90160E080E10E9475
:10552000641320E030E0A90161E084E10E9464138B
:1055300020E030E0A90160E088E10E94641310E3FC
:1055400060E0812F0E942C1260E080E1810F0E94B8
:105550002C1260E080E2810F0E942C121F5F1E332C
:1055600079F760E080E60E942C1260E080E70E94FC
:105570002C1263E08BE20E942C1244E064E680E689
:105580000E94F91140E060E680E70E94F9118091E5
:1055900086040E945213882391F089E494E00E94CB
:1055A000501064E670E080E090E00E94351FDFB6A6
:1055B000F89480919103882309F438CF5CCF82E579
:1055C00094E00E9450100E94CB0580E480938604F2
:1055D0000E9452131092920380E80E94521381118C
:1055E0000CC020E030E04FEF57E060E080E20E9426
:1055F0006413809186040E94521380E80E94521323
:1056000081110CC020E030E04FEF57E060E084E211
:105610000E946413809186040E94521310928F039B
:1056200010918F03153058F440E050E063E274E0CD
:10563000812F0E94A3131F5F10938F03F1CF81E08E
:105640008093920340E050E063E274E080E00E94C7
:10565000A313809103018823B1F08091070188236F
:1056600041F082E08093920340E050E06EE277E008
:1056700007C082E08093920340E050E065EB73E066
:1056800081E00E94A31380910101882331F00E94E0
:10569000671181110EC0109201018091920391E077
:1056A000980F9093920340E050E066E674E00E9409
:1056B000A3131092860480E00E94521310928C0370
:1056C00010928B0364EF71E080E090E00E94351F40
:1056D00000E010E00E94490601151105D9F30E946F
:1056E0000000F8CFCF93DF9310921C0410921B049C
:1056F00088EE93E0A0E0B0E080931D0490931E0438
:10570000A0931F04B09320042DE231E030931A04DB
:10571000209319042FEF3FEF3093260420932504A4
:1057200010926C0410926B0480936D0490936E043D
:10573000A0936F04B09370048FE391E090936A0498
:1057400080936904C5EDD4E0CE010E94DD05269664
:1057500084E0CD3ED807C1F78FEC94E00E94DD05D0
:1057600089EC94E00E94DD0583EC94E00E94DD0565
:105770008DEB94E00E94DD0587EB94E00E94DD054F
:1057800081EB94E00E94DD058BEA94E00E94DD0548
:1057900085EA94E00E94DD058FE994E00E94DD0532
:1057A00064E971E089E994E00E94001764E971E01E
:1057B00083E994E00E94001764E971E08DE894E0C9
:1057C0000E94001764E971E087E894E00E940017E6
:1057D0008AE08093850461E00E94F91E61E0809177
:1057E0008504DF91CF910C94961E87E894E00E9487
:1057F000BC168DE894E00E94BC1683E994E00E94F8
:10580000BC1689E994E00E94BC168FE994E00E94DE
:10581000BC1685EA94E00E94BC168BEA94E00E94D4
:10582000BC1681EB94E00E94BC1687EB94E00E94CA
:10583000BC168DEB94E00E94BC1683EC94E00E94B1
:10584000BC1689EC94E00E94BC168FEC94E00E9498
:10585000BC1687EE94E00E94BC1681EE94E00E9494
:10586000BC168BED94E00E94BC1685ED94E00C9480
:10587000BC16991B79E004C0991F961708F0961B77
:10588000881F7A95C9F780950895AA1BBB1B51E123
:1058900007C0AA1FBB1FA617B70710F0A61BB70BA0
:1058A000881F991F5A95A9F780959095BC01CD0145
:1058B000089597FB072E16F4009407D077FD09D0C2
:1058C0000E94452C07FC05D03EF4909581959F4F92
:1058D0000895709561957F4F0895EE0FFF1F059015
:1058E000F491E02D09945058BB27AA270E948B2CD5
:1058F0000C94C9330E94BB3338F00E94C23320F0AD
:1059000039F49F3F19F426F40C94B8330EF4E09563
:10591000E7FB0C94B233E92F0E94DA3358F3BA173D
:10592000620773078407950720F079F4A6F50C94B5
:10593000FC330EF4E0950B2EBA2FA02D0B01B9010C
:1059400090010C01CA01A0011124FF27591B99F0F5
:10595000593F50F4503E68F11A16F040A22F232F01
:10596000342F4427585FF3CF469537952795A79551
:10597000F0405395C9F77EF41F16BA0B620B730BF8
:10598000840BBAF09150A1F0FF0FBB1F661F771F69
:10599000881FC2F70EC0BA0F621F731F841F48F41E
:1059A000879577956795B795F7959E3F08F0B0CFA7
:1059B0009395880F08F09927EE0F9795879508958E
:1059C0000E94F42C0C94C9330E94C23358F00E94F8
:1059D000BB3340F029F45F3F29F00C94B2335111EE
:1059E0000C94FD330C94B8330E94DA3368F3992396
:1059F000B1F3552391F3951B550BBB27AA276217CB
:105A00007307840738F09F5F5F4F220F331F441FD7
:105A1000AA1FA9F335D00E2E3AF0E0E832D091500B
:105A20005040E695001CCAF72BD0FE2F29D0660FF8
:105A3000771F881FBB1F261737074807AB07B0E83B
:105A400009F0BB0B802DBF01FF2793585F4F3AF041
:105A50009E3F510578F00C94B2330C94FD335F3FB8
:105A6000E4F3983ED4F3869577956795B795F795C7
:105A70009F5FC9F7880F911D9695879597F90895AF
:105A8000E1E0660F771F881FBB1F6217730784074B
:105A9000BA0720F0621B730B840BBA0BEE1F88F75A
:105AA000E09508950E94592D6894B1110C94FD332E
:105AB00008950E94E23388F09F5798F0B92F9927F4
:105AC000B751B0F0E1F0660F771F881F991F1AF0E9
:105AD000BA95C9F714C0B13091F00E94FC33B1E01F
