:100000000C94FB010C9496110C946F110C944811F4
:100010000C9421110C9423020C9423020C94FA10DA
:100020000C9423020C9423020C94C7110C94A1127B
:100030000C9423020C9423020C9423020C942302AC
:100040000C9423020C9423020C9423020C9423029C
:100050000C9423020C9423020C9423020C94CC1FC6
:100060000C9423020C9423020C9423020C9423027C
:100070000C9423020C9423020C9423020C9423026C
:100080000C9423020C9423020C9423020C9423025C
:100090000C94180E0C9423020C9423020C9423024B
:1000A0000C9423020C9423020C942302551E581E18
:1000B000471E4B1E4F1E791E791E791E5C1E601E48
:1000C000641E6A1E6E1E791E741E00407A10F35A5A
:1000D00000A0724E18090010A5D4E80000E8764888
:1000E000170000E40B54020000CA9A3B000000E134
:1000F000F505000080969800000040420F000000C7
:10010000A08601000000102700000000E8030000A6
:1001100000006400000000000A0000000000010070
:10012000000000002C76D888DC674F0823DFC1DF91
:10013000AE59E1B1B796E5E3E453C63AE651997694
:1001400096E8E6C28426EB898C9B62ED407C6FFCCE
:10015000EFBC9C9F40F2BAA56FA5F490055A2AF710
:100160005C936B6CF9676DC11BFCE0E40D47FEF519
:1001700020E6B500D0ED902E030094357705008081
:10018000841E080000204E0A000000C80C333333E0
:10019000330F986E12831141EF8D2114893BE65580
:1001A00016CFFEE6DB18D1844B381BF77C1D901D63
:1001B000A4BBE424203284725E228100C9F124ECC5
:1001C000A1E53D272000200020453A0020543A00B8
:1001D00020453A0020453A003A0000000000002D7A
:1001E0002D00202020002020202020202020543AF4
:1001F0000020533A0020523A004C4F570020200074
:1002000020202020202020202020543A002053505D
:10021000443A002052504D3A004C4F001C1005004B
:10022000DF60DDD88945C74C9CD2659D9E648A9F5E
:1002300000000306B2000200050F39000218100585
:100240000038B60834A909A0478BFDA0768815B6FA
:10025000650001018400040007002A0044006500D5
:10026000760069006300650049006E007400650057
:100270007200660061006300650047005500490098
:1002800044007300000050007B0039003700350047
:10029000460034003400440039002D003000440092
:1002A000300038002D0034003300460044002D009B
:1002B00038004200330045002D0031003200370085
:1002C0004300410038004100460046004600390026
:1002D00044007D000000000000A00014000300574F
:1002E000494E555342000000000000000000000A83
:1002F00000000000000306B200080001000000A892
:100300000008000200080B000202020100090400BC
:100310000001020200000524001001052401010172
:10032000042402060524060001070581031000408D
:1003300009040100020A0000000705020240000053
:10034000070583024000000403090412010002EFC4
:100350000201404F1B06920001010203015370612C
:10036000726B46756E00537061726B46756E2050ED
:10037000726F204D6963726F00000000000024005E
:1003800027002A002D003000000000002500280072
:100390002B002E00310004040404040304050202AF
:1003A000020204030202020206060606060604040E
:1003B00002020204040408020110408040102040A0
:1003C000804080080204018040201002011080104B
:1003D000204040200000000200090F00000304013B
:1003E000000C000000000000000000000000000001
:1003F0000000F628B22811241FBECFEFDAE0DEBFDE
:10040000CDBF26E0AAEDB1E001C01D92AE3FB2071C
:10041000E1F711E0A0E0B1E0EEECF2E602C00590F9
:100420000D92AA3DB107D9F711E0CAEFD1E004C09F
:100430002197FE010E943E2EC93FD107C9F70E94B5
:1004400016200C945A310C940000BF92CF92DF9288
:10045000EF92FF920F931F93CF93DF93CDB7DEB749
:10046000C054D1090FB6F894DEBF0FBECDBF809146
:10047000DA01882369F01092DA0107E41FE0B1E1A4
:10048000FB2E86E0E82E0E943D1F837009F07BC49E
:100490000E948B188091E101882309F4B5C78091EF
:1004A0000501882309F476C080910801813009F4A0
:1004B00071C00E94F915E62F29833A834B835C8330
:1004C0006D837E838F8360910801852F0E940A2EA1
:1004D0009093DF01E093DE01692FCE0183960E94A5
:1004E000F01DBE016D5D7F4F89E495E00E94B7105D
:1004F000CE0183960E94CE106091DE01CE018396DC
:100500000E94F01DBE016D5D7F4F83E495E00E9467
:10051000B710CE0183960E94CE1063E475E0CE0141
:100520008F960E94E71769E475E0CE0183960E94DA
:10053000E717BE016D5D7F4FCE0189960E94DC10EA
:1005400068ED71E0CE0189960E94F20FBE01615DF7
:100550007F4F0E942410BC01CE01C5960E94DC1082
:10056000BE016B5C7F4F8DE395E00E94B710CE011A
:10057000C5960E94CE10CE0189960E94CE10CE0163
:1005800083960E94CE10CE018F960E94CE1081E0FD
:100590008093E0010BE712E0C12CD12C8AE0B82E49
:1005A0008091BF0290E0E090E203F090E303C81670
:1005B000D90608F04DC0F80180819181E816F9064E
:1005C00020F48091000181113DC0F80164817581A2
:1005D000C7010E94162E228133818217930791F55D
:1005E00080910301813071F40E94DA19882351F05F
:1005F000F80186819781823F934021F48091E00148
:100600008111ECC68091DC019091DD01E816F906BC
:1006100031F46CE070E080E090E00E94921FF801FD
:100620006681778180E090E09801275F3F4F4085A9
:100630000E94781C8091E2039091E3039093DD0186
:100640008093DC01FFEFCF1ADF0A0F5E1F4FA8CFA8
:10065000E0910101E370E09301010E2F10E021E130
:10066000E29FF0011124E357FC4F80819181E8164D
:10067000F90620F480910001811139C081E1809F49
:10068000F001819FF00D1124E357FC4F64817581C7
:10069000C7010E94162E228133818217930739F5F4
:1006A0008091DC019091DD01E816F90631F46CE0EF
:1006B00070E080E090E00E94921F81E1809FF00155
:1006C000819FF00D11249F012A563C4FE357FC4FA8
:1006D0006681778180E090E040850E94781C80915F
:1006E000E2039091E3039093DD018093DC0120917C
:1006F000DB018091E2039091E303422F50E031E16E
:10070000239FF0011124E054FD4F60817181861711
:10071000970720F43091000131111AC331E1349F61
:10072000F001359FF00D1124E054FD4F6481758177
:100730000E94162E428153818417950709F008C341
:100740002111D8C280910301823009F44BC108F015
:10075000A3C0813009F0CEC243E06BE575E0CE0165
:1007600001960E94AE1ABE016F5F7F4F80E00E942B
:100770006A19CE0101960E94CE104091E60363E70C
:1007800075E0CE01C5960E94AE1A43E065E575E0BE
:10079000CE018F960E94AE1A44E061E675E0CE016C
:1007A00089960E94AE1A4091E6036DE675E0CE018F
:1007B00001960E94AE1ABE016F5F7F4FCE018396F5
:1007C0000E94DC1061E375E0CE0183960E94241044
:1007D000BE01675D7F4F0E94241064ED71E00E94AE
:1007E000F20FBE01615D7F4F0E9424100E94F4163B
:1007F000BE016B5C7F4F0E942410BC01CE01CB96E2
:100800000E94DC10BE01655C7F4F81E00E946A1986
:10081000CE01CB960E94CE10CE0183960E94CE10C0
:10082000CE0101960E94CE10CE0189960E94CE1074
:10083000CE018F960E94CE10CE01C5960E94CE109A
:100840004091E6036FE775E0CE018F960E94AE1AE5
:1008500043E06FE475E0CE0189960E94AE1A4091A4
:10086000E60369E775E0CE0101960E94AE1ABE016B
:100870006F5F7F4FCE0183960E94DC1065E275E0CA
:10088000CE0183960E942410BE01675D7F4F0E94B7
:1008900024100E94F416E3C1833009F442C184306D
:1008A00009F028C24091E60363E775E0CE01C596E2
:1008B0000E94AE1A43E065E575E0CE018F960E9476
:1008C000AE1A44E061E675E0CE0189960E94AE1A48
:1008D0004091E6036DE675E0CE0101960E94AE1AE6
:1008E000BE016F5F7F4FCE0183960E94DC1061E3F3
:1008F00075E0CE0183960E942410BE01675D7F4F94
:100900000E94241068EC71E00E94F20FBE01615D4C
:100910007F4F0E9424100E94F416BE016B5C7F4F33
:100920000E942410BC01CE01CB960E94DC10BE01B7
:10093000655C7F4F81E00E946A19CE01CB960E94D0
:10094000CE10CE0183960E94CE10CE0101960E9459
:10095000CE10CE0189960E94CE10CE018F960E94B5
:10096000CE10CE01C5960E94CE104091E6036FE7EF
:1009700075E0CE01C5960E94AE1A6DE375E0CE011A
:100980008F960E94DC1044E06BE575E0CE018996FD
:100990000E94AE1A4091E60369E775E0CE01019628
:1009A0000E94AE1ABE016F5F7F4FCE0183960E94F8
:1009B000DC106BE275E0CE0183960E942410BE012C
:1009C000675D7F4F0E94241066EC71E00E94F20F79
:1009D000BE01615D7F4F0E94241064EC71E00E94B3
:1009E000F20F60C14091E60363E775E0CE01C59662
:1009F0000E94AE1A43E065E575E0CE018F960E9435
:100A0000AE1A44E061E675E0CE0189960E94AE1A06
:100A10004091E6036DE675E0CE0101960E94AE1AA4
:100A2000BE016F5F7F4FCE0183960E94DC1061E3B1
:100A300075E0CE0183960E942410BE01675D7F4F52
:100A40000E94241060ED71E00E94F20FBE01615D12
:100A50007F4F0E9424100E94F416BE016B5C7F4FF2
:100A60000E942410BC01CE01CB960E94DC10BE0176
:100A7000655C7F4F81E00E946A19CE01CB960E948F
:100A8000CE10CE0183960E94CE10CE0101960E9418
:100A9000CE10CE0189960E94CE10CE018F960E9474
:100AA000CE10CE01C5960E94CE104091E6036FE7AE
:100AB00075E0CE01C5960E94AE1A43E06FE475E082
:100AC000CE018F960E94AE1A44E06BE575E0CE0130
:100AD00089960E94AE1A4091E60369E775E0CE015F
:100AE00001960E94AE1ABE016F5F7F4FCE018396C2
:100AF0000E94DC106BE275E0CE0183960E94241008
:100B0000BE01675D7F4F0E9424106CEC71E00E9473
:100B1000F20FBE01615D7F4F0E9424100E94F41607
:100B2000C1C043E065E575E0CE0183960E94AE1A30
:100B30006FE871E0CE0101960E94E510BE016D5D87
:100B40007F4FCE0101960E942410BC01CE018996F0
:100B50000E94DC10BE01675D7F4F87E395E00E9435
:100B6000B710CE0189960E94CE10CE0101960E9448
:100B7000CE10CE0183960E94CE104091E60363E72B
:100B800075E0CE018F960E94AE1A4091E5034E5F4C
:100B90006DE375E0CE0189960E94241B4091E60327
:100BA0006DE675E0CE0101960E94AE1ABE016F5F40
:100BB0007F4FCE0183960E94DC10BE01675D7F4FA0
:100BC000CE0183960E942410BE01615D7F4F0E947A
:100BD0002410BC01CE01C5960E94DC10BE016B5CE6
:100BE0007F4F81E00E946A19CE01C5960E94CE1007
:100BF000CE0183960E94CE10CE0101960E94CE10A7
:100C0000CE0189960E94CE10CE018F960E94CE1002
:100C10004091E60363E775E0CE018F960E94AE1A1D
:100C20004091E5034E5F67E375E0CE0189960E942F
:100C3000241B4091E6036DE675E0CE0101960E940B
:100C4000AE1ABE016F5F7F4FCE0183960E94DC100B
:100C5000BE01675D7F4FCE0183960E942410BE01C6
:100C6000615D7F4F0E942410BC01CE01C5960E9499
:100C7000DC10BE016B5C7F4F82E00E946A19CE01DE
:100C8000C5960E94CE10CE0183960E94CE10CE0152
:100C900001960E94CE10CE0189960E94CE10CE0100
:100CA0008F9626C0BE016B5C7F4F0E942410BC0152
:100CB000CE01CB960E94DC10BE01655C7F4F82E0C6
:100CC0000E946A19CE01CB960E94CE10CE01839667
:100CD0000E94CE10CE0101960E94CE10CE018996C0
:100CE0000E94CE10CE018F960E94CE10CE01C596E6
:100CF0000E94CE102091DC013091DD018091E20351
:100D00009091E3032817390731F46CE070E080E03C
:100D100090E00E94921FE091DB010E2F10E081E134
:100D2000E89FF00111249F0127533D4FE054FD4FF0
:100D30006681778180E090E040850E94781CC80140
:100D4000019660918C0370E00E942A2E8093DB0153
:100D500069E170E080E090E00E94921F8091E203E0
:100D60009091E30349968115EDE79E0728F490934F
:100D7000E3038093E20348C31092E3031092E2037B
:100D80001092000141C30E943D1F80FF06C081E612
:100D90000E94BB1E40E061E007C081FF0AC081E7FE
:100DA0000E94BB1E40E062E08CE20E94351780E0AA
:100DB00001C084E090910D05992389F040910E05C2
:100DC00050910F0560911005709111057068409366
:100DD0000E0550930F0560931005709311059091C7
:100DE0001B05992389F040910E0550910F056091E4
:100DF000100570911105706440930E0550930F0516
:100E00006093100570931105811125C080910E0526
:100E100090910F05A0911005B09111058093EB0101
:100E20009093EC01A093ED01B093EE012091120597
:100E30002093EA01A3E1B5E0E2EEF1E080E090E08A
:100E400030E0821793074CF48830910531F04D91D2
:100E500041930196F6CF1092EA018091EB019091B7
:100E6000EC01A091ED01B091EE01833224E09207F4
:100E7000A105B10509F41DC130F4853B9340A105DE
:100E8000B10571F000CB8636F4E09F07A105B105EE
:100E900009F471C28E329740A105B10579F1F3CA08
:100EA00080910901882309F4EECA80910A01811119
:100EB000EACA1092E403E091E403E43008F0E3CAE4
:100EC000F0E0EE51FE4F6081CE0101960E94921B30
:100ED0008091E403E89EC0011124BE016F5F7F4F43
:100EE00083599A4F0E94FB1ACE0101960E94CE10A0
:100EF0008091E4038F5F8093E403DDCF809109014B
:100F0000882309F494C080910A01882309F48FC0D2
:100F10008091E201873009F08AC08091E301823636
:100F200009F085C08091E401813409F080C080918E
:100F3000E501803429F0813409F079C082E03CC0B9
:100F40001092E403E091E403E230A0F5F0E0EE0F4C
:100F5000FF1FEA51FE4F608170E0762F6627818186
:100F6000680F711D072E000C880B990B0E949D2C99
:100F70002DEC3CEC4CE45DE30E94FC2C0E942A2FFB
:100F8000CE0101960E94921B8091E403E89EC0016D
:100F90001124BE016F5F7F4F83599A4F0E94FB1A45
:100FA000CE0101960E94CE108091E4038F5F809362
:100FB000E403C8CF81E039C08093E403E091E40307
:100FC000E43090F5F0E0EE0FFF1FEE51FE4F608130
:100FD00070E0762F66278181680F711D072E000C47
:100FE000880B990B0E949D2C2DEC3CEC4CE45DE3AE
:100FF0000E94FC2C0E942A2FCE0101960E94921B77
:101000008091E403E89EC0011124BE016F5F7F4F11
:1010100083599A4F0E94FB1ACE0101960E94CE106E
:101020008091E4038F5FC8CF82E0809301018091BB
:101030000901882309F427CA80910A01882309F449
:1010400022CA8091E201863009F01DCA8091E30135
:10105000823609F018CA8091E401813409F013CA7C
:101060008091E501803609F00ECA6091E6016623A1
:1010700061F0CE0101960E94E519BE016F5F7F4FBE
:101080008FE495E00E94FB1A0DC06FED71E0CE0178
:1010900001960E94D310BE016F5F7F4F8FE495E0F1
:1010A0000E94B710CE0101960E94CE10109201014D
:1010B000EAC96091E40170E0762F66278091E5012E
:1010C000680F711D6D3F3FEF7307ACF077FF02C0F3
:1010D0006D5F7F4F7595679575956795072E000C29
:1010E000880B990B0E949D2C20E030E040E05FE3EC
:1010F0000E94452E14C077FF02C06D5F7F4F75952B
:10110000679575956795072E000C880B990B0E94C3
:101110009D2C20E030E040E05FE30E94442E0E94DE
:10112000232FCB011CA21BA21EA21DA218A61FA228
:101130004AE0BE016F5F7F4F0E94362ABE016F5F9B
:101140007F4FCE0183960E94A010BE016D5D7F4F40
:1011500081E695E00E94B710CE0183960E94CE10E2
:101160001CA21BA21EA21DA218A61FA21982BE01AC
:101170006F5F7F4FCE0183960E94A010BE016D5D10
:101180007F4F8BE595E00E94B710CE0183960E94B9
:10119000CE106091E601CE0101960E94E519BE01D4
:1011A0006F5F7F4F85E595E00E94FB1ACE010196A7
:1011B0000E94CE108091E101882309F45EC08091E5
:1011C000E2018F3F09F059C01092E1011092E00155
:1011D0006EED71E0CE0101960E94D310BE016F5FEB
:1011E0007F4F8BE595E00E94B710CE0101960E94DB
:1011F000CE106DED71E0CE0101960E94D310BE01BC
:101200006F5F7F4F81E695E00E94B710CE01019697
:101210000E94CE106CED71E0CE0101960E94D310B9
:10122000BE016F5F7F4F85E595E00E94B710CE014C
:1012300001960E94CE106BED71E0CE0101960E94E6
:10124000D310BE016F5F7F4F8FE495E00E94B7100F
:10125000CE0101960E94CE106AED71E0CE0101969A
:101260000E94D310BE016F5F7F4F87E695E00E941A
:10127000B710CE0101960E94CE108091E10181113C
:1012800002C98091E2018F3F09F4FDC881E080939B
:10129000E10160E087E00E94561FEE9810932E0156
:1012A00000932D0168EE73E080E090E00E94921FB1
:1012B0001092E3031092E2031092E403E091E4033E
:1012C00080917A02E81798F5FE9EF00111249F01A3
:1012D00025503E4FEE50FE4F6681778180E090E0D2
:1012E00040850E94781CE091E403FE9EF0011124E9
:1012F000EE50FE4F6281738180E090E00E94921F69
:101300008091E403F89EF0011124EE50FE4F4091CD
:10131000E2035091E30322813381240F351F309380
:10132000E3032093E2038F5F8093E403C7CF10921F
:10133000E3031092E20381E0809300011092DB014D
:1013400080910A01882371F06091C6037091C703F0
:1013500080E090E029EC33E04091C8030E94781CC3
:10136000109201010E94581964EF71E080E090E052
:101370000E94921F88C880910501811184C86091E4
:101380000801613009F47FC88091E2018695869555
:10139000869590E02091060130E0409107014111CF
:1013A00003C04FEF5FEF02C041E050E0429FF00109
:1013B000439FF00D529FF00D11248E0F9F1F70E080
:1013C0000E942A2E8093DF018091E3018695869505
:1013D0008093DE0181E08093E00155C88091DF01B8
:1013E0006B2D0E940A2EF0E18F9F900D1124F801C1
:1013F00091878091DE010E940A2EF0E18F9F900D6F
:101400001124F8019287FEC8C05CDF4F0FB6F89434
:10141000DEBF0FBECDBFDF91CF911F910F91FF9027
:10142000EF90DF90CF90BF9008952FB7F89487701A
:101430008093E9009091E800892F807295FF04C0A5
:101440009091F20080E4891B2FBF0895CF93DF9322
:101450001F92CDB7DEB79091F101911103C08FEFCC
:101460009FEF2AC03FB7F89487708093E90080917E
:10147000F20090E01816190614F481E090E0282F8D
:10148000FE01319644E6215038F0289840933C0400
:101490005091F1005193F7CF009721F02091F20085
:1014A000222331F03FBF0197D1F6898190E004C03B
:1014B0002BE62093E800F6CF0F90DF91CF910895AF
:1014C0009FB7F89487708093E9008091F2009FBFE6
:1014D0000895CF92DF92EF92FF920F931F93CF93D5
:1014E000DF936C017A018B01C0E0D0E0CE15DF05FF
:1014F00081F0D8016D918D01D601ED91FC910190A3
:10150000F081E02DC6010995892B11F02196EECFCF
:101510007E01C701DF91CF911F910F91FF90EF9056
:10152000DF90CF900895CF93DF931F92CDB7DEB7B2
:101530006983DC01ED91FC910280F381E02D41E0B3
:1015400050E0BE016F5F7F4F09950F90DF91CF9103
:10155000089583E00E94150A90E00895FC018485B7
:10156000958597FD05C02FEF3FEF358724870895B8
:1015700082E00C94260ACF93DF93EC018C859D8545
:1015800097FF05C082E00E94260A9D878C878C8584
:101590009D85DF91CF910895FC018485958597FD08
:1015A00006C082E00E94600A90E00196089582E001
:1015B0000E94600A90E00895FC0182818F5BFB012C
:1015C000808381E0089585ED8093BC008091BC000C
:1015D00084FDFCCF10928C04089540910904262FBD
:1015E00030E0240F311D21323105DCF420918C04D0
:1015F0002430C9F4FC0180E090E0861758F4309163
:1016000009042191DC01A751BC4FA30FB11D2C93FC
:101610000196F3CF80910904680F6093090480E07C
:10162000089581E0089582E0089508950895089549
:10163000E091440480914304E81730F4F0E0EB5B60
:10164000FB4F808190E008958FEF9FEF0895909178
:10165000440480914304981750F4E92FF0E0EB5BC9
:10166000FB4F208130E09F5F9093440402C02FEF36
:101670003FEFC90108958091430490E02091440414
:10168000821B91090895CF92DF92EF92FF920F9300
:101690001F93CF93DF937C01CB018A0120918D04AE
:1016A000222389F0EB016B01C40ED51ECC15DD059C
:1016B00069F06991D701ED91FC910190F081E02DE5
:1016C000C7010995F3CF642F0E94ED0AC801DF918D
:1016D000CF911F910F91FF90EF90DF90CF900895E1
:1016E000CF93DF931F92CDB7DEB7698320918D042E
:1016F0002223D1F02091B004203240F021E030E0EC
:10170000FC013383228380E090E015C080918E0439
:10171000E82FF0E0E157FB4F998190838F5F809332
:101720008E048093B00405C061E0CE0101960E9452
:10173000ED0A81E090E00F90DF91CF91089580E075
:1017400090E008957F928F929F92AF92BF92CF9236
:10175000DF92EF92FF920F931F93CF93DF93C82EE8
:101760008B017A018091F101811103C08FEF9FEF0E
:1017700074C08091EF0180FF05C08091E00082601D
:101780008093E000CE2DDF2DD12C8AEFB82E8C2D4A
:101790008770982E8C2D8072882E8C2D8074782ED8
:1017A0009AE3A92E209719F4DD2009F451C08C2D5D
:1017B0000E94150A81110AC0BA94BB20B9F261E0F7
:1017C00070E080E090E00E94921FECCF282F30E084
:1017D000C217D3070CF48C2F9FB7F8949092E900AE
:1017E0002091E80025FF32C0282F30E0C21BD30B28
:1017F000882029F08150A0F01092F100FBCFF80171
:10180000C7FE0AC0815050F044914093F1003196D8
:10181000F9CF41914093F1008150D8F7020F131F87
:10182000DD2019F0A092E8000AC08091E80085FD53
:1018300008C0A092E800DD24D394209739F0D12C81
:1018400005C0209719F47110A092E8009FBFAACF9D
:101850005D9884E680933D04C701DF91CF911F918D
:101860000F91FF90EF90DF90CF90BF90AF909F903F
:101870008F907F900895CF93DF93EC0180912401A6
:10188000882331F083E00E94A20B1816190634F069
:1018900081E090E09B838A8380E090E0DF91CF91AC
:1018A000089583E00C94BD110F931F93CF93DF93A2
:1018B0001F92CDB7DEB7FB0123812F30A1F5228126
:1018C000211131C024813581232B69F58C014CE134
:1018D00050E068E372E080E80E94481297FF03C07E
:1018E0008FEF9FEF22C0F801EF59FF4F81E0208179
:1018F0003181232B09F480E0898341E050E0BE016F
:101900006F5F7F4F80E00E94481297FDE9CF4CE166
:1019100050E06CE172E080E80E94481297FDE0CF51
:1019200089E390E002C080E090E00F90DF91CF91DA
:101930001F910F910895CF93DF93CDB7DEB76797CF
:101940000FB6F894DEBF0FBECDBFFC01DB019C914A
:101950009F5F9C93BE016F5F7F4F87E1DB011D920C
:101960008A95E9F789E0898384E08A8392E09D8300
:101970008FEF8E8347E04A8785E08B879D8720E441
:1019800030E03F872E87498B8A8B9C8B3E8B2D8B3B
:1019900082818B8383818C878F5F80688B8B47E10B
:1019A00050E080E00E94481267960FB6F894DEBFC0
:1019B0000FBECDBFDF91CF910895CF92DF92EF920E
:1019C000FF920F931F93CF93DF9300D0CDB7DEB775
:1019D0008C01FB0181819081292F2076203291F5A5
:1019E000D80112962C9130E0448155812417350797
:1019F00009F040C0913A39F48132E1F547E050E016
:101A000061E171E069C09132A9F5833269F48281A4
:101A10009381A0E0B0E080930D0190930E01A0931C
:101A20000F01B093100189C0803229F481E191E067
:101A30000E941D1E82C0823209F07FC08281809385
:101A400018017BC02034B1F4903CA1F4813009F03E
:101A500045C084819581029769F46801B1E6CB0E97
:101A6000D11CD6012D913C912115310519F08281AF
:101A7000813011F080E062C0F90101900020E9F7A7
:101A800031977F01E21AF30A83E08E0D8A8341E0E9
:101A900050E0BE016E5F7F4F80E00E94481297FDCC
:101AA000E9CF83E0898341E050E0BE016F5F7F4F63
:101AB00080E00E94481297FDDDCFB801605A7F4F49
:101AC00041E050E080E00E94481297FDD3CFA7018B
:101AD0005527F6016081718180E027C0823051F680
:101AE00084819581079731F646E150E06FEE72E010
:101AF00080E80E94481297FDBDCFB8016E5F7F4F0E
:101B000041E050E080E00E94481297FDB3CF47E1EA
:101B100050E068ED72E080E80E94481297FDAACF7D
:101B200044E850E064E572E080E80E944812909535
:101B3000892F881F8827881F01C081E00F900F9090
:101B4000DF91CF911F910F91FF90EF90DF90CF9099
:101B50000895CF93DF939B018D599F4FFC016081C6
:101B60007181FB0101900020E9F73197EF01C61B5D
:101B7000D70BAE015527C9010E944A318C2FDF9146
:101B8000CF91089540913A0450913B04209138043C
:101B90003091390442175307B4F49091E8009570DE
:101BA000E1F39091E80092FD19C08093F1008091DB
:101BB0003A0490913B0401968F739927892B19F46D
:101BC0008EEF8093E80080913A0490913B04019657
:101BD00090933B0480933A0481E0089580E0089557
:101BE000615030F02091F100FC0120830196F8CF84
:101BF000289884E680933C040895809130048111F4
:101C00000DC082E080932C0484E080932D04109218
:101C10002F0410922E0481E0809330048CE294E033
:101C200008958EBD00000DB407FEFDCF8EB508955A
:101C30001F920F920FB60F9211242F933F934F9341
:101C40005F936F937F938F939F93AF93BF93EF9324
:101C5000FF938091B900887F803609F49CC068F5B5
:101C6000883209F45BC090F4803109F454C038F430
:101C7000882309F4F6C0883009F44DC0F6C08831D5
:101C800009F44CC0803209F45DC0EFC0803409F41F
:101C900068C048F4803309F455C0883309F0E5C0C2
:101CA00080938A04D8C0803509F44FC0883509F480
:101CB0005DC0883409F0D9C0D6C0883909F4C7C0DE
:101CC000A8F4883709F467C038F4883609F463C08B
:101CD000803709F460C0C9C0883809F4B8C08039B9
:101CE00009F45FC0803809F0C0C05BC0803B09F4D4
:101CF00086C038F4803A09F466C0883A09F47FC097
:101D0000B4C0803C09F4A7C0883C09F4A4C0883B57
:101D100009F48AC0AAC08091670410C09091890418
:101D200080918804981770F5E091890481E08E0F06
:101D300080938904F0E0E859FB4F80818093BB00D9
:101D400085EC86C080938A048EC0E091890481E08E
:101D50008E0F809389048091BB00F0E0E859FB4F1F
:101D6000808390918904809188046EC0E0918904F9
:101D700081E08E0F809389048091BB00F0E0E859E8
:101D8000FB4F808380918B0481116DC081E0809333
:101D9000660484EA61C083E080938C0410922B0473
:101DA000CFCF80912B04803208F051C0E0912B04FA
:101DB00081E08E0F80932B048091BB00F0E0E55F03
:101DC000FB4F8083BDCF85EC8093BC0010928C04C8
:101DD00080912B04803230F4E0912B04F0E0E55F39
:101DE000FB4F108260912B0470E0E0913F04F09172
:101DF00040048BE094E0099510922B0436C084E0F7
:101E000080938C0410920A0410920904E09141041A
:101E1000F0914204099580910904811105C081E087
:101E2000809309041092E903E0910A0481E08E0F87
:101E300080930A04F0E0E751FC4F80818093BB005F
:101E400090910A0480910904981708F479CF85E8E5
:101E50008093BC000AC085EC8093BC0010928C0477
:101E600004C010928A040E94E30AFF91EF91BF918F
:101E7000AF919F918F917F916F915F914F913F9122
:101E80002F910F900FBE0F901F90189508950895F1
:101E90000E944531DF92EF92FF920F931F93CF93F1
:101EA000DF93D82EF92EE42E062F10E0C8010196FC
:101EB000880F0E94C20D83E00E94C20DCD2DDF2D40
:101EC0000C0F1D1FC017D10789F0E7FE03C0FE01EC
:101ED000849101C088810E94C20DF82E80E00E948A
:101EE000C20D8F2121968111EDCF01C081E0DF91DC
:101EF000CF911F910F91FF90EF90DF9008950F9376
:101F00001F93CF93DF938C01EB01FC0180819181C2
:101F1000009739F06881798161157105A1F40E94FB
:101F2000F62F88819981F801918380838A819B8132
:101F3000938382838C819D81958384831982188207
:101F40001B821A820FC0F801428153812C813D818E
:101F50004217530720F30E9453318C819D81F80171
:101F6000958384831D821C82DF91CF911F910F91F5
:101F700008950F931F93CF93DF93EC01888199818C
:101F8000009729F02A813B812617370788F48B01B7
:101F90006F5F7F4F0E947F30009761F09983888345
:101FA0001B830A832C813D81232B11F4FC011082B9
:101FB00081E001C080E0DF91CF911F910F910895E2
:101FC000CF93DF93EC0188819981009711F00E94F3
:101FD000F62F198218821D821C821B821A82DF91C1
:101FE000CF910895EF92FF920F931F93CF93DF93BA
:101FF000EC017B0161157105E1F0CB010E94222A01
:102000000097D1F02C813D818C01020F131FB80184
:10201000CE010E94B90F882361F0288139818C811B
:102020009D81B701820F931F0E941B2A1D830C8381
:1020300003C0CE010E94E00FCE01DF91CF911F912E
:102040000F91FF90EF900895EF92FF920F931F93DF
:10205000CF93DF93EC01FB0104811581E080F180D7
:10206000E114F104C9F001151105C9F08C819D81BD
:10207000080F191FB801CE010E94B90F882361F023
:10208000288139818C819D81B701820F931F0E9425
:1020900053311D830C8303C0CE010E94E00FCE019B
:1020A000DF91CF911F910F91FF90EF900895EF92E4
:1020B000FF920F931F93CF93DF93EC018B01611578
:1020C000710551F0CB010E94222A7C01BC01CE0196
:1020D0000E94B90F811104C0CE010E94E00F07C019
:1020E000FD82EC82B801888199810E941B2ACE0171
:1020F000DF91CF911F910F91FF90EF900895EF9294
:10210000FF920F931F93CF93DF93EC017B018A0122
:10211000BA010E94B90F811104C0CE010E94E00FE4
:1021200007C01D830C83B701888199810E945331B8
:10213000CE01DF91CF911F910F91FF90EF90089505
:10214000CF93DF93EC016115710559F0FB0101900C
:102150000020E9F73197AF01461B570B0E947F1013
:1021600002C00E94E00FCE01DF91CF910895CF937E
:10217000DF93EC01FB018617970761F060817181A5
:102180006115710529F0448155810E947F1002C0BC
:102190000E94E00FCE01DF91CF910895FC01808174
:1021A00091810C94F62FFC0111821082138212820D
:1021B000158214820C945710FC0111821082138234
:1021C0001282158214820C94B710FC0111821082C5
:1021D00013821282158214826115710551F0FB0180
:1021E00001900020E9F73197AF01461B570B0C9483
:1021F0007F1008951F920F920FB60F9211242F9304
:102200003F934F935F936F937F938F939F93AF937E
:10221000BF93EF93FF93E0912D01F0912E0109956B
:10222000FF91EF91BF91AF919F918F917F916F91AE
:102230005F914F913F912F910F900FBE0F901F9084
:1022400018951F920F920FB60F9211242F933F9360
:102250004F935F936F937F938F939F93AF93BF93AE
:10226000EF93FF93E0912B01F0912C010995FF91E1
:10227000EF91BF91AF919F918F917F916F915F91FE
:102280004F913F912F910F900FBE0F901F90189577
:102290001F920F920FB60F9211242F933F934F93DB
:1022A0005F936F937F938F939F93AF93BF93EF93BE
:1022B000FF93E0912901F0912A010995FF91EF9197
:1022C000BF91AF919F918F917F916F915F914F914E
:1022D0003F912F910F900FBE0F901F9018951F9256
:1022E0000F920FB60F9211242F933F934F935F934A
:1022F0006F937F938F939F93AF93BF93EF93FF93CE
:10230000E0912701F09128010995FF91EF91BF918C
:10231000AF919F918F917F916F915F914F913F917D
:102320002F910F900FBE0F901F9018951F920F9234
:102330000FB60F9211242F933F934F935F936F9398
:102340007F938F939F93AF93BF93EF93FF93E0910E
:102350002501F09126010995FF91EF91BF91AF9171
:102360009F918F917F916F915F914F913F912F91AD
:102370000F900FBE0F901F9018958093E9008091E9
:10238000F200882319F08AE38093E80008951F92F1
:102390000F920FB60F9211242F933F934F935F9399
:1023A0006F937F938F939F93AF93BF93CF93EF934D
:1023B000FF93C091E1008091E100837F8093E10071
:1023C000C3FF0FC01092E90081E08093EB001092F0
:1023D000EC0082E38093ED001092F10188E080939D
:1023E000F000C2FF19C083E00E94BD1180913D043E
:1023F000882339F080913D04815080933D048823E7
:1024000089F180913C04882339F080913C0481500B
:1024100080933C04882341F1C4FF10C08091E20006
:102420008E7E81608093E2008091E1008F7E8093B8
:10243000E1008091EF018E7E806111C0C0FF16C067
:102440008091E2008E7E80618093E2008091E100C5
:102450008E7E8093E1008091EF018E7E816080937B
:10246000EF0104C05D9ACDCF289AD6CFFF91EF91AE
:10247000CF91BF91AF919F918F917F916F915F911C
:102480004F913F912F910F900FBE0F901F90189575
:10249000DF92EF92FF920F931F93CF93DF93D82E8B
:1024A0008A017B01E40EF51EEB01CE15DF0571F00C
:1024B000D7FE03C0FE01849101C088810E94C20D35
:1024C00021968111F2CF8FEF9FEF01C0C801DF91FC
:1024D000CF911F910F91FF90EF90DF9008950F9390
:1024E0001F93CF93DF931F92CDB7DEB782E089832E
:1024F00042E450E065E073E080E80E9448120E94E8
:10250000FD0DDC0112960D911C911397011511051B
:1025100089F0D801ED91FC910280F381E02DBE019C
:102520006F5F7F4FC801099597FD04C0F8010085D2
:102530001185ECCF89810F90DF91CF911F910F9181
:1025400008951F920F920FB60F921124CF92DF922F
:10255000EF92FF920F931F932F933F934F935F93AD
:102560006F937F938F939F93AF93BF93EF93FF935B
:10257000CF93DF93CDB7DEB76C97DEBFCDBF1092A0
:10258000E9008091E80083FFF3C168E0CE01459641
:102590000E94F00D82EF8093E8008D8987FF05C0CF
:1025A0009091E80090FFFCCF03C09EEF9093E8006D
:1025B000982F907609F0C6C09E894F89588D2F8933
:1025C000F88C91110CC0803829F48091F00180932F
:1025D000F10002C01092F1001092F1003DC1913063
:1025E00051F4811139C14130510509F035C1809153
:1025F000F0018D7F0BC0933061F481112DC141300A
:10260000510509F029C18091F00182608093F001A9
:1026100023C1953049F48091E80080FFFCCF822FE0
:1026200080688093E30018C1963009F05EC00B8D7E
:102630001C8D22E01092E90010923B0410923A04A3
:10264000F21232C010923904109238040E946F12B4
:1026500099E0BE016F5F7F4FDB01E92F1D92EA9584
:10266000E9F79983FA8291E09E8390EA98879AEF3E
:10267000998720913A0430913B04275F3F4F3C8378
:102680002B838D831092E90010923B0410923A0440
:10269000109339040093380449E050E080E00E9430
:1026A00048120E946F12D8C0109339040093380466
:1026B0000E94FD0DDC0112960D911C9113970115DE
:1026C000110509F4B3C0D801ED91FC910480F581A6
:1026D000E02DBE016B5E7F4FC8010995009709F0A0
:1026E000BFC0F80100851185EACF973009F43DC1DC
:1026F000983021F481E08093F100AEC0993009F068
:10270000ABC0837009F031C1E0E3F1E081E031E07A
:1027100096E32081211109C08EE78093EA00109290
:10272000EA008F898093F10197C08093E90030938C
:10273000EB0021912093EC009093ED008F5F8730A8
:1027400041F7EACF8B8D9C8D1092E90010923B04EB
:1027500010923A049093390480933804898D811142
:102760004BC08E899D89913A49F4813209F0FDC0B0
:1027700047E050E06DE171E080E0B3C0913209F0D4
:10278000F4C0833269F48F89988DA0E0B0E0809323
:10279000190190931A01A0931B01B0931C015CC016
:1027A000803229F48DE191E00E941D1E55C08232D5
:1027B00009F052C08F8980932401EEEFFFE78591E5
:1027C00094918B3F9C4D19F0E0E0F8E002C0EEEFF1
:1027D000FAE080911D0190911E01A0911F01B0911E
:1027E0002001803B9440A105B10509F09EC0809175
:1027F000240180FF79C099C00E94FD0DFC01028177
:1028000013810115110509F4B0C0D801ED91FC91B7
:102810000190F081E02DBE016B5E7F4FC8010995EC
:1028200081111AC0F80100851185EBCFF1E0FF1688
:1028300009F44EC0F3E0FF1298C08F89882309F491
:102840004AC0823089F440E862E186E693E00E9463
:102850004A0F882309F489C08EEF8093E80088C06E
:1028600018161906CCF381C0813029F440E868E0DD
:102870008DE593E0ECCF833009F077C00E94FD0D29
:10288000DC011296ED90FC9013978E010F5F1F4FA5
:102890006801E114F10479F0D701ED91FC91068013
:1028A000F781E02DB801C7010995080F111DF70147
:1028B000E084F184EECFD8011C92F6010190002053
:1028C000E9F73197BF016C197D0940E0C601BFCF20
:1028D0006BE473E002C067E473E0FB01449150E0F5
:1028E00080E80E944812B8CFEE3F2AE0F20751F08C
:1028F000808191818737A7E79A0721F09093FF0A9B
:102900008093FE0A87E797E7918380838091600038
:1029100080933E049BE088E10FB6F894A8958093DD
:1029200060000FBE9093600097CF808191818737C0
:10293000974709F091CFA8958091600088618093B6
:10294000600080913E0480936000EE3FBAE0FB0798
:1029500039F08091FE0A9091FF0A918380837CCFA9
:102960001092FF0A1092FE0A77CF81E28093EB006B
:102970006C960FB6F894DEBF0FBECDBFDF91CF913E
:10298000FF91EF91BF91AF919F918F917F916F9147
:102990005F914F913F912F911F910F91FF90EF9079
:1029A000DF90CF900F900FBE0F901F9018959091D1
:1029B0008C049111FCCF982F813208F090E281E0D5
:1029C00080938C0480938B042FEF20938A041092C1
:1029D0008904290F209388048093670480916704F9
:1029E000806D8093670480916604813061F4109259
:1029F0006604809167048093BB008091BC0083FDD6
:102A0000F8CF85EC01C085EE8093BC0080918C04EA
:102A10008130E1F380918904891710F49091890441
:102A2000E8E6F4E0A5E4B4E080E0891721F0219124
:102A30002D938F5FFACF109244048093430408953E
:102A40003091B004313208F04BC080918C04811178
:102A5000FCCF9091AF0422E020938C0421E02093DE
:102A60008B042FEF20938A041092890430938804FA
:102A7000EFE8F4E0A8E6B4E020E0321721F041915D
:102A80004D932F5FFACF1092670420916704990F3E
:102A9000922B9093670490916604913061F41092A8
:102AA0006604909167049093BB009091BC0093FDE5
:102AB000F8CF95EC01C095EE9093BC0090918C04FA
:102AC0009230E1F390918A049F3F79F080918A04DB
:102AD000803241F080918A04803331F084E005C077
:102AE00081E003C082E001C083E010928E04109266
:102AF000B00410928D040895CF93C62F91E0909367
:102B00008D0498E69093AF0410928E041092B00456
:102B1000682F81E095E00E94700B6C2F81E095E0BA
:102B20000E94700BCF910C942015109244041092C7
:102B3000430410928E041092B00410928C0481E031
:102B400080938B041092660461E082E00E942A1E4A
:102B500061E083E00E942A1EE9EBF0E080818E7F35
:102B6000808380818D7F808388E48093B80085E4B2
:102B70008093BC0085E19BE09093420480934104E4
:102B800086E19BE09093400480933F0408950E9467
:102B900095156CE18EE00E947C156AE070E080E0A3
:102BA00090E00E94921F81E080938D0488E68093DC
:102BB000AF0410928E041092B00462E081E095E0C0
:102BC0000E94700B0E94201581E090E00E94D714B3
:102BD00081E095E00E94270B682F6F7B82E00E94C6
:102BE0007C156AE070E080E090E00E94921F81E036
:102BF0000895BF92CF92DF92EF92FF920F931F93AF
:102C0000CF93DF93CDB7DEB727970FB6F894DEBF2B
:102C10000FBECDBF81E080938D0488E68093AF0422
:102C200010928E041092B00460E081E095E00E9462
:102C3000700B0E94201588E090E00E94D71481E07C
:102C400095E00E94270B9C01332794E0359527954A
:102C50009A95E1F71AEF082F129F000D112481E0D9
:102C600095E00E94270B9C01332744E0359527957A
:102C70004A95E1F7F82E129FF00C112481E095E0BF
:102C80000E94270B8F73982F92959F70E82E919F2B
:102C9000E00C112481E095E00E94270BB82E81E022
:102CA00095E00E94270B9C01332754E0359527952A
:102CB0005A95E1F7D82E129FD00C112481E095E0AF
:102CC0000E94270B9C01332764E0359527956A9570
:102CD000E1F7C82E129FC00C112481E095E00E94FC
:102CE000270B9C01332774E0359527957A95E1F7FA
:102CF000482F129F400D1124242F3C2D4D2D5E2D69
:102D00006F2D702F8B2D90E027960FB6F894DEBFB5
:102D10000FBECDBFDF91CF911F910F91FF90EF902C
:102D2000DF90CF90BF900895AF92BF92CF92DF9285
:102D3000EF92FF920F931F93CF93DF93DC01CD901F
:102D4000DC901197C114D10409F443C01496CD91BD
:102D5000DC9115972097E9F18C0176015701BFEFBF
:102D6000AB1ABB0AF7018081082E000C990B0E9458
:102D7000822C892B11F07501F1CF2197CC0DDD1D2F
:102D80008881082E000C990B0E94822C892B29F037
:102D9000CE15DF0510F02197F3CFAE014F5F5F4FE7
:102DA0004E195F09D80115965C934E931497CE1473
:102DB000DF0420F4B701C6010E944A31D801ED9129
:102DC000FC91119714968D919C911597E80FF91F1E
:102DD0001082DF91CF911F910F91FF90EF90DF90C4
:102DE000CF90BF90AF9008950F931F93CF93DF9331
:102DF000EC010C811D810F5F1F4FB8010E94B90FBC
:102E0000882369F0288139818C819D8166ED71E08C
:102E1000820F931F0E9453311D830C8303C0CE0188
:102E20000E94E00FCE01DF91CF911F910F91089585
:102E30001F93CF93DF93182FCDE0D5E060E0888912
:102E40000E942A1E83E00E94110E812F0E94110E03
:102E500080E00E94110E182F61E088890E942A1ECE
:102E6000812FDF91CF911F910895FF920F931F93B0
:102E7000CF93DF93F82E062F142FCDE0D5E060E03E
:102E800088890E942A1E85E00E94110E8F2D0E94C3
:102E9000110E802F0E94110E812F0E94110E61E0F1
:102EA00088890E942A1E83EE93E00197F1F7DF9153
:102EB000CF911F910F91FF900895FF920F931F9351
:102EC000CF93DF93C82FF62E072F142F60E0809149
:102ED0001D050E942A1E82E00E94110E8C2F0E9466
:102EE000110ECF2DD02FCE01810F911D8C01C01757
:102EF000D10721F089910E94110EF9CF61E08091F4
:102F00001D050E942A1E83EE93E00197F1F7DF91E1
:102F1000CF911F910F91FF9008950F931F93CF931F
:102F2000DF93082F162FCDE0D5E060E088890E945E
:102F30002A1E82E00E94110E802F0E94110E812F06
:102F40000E94110E61E088890E942A1E83EE93E0A0
:102F50000197F1F7DF91CF911F910F910895CF92D3
:102F6000DF92EF92FF920F931F93CF93DF937C0139
:102F70008B016A016BE971E00E94E510D80114969B
:102F80008D919C9115970097C1F0E6018C159D05D8
:102F900008F4EC01D801ED91FC911197EC0FFD1FA5
:102FA000D08010826D917C91C7010E94A010F80121
:102FB00080819181C80FD91FD882C701DF91CF913D
:102FC0001F910F91FF90EF90DF90CF900895EF92B7
:102FD000FF920F931F93CF93DF9300D000D000D0C8
:102FE000CDB7DEB78C010E94DC10C8010E94941698
:102FF00042E050E0B801CE0101967C010E94AF177B
:10300000E016F10621F0B701C8010E947F0FC70149
:103010000E94CE10F80184819581029788F468EDB2
:1030200071E0C7010E94E510B801C7010E94241099
:10303000BC01C8010E94B710C7010E94CE10EACFA0
:10304000C80126960FB6F894DEBF0FBECDBFDF9144
:10305000CF911F910F91FF90EF90089581E08093A1
:10306000DA010895682F85E895E00C9428281F93CD
:10307000CF93DF93CDB7DEB727970FB6F894DEBFB7
:103080000FBECDBF809102010E94321880910301D2
:103090000E943218809104010E943218809105012B
:1030A0000E943218809106010E9432188091070117
:1030B0000E943218809108010E9432188091090103
:1030C0000E94321880910A010E94321880910501F5
:1030D000882351F00E94C7150E94F915852F162FDD
:1030E000583110F46C3398F080E00E94321880E080
:1030F0000E94321885E895E027960FB6F894DEBF57
:103100000FBECDBFDF91CF911F910C94AA280E94D2
:103110003218812FEDCFCF92DF92FF920F931F9342
:10312000CF93DF9301E098E6F92E1AE085E895E069
:103130000E947628181619060CF0B2C085E895E0B2
:103140000E944B289091F006E92FF0E0E051FA4FF1
:1031500080839F5F9093F0068A3041F78091F0055D
:103160008C3411F40E9437188091F005833519F0E2
:103170001092F006DBCF8091F105809302018091DF
:10318000F2058093030181E09091F305911101C054
:1031900080E0809304018091F40591E0811101C0E9
:1031A00090E0909305019091F5059093060191E0D0
:1031B0002091F605211101C090E0909307019091B4
:1031C000F705909308019091F8059093090191E01B
:1031D0002091F905211101C090E090930A01882304
:1031E00009F44BC0D091FB05C091FA050E94C715A8
:1031F00000938D04F092AF0410928E041092B004EC
:1032000060E081E095E00E94700B60E081E095E075
:103210000E94700B8D2F612F0E940A2E682F660F5F
:10322000860F880F682F6D0F81E095E00E94700B6C
:103230002C2F2F7B822F612F0E940A2E682F660F62
:10324000680F660F620F81E095E00E94700B65E0E9
:1032500081E095E00E94700B60E181E095E00E94C2
:10326000700B61E181E095E00E94700B61E181E00B
:1032700095E00E94700B0E9420150E94371882E092
:10328000C82E81E0D82EC0E2D0E0F60161916F0136
:10329000CE010E94C52D2196CB32D105B1F768CF62
:1032A000DF91CF911F910F91FF90DF90CF90089504
:1032B00060E087E00E94561F8EE298E190932E0115
:1032C00080932D01EAE6F0E080818F7C806280832C
:1032D000EE9A0895CF92DF92FF920F931F93CF93B0
:1032E000DF93813059F030F0823059F4C4E193E03B
:1032F00028E007C0C3E092E022E003C0C4E192E00E
:1033000025E01092E403D1E180E4F82E8091E403FB
:103310008C1708F047C0A22FB0E0223019F4933088
:1033200019F40BC0253019F4953091F406C02630FD
:1033300011F0283069F4963059F4DA9FF001DB9FE0
:10334000F00D1124E054FD4FE90FF11DF1869F5F50
:10335000092F10E0482F50E0FB01C480D5804C15A8
:103360005D0560F4C080D180C114D10429F0F6015C
:10337000E40FF51F308103C030E001C030E2DA9F76
:10338000F001DB9FF00D1124E054FD4FE00FF11F21
:1033900031879F5F983011F42F5F91E08F5F8093AA
:1033A000E403B4CFDF91CF911F910F91FF90DF9095
:1033B000CF90089580910801813029F081E09091AB
:1033C0000301913009F080E008958F929F92AF92AF
:1033D000BF92FF920F931F93CF93DF93CDB7DEB7CA
:1033E00068970FB6F894DEBF0FBECDBF8C01062ED6
:1033F000000C770B68527109072E000C880B990B93
:103400000E949D2C4B015C01F0900401F11005C05D
:1034100066E676E686EE9FE304C060E070E080E852
:103420009FE3A50194010E94FC2C9B01AC01F110CB
:1034300005C060E070E080E092E403C060E070E00E
:10344000CB010E94452E20E030E0A9010E94592FB7
:1034500087FD24C0F11005C066E676E686EE9FE3A0
:1034600004C060E070E080E89FE3A50194010E9441
:10347000FC2C9B01AC01F11005C060E070E080E025
:1034800092E403C060E070E0CB010E94452E20E092
:1034900030E040E05FE30E94452E23C0F11005C0FC
:1034A00066E676E686EE9FE304C060E070E080E8C2
:1034B0009FE3A50194010E94FC2C9B01AC01F1103B
:1034C00005C060E070E080E092E403C060E070E07E
:1034D000CB010E94452E20E030E040E05FE30E94F7
:1034E000442E0E94232F862F1C8A1B8A1E8A1D8A27
:1034F000188E1F8A4AE0BE016F5F7F4F082E000CB6
:10350000990B0E942B2ABE016F5F7F4FCE0143961D
:103510000E94A0106BE971E0C8010E94E510BE0195
:103520006D5E7F4FC8010E94B710CE0143960E9486
:10353000CE10C80168960FB6F894DEBF0FBECDBF9F
:10354000DF91CF911F910F91FF90BF90AF909F900F
:103550008F9008956BE971E00C94E510CF92DF92A3
:10356000EF92FF920F931F93CF93DF9300D000D081
:1035700000D0CDB7DEB78C01C42E0E94DC10C8018C
:103580000E949416D12CA601B801CE0101967C01AF
:103590000E94AF17E016F10621F0B701C8010E94A2
:1035A0007F0FC7010E94CE10F801848195818C1590
:1035B0009D0588F466ED71E0C7010E94E510B80131
:1035C000C7010E942410BC01C8010E94B710C701A6
:1035D0000E94CE10E9CFC80126960FB6F894DEBF40
:1035E0000FBECDBFDF91CF911F910F91FF90EF9054
:1035F000DF90CF900895EF92FF920F931F93CF9398
:10360000DF9300D000D000D0CDB7DEB77C018E01B3
:103610000F5F1F4FC8010E94DC100E151F0521F01F
:10362000B801C7010E947F0FC8010E94CE102696E4
:103630000FB6F894DEBF0FBECDBFDF91CF911F91C3
:103640000F91FF90EF900895AF92BF92CF92DF92CB
:10365000EF92FF920F931F93CF93DF93CDB7DEB717
:103660002C970FB6F894DEBF0FBECDBF8C01C42ED1
:103670000E94DC10C8010E949416D12CA601B8014A
:10368000CE0101967C010E94AF17E016F10621F0F1
:10369000B701C8010E947F0FC7010E94CE10F80138
:1036A000848195818C159D0558F580FF0DC0B8016A
:1036B000CE0107960E94DC10CE0107960E94F416F8
:1036C000A12CBB24B3940CC066ED71E0C7010E942D
:1036D000E510B801C7010E942410AA24A394B12CBC
:1036E000BC01C8010E94B710AA2019F0C7010E94AE
:1036F000CE10BB20A1F2CE0107960E94CE10CFCFF4
:10370000C8012C960FB6F894DEBF0FBECDBFDF9177
:10371000CF911F910F91FF90EF90DF90CF90BF90CE
:10372000AF9008958F929F92AF92BF92EF92FF92C7
:103730000F931F93CF93DF93CDB7DEB7A7970FB645
:10374000F894DEBF0FBECDBF7C01109109011111AD
:1037500014C069E773E0CE0101960E94D3106BE9B3
:1037600071E0C7010E94E510BE016F5F7F4FC70186
:103770000E94B710CE01019682C06A3108F46CC075
:1037800070E080E090E00E949D2C4B015C011130C4
:1037900029F060EE71EA8CED90E404C060E070E026
:1037A00080E89FE3A50194010E94FC2C20E030E01A
:1037B000A9010E94592F87FD16C0113029F060EE33
:1037C00071EA8CED90E404C060E070E080E89FE373
:1037D000A50194010E94FC2C20E030E040E05FE372
:1037E0000E94452E15C0113029F060EE71EA8CED73
:1037F00090E404C060E070E080E89FE3A5019401DC
:103800000E94FC2C20E030E040E05FE30E94442E68
:103810000E94232F0E949D2C123029F020E030E0DE
:1038200040E85FE304C020E030E048EC52E41BA233
:103830001AA21DA21CA21FA21EA20E94B12E8E01BE
:103840000F5F1F4F22E044E00E94FB29BC01CE0124
:1038500082960E94A01006C06FE175E0CE018296AC
:103860000E94DC106BE971E0C7010E94E510BE0107
:103870006E5D7F4FC7010E94B710CE0182960E94F5
:10388000CE10C701A7960FB6F894DEBF0FBECDBF0E
:10389000DF91CF911F910F91FF90EF90BF90AF906C
:1038A0009F908F9008953FB7F8948091F60690917D
:1038B000F706A091F806B091F90626B5A89B05C0B9
:1038C0002F3F19F00196A11DB11D3FBFBA2FA92F9F
:1038D000982F8827820F911DA11DB11DBC01CD011C
:1038E00042E0660F771F881F991F4A95D1F7089508
:1038F0004F925F926F928F929F92AF92BF92CF92B0
:10390000DF92FF920F931F93CF93DF9300D000D0ED
:10391000CDB7DEB760930E0570930F058093100549
:10392000909311054093120510920D05F901A3E142
:10393000B5E080E090E050E0841795073CF48830D3
:10394000910521F021912D930196F6CFC12CD12C18
:1039500040908C0150908D0160908E014E0124E0CA
:10396000820E911C49825A826B82CE0101965C01C3
:10397000F82E0B2DF50111915F01812F0E94181770
:10398000982F987083FD02C01F5F05C0A814B9046A
:1039900089F710E092E0FFEFCF1ADF0A923029F4A6
:1039A00022E3C216D104F1F66BC082E3C816D1043B
:1039B00009F466C04091120563E175E085E0810F6E
:1039C0000E945D1780911B05813029F480911205BA
:1039D0008064809312056091120584E0810F0E943B
:1039E0008D1740910E0550910F0560911005709153
:1039F000110580910D058130B1F44C835B83AB01DF
:103A000066277727942F9C71842F8370E8E09E9F10
:103A1000800D112488608A8365E0569547956A95E4
:103A2000E1F749830DC0CA0123E0969587952A9551
:103A3000E1F789834295440F407E4A831C821B82B2
:103A400044E06F2D702F812F0E945D17115048E0C8
:103A500068E0812F0E943517C12CD12CFFEFCF1ABF
:103A6000DF0A812F0E94181783FF05C022E3C216C8
:103A7000D104A1F707C082E3C816D10429F402C01B
:103A800086E003C087E001C080E00F900F900F90A8
:103A90000F90DF91CF911F910F91FF90DF90CF900A
:103AA000BF90AF909F908F906F905F904F900895D0
:103AB000CF93C82F482F60EE8FE00E9435178FE01C
:103AC0000E941817982F907E81E09C1301C080E01F
:103AD000CF910895CF92DF92EF92FF92CF93DF9331
:103AE00000D000D0CDB7DEB76A01EE24FF242C83CE
:103AF0003B83613089F42C2D2C719C2D937038E020
:103B0000239F900D112498609A83A60125E0569575
:103B100047952A95E1F70BC09C2D9295990F907EC1
:103B20009A83A60193E0569547959A95E1F74983C4
:103B300044E0BE016F5F7F4F0E945D170F900F90B2
:103B40000F900F90DF91CF91FF90EF90DF90CF908B
:103B50000895CF92DF92EF92FF92CF93C82F6A0120
:103B60007B0180E80E94581D811134C0C230C9F029
:103B700048F4CC2389F0C13021F5A701960160E01B
:103B800084E01DC0C430B9F088F0C530D1F4A7017D
:103B9000960160E088E113C0A701960160E080E033
:103BA0000EC0A701960160E088E009C0A701960158
:103BB00060E080E104C0A701960160E084E10E941A
:103BC0006A1D80911E05CF91FF90EF90DF90CF90FE
:103BD0000C94581DCF91FF90EF90DF90CF900895F7
:103BE0000F931F93CF93DF93CDB7DEB729970FB60F
:103BF000F894DEBF0FBECDBF8C01862FF801118275
:103C0000108213821282158214824AE0BE016F5F15
:103C10007F4F90E00E94362ABE016F5F7F4FC80140
:103C20000E94A01029960FB6F894DEBF0FBECDBF3C
:103C3000DF91CF911F910F9108952091E80022FF0D
:103C4000FCCF67E00E94F00D8BEF8093E80087E0E7
:103C500090E00895362F90E0FC01EC52FC4F449127
:103C6000FC01EB54FC4F2491FC01EA56FC4F84917B
:103C7000882309F452C04423E1F150E0FA0131975E
:103C8000EF30F105B0F5EA5AFF4F0C943E2E9091BB
:103C900080009F7707C0909180009F7D03C0909126
:103CA0008000977F9093800024C094B59F7702C0D6
:103CB00094B59F7D94BD1DC0909190009F7707C0E3
:103CC000909190009F7D03C090919000977F90937A
:103CD00090000FC09091C0009F7703C09091C000EA
:103CE0009F7D9093C00005C09091C200977F9093F4
:103CF000C200E82FF0E0EE0FFF1FE857FC4FA59140
:103D0000B4919FB7F894311104C08C912095282369
:103D100002C0EC912E2B2C939FBF0895FF920F931E
:103D20001F93CF93DF93182FF62EC72FD42F60E069
:103D300080911D050E942A1E83E00E94110E812F92
:103D40000E94110E0F2D1C2FC0E0CD1751F0C8306E
:103D500041F080E00E94110EF80181938F01CF5F46
:103D6000F4CF61E080911D05DF91CF911F910F91FC
:103D7000FF900C942A1E0F931F93CF93DF9300D0D4
:103D800000D0CDB7DEB7182F10920D0510920E059A
:103D900010920F05109210051092110544E0BE011B
:103DA0006F5F7F4F0E948E1E2A813981822F90E0A3
:103DB00065E0959587956A95E1F748E0349F800D19
:103DC000911D1124092E000CAA0BBB0B80930E052C
:103DD00090930F05A0931005B093110523FF29C000
:103DE00032E0880F991FAA1FBB1F3A95D1F72370A5
:103DF000820F911DA11DB11DBA2FA92F982F8827C1
:103E00002B81820F911DA11DB11DBA2FA92F982FB3
:103E100088272C81820F911DA11DB11D80930E0555
:103E200090930F05A0931005B093110581E0809346
:103E30000D058FEF810F0E941817082F84E0810F66
:103E40000E94181703FF04C091E090931B0502C065
:103E500010921B05482F4F704093120563E175E0E7
:103E600085E0810F0E948E1E0F900F900F900F9093
:103E7000DF91CF911F910F9108951F93CF93DF93FF
:103E8000CDE0D5E060E088890E942A1E80EA0E9489
:103E9000110E80E00E94110E182F61E088890E94A7
:103EA0002A1E812FDF91CF911F910895CF93DF9329
:103EB00090E0FC01EB54FC4F2491FC01EA56FC4FCE
:103EC0008491882361F190E0880F991FFC01E658E6
:103ED000FC4FC591D491FC01E857FC4FA591B491DA
:103EE000611109C09FB7F894888120958223888347
:103EF000EC912E230BC0623061F49FB7F894888157
:103F0000322F309583238883EC912E2B2C939FBFE7
:103F100006C08FB7F894E8812E2B28838FBFDF91DE
:103F2000CF9108958F929F92AF92BF92CF92DF92DE
:103F3000EF92FF926B017C010E94531C4B015C01CC
:103F4000C114D104E104F104F1F00E94531CDC011E
:103F5000CB0188199909AA09BB09883E9340A1059C
:103F6000B10570F321E0C21AD108E108F10888EE2A
:103F7000880E83E0981EA11CB11CC114D104E10479
:103F8000F10419F7DDCFFF90EF90DF90CF90BF9055
:103F9000AF909F908F9008951F920F920FB60F923F
:103FA00011242F933F938F939F93AF93BF9380914F
:103FB000F2069091F306A091F406B091F5063091C7
:103FC000F10623E0230F2D3720F40196A11DB11D2A
:103FD00005C026E8230F0296A11DB11D2093F1060E
:103FE0008093F2069093F306A093F406B093F5063F
:103FF0008091F6069091F706A091F806B091F90627
:104000000196A11DB11D8093F6069093F706A0932B
:10401000F806B093F906BF91AF919F918F913F91B0
:104020002F910F900FBE0F901F901895CF93DF9395
:1040300000D000D000D0CDB7DEB7789484B58260D0
:1040400084BD84B5816084BD85B5826085BD85B53C
:10405000816085BD80916E00816080936E001092BA
:104060008100809181008260809381008091810035
:1040700081608093810080918000816080938000C6
:104080008091910082608093910080919100816085
:104090008093910080919000816080939000809146
:1040A000C10084608093C1008091C10082608093D0
:1040B000C1008091C10081608093C1008091C300E4
:1040C00081608093C3008091C00082608093C000B3
:1040D0008091C20081608093C20080917A008460E8
:1040E00080937A0080917A00826080937A00809138
:1040F0007A00816080937A0080917A008068809352
:104100007A001092F1011092F0011092EF0180916B
:10411000D70081608093D70080EA8093D80089B56A
:10412000806189BD89B5826089BD09B400FEFDCF7B
:1041300061E070E080E090E00E94921F8091D800E2
:104140008F7C80618093D8008091E000807F809395
:10415000E0008091E1008E7E8093E1008DE080930D
:10416000E200559A209A8FEF9FEF9093BE048093C0
:10417000BD049093E4058093E3050E94951580E2C9
:1041800090E00E94BD2D873009F456C081E08093F5
:104190007A021092F3011092F20124E630E030939B
:1041A000F5012093F4011092F7011092F6012CE032
:1041B00035E03093F9012093F80193E09093FA01F0
:1041C0009CE09093FB018093FC011092FD01109202
:1041D000FE011092FF011092000210920102109253
:1041E0000202009103018DEF800F8230B8F582E06A
:1041F00080937A0210920402109203028AEF90E0F8
:104200009093060280930502109208021092070212
:1042100088EE93E090930A028093090288E08093ED
:104220000B0210920C0210920D0284E080930E0299
:1042300084E280930F0237C052E0E52E51E0F52E64
:1042400000E210E0C8010E94BD2DF70181937F01BB
:104250000F5F1F4F0B321105A9F798CF013059F5A9
:1042600082E080937A0210920402109203028AEF95
:1042700090E090930602809305021092080210923B
:10428000070288EE93E090930A028093090288E087
:1042900080930B0210920C0210920D0289E280931F
:1042A0000E0210920F021092100210921102109240
:1042B000120210921302B0907A02DD24D394DB0C28
:1042C000D0927A0211E11B9DF0011124EE50FE4FB5
:1042D0001182108232E3E32EF12CF382E282158206
:1042E00014828FEE93E09783868348E0C42EC086C5
:1042F00082E3818782878387848783E08587168628
:104300001786108A0E94DA198823E9F0B394B394CF
:10431000B0927A021D9DF0011124EE50FE4F1182E1
:104320001082F382E2821582148282EF93E09783F7
:104330008683C0868FEF818782878387848785877E
:1043400080E686871DC00230E9F0B394B394B09242
:104350007A021D9DF0011124EE50FE4F1182108251
:10436000F382E2821582148282EF93E09783868340
:10437000C0868FEF818782878387848785871686AB
:104380001786108AE0907A02FF24F394FE0CF092D4
:104390007A0211E11E9DF0011124EE50FE4F1182B0
:1043A000108284E690E093838283158214828CE0ED
:1043B00095E09783868383E0808781E0818782E030
:1043C000828713861486158616861786108A0E94A1
:1043D000DA19882301F1E394E394E0927A021F9DB5
:1043E000F0011124EE50FE4F1182108282E390E022
:1043F000938382831582148282EF93E0978386836E
:1044000088E08087118612868FEF8387848785876F
:1044100080EF868720C0023001F1E394E394E092BC
:104420007A021F9DF0011124EE50FE4F118210827E
:1044300082E390E0938382831582148282EF93E07B
:104440009783868388E080878FEF81878287838741
:104450008487858716861786108AE0917A0281E123
:104460008E9FD0011124AE50BE4F11961C921E9209
:1044700022E330E013963C932E93129715961C92EC
:104480001E92149721EF33E017963C932E931697C4
:1044900028E018962C93189795EF19969C931997E6
:1044A00090E91A969C931A971B961C921B971C9640
:1044B0001C921C971D961C921D971E961C921E976F
:1044C0001F961C921F9750961C9292E09E0F9093FD
:1044D0007A02EF5F8E9FF0011124EE50FE4F1182A1
:1044E000108244E650E053834283158214824CE0EC
:1044F00055E05783468333E0308761E0618792E07F
:10450000928713861486158616861786108A6093FE
:10451000BF0210927C0210927B0210927E021092D7
:104520007D0264EF71E07093800260937F0250938C
:10453000820240938102309383028093840290939D
:104540008502109286028EEB809387028093880208
:104550008093890280938A0280938B02043001F554
:104560009093BF0210928D0210928C028AEF90E01D
:1045700090938F0280938E0210929102109290027B
:1045800088EE93E09093930280939202209394029A
:1045900010929502109296020093970284E223C033
:1045A000013059F59093BF0210928D0210928C0247
:1045B00080E991E090938F0280938E0288EE93E0E1
:1045C0009093910280939002909393028093920231
:1045D000209394028FE0809395021092960289E2D4
:1045E0008093970284E0809398021092990210922F
:1045F0009A0210929B0210929C021091BF02DD243D
:10460000D394D10ED092BF0281E1B82EB19EF001B9
:104610001124E558FD4F1182108282EC91E09383C2
:10462000828398EEE92E93E0F92EF582E4828FEEF4
:1046300093E09783868328E0C22EC08682E3818739
:1046400082878387848783E085871686178680E242
:10465000808B023009F44CC00E94DA191E5F2D2DA8
:1046600030E0882311F1013001F51093BF02B29EB2
:10467000F001B39EF00D1124E558FD4F1182108218
:1046800084EF91E093838283F582E48282EF93E06A
:1046900097838683C08682E1818702878FEF838735
:1046A0008487858780EF868721C01093BF0281E1D0
:1046B000829FF001839FF00D1124E558FD4F118278
:1046C000108284EF91E09383828388EE93E0958358
:1046D000848382EF93E09783868388E080878FEFDF
:1046E0008187828783878487858716861786108AC5
:1046F00048EE53E05093C1024093C0021092C302AF
:104700001092C20224EF31E03093C5022093C4021C
:1047100066E3C62E63E0D62ED092C702C092C602D0
:1047200098E09093C80263E06093C90271E07093CF
:10473000CA028AE08093CB027093CC028EEF809302
:10474000CD021092CE021092CF021092D002B2E0AF
:104750005093D2024093D102E2E3F0E0F093D4020E
:10476000E093D3023093D6022093D502E4E2EE2EFA
:10477000E3E0FE2EF092D802E092D7029093D902A5
:104780007093DA027093DB02B093DC021092DD02C8
:104790001092DE021092DF021092E0021092E1020B
:1047A0005093E3024093E202E4E6F0E0F093E50286
:1047B000E093E4023093E7022093E602E7E3F3E0BC
:1047C000F093E902E093E8029093EA0286E0809396
:1047D000EB0280E28093EC028093ED02A0E4A093D0
:1047E000EE028093EF02A093F0028093F102109208
:1047F000F2025093F4024093F30208EC10E010939D
:10480000F6020093F5023093F8022093F702D0925B
:10481000FA02C092F9029093FB026093FC0270933B
:10482000FD020F2EF5E0DF2EF02DD092FE026093F8
:10483000FF02609300031092010310920203109292
:10484000030350930503409304030F2EF1EECF2E84
:10485000D12CF02DD0920703C092060330930903A8
:1048600020930803F0920B03E0920A0390930C0349
:1048700060930D0370930E03B0930F031092100317
:10488000109211031092120310921303109214034A
:1048900050931603409315030F2EFAEFEF2EF12CD1
:1048A000F02DF0921803E092170330931A0320932F
:1048B0001903F0931C03E0931B0390931D0368946A
:1048C000FF24F4F8F0921E030F2EFBE2FF2EF02DD2
:1048D000F0921F038093200380932103809322038F
:1048E000A0932303809324038093250350932703ED
:1048F000409326030F2EF3E1EF2EFF24F394F02DC7
:10490000F0922903E092280330932B0320932A038B
:10491000F0932D03E0932C0390932E030F2EF1E2DE
:10492000FF2EF02DF0922F03809330030F2EFDE425
:10493000AF2EF02DA09231030F2EF5E6BF2EF02DF5
:10494000B09232030F2EF2E7FF2EF02DF0923303D8
:104950000F2EF3E6EF2EF02DE0923403A0933503F3
:104960000F2EF5E7EF2EF02DE0923603509338032B
:10497000409337030F2EFCE2CF2EDD24D394F02D8D
:10498000D0923A03C092390330933C0320933B0307
:10499000F0933E03E0933D0390933F030F2EF2E22A
:1049A000EF2EF02DE0924003F09241030F2EF9E735
:1049B000DF2EF02DD0924203809343038093440373
:1049C00080934503809346038093470350934903A4
:1049D000409348030F2EF5E4CF2EDD24D394F02D21
:1049E000D0924B03C0924A0330934D0320934C0363
:1049F000F0934F03E0934E03909350030F2EF3E296
:104A0000DF2EF02DD09251038093520380935303F5
:104A1000809354038093550380935603A0935703C8
:104A20008093580350935A03409359030F2EFEE589
:104A3000CF2EDD24D394F02DD0925C03C0925B0383
:104A400030935E0320935D03F0936003E0935F0374
:104A5000909361030F2EF4E2DF2EF02DD0926203CB
:104A60008093630380936403A09265030F2EF1E6A5
:104A7000DF2EF02DD0926603F09267030F2EF9E639
:104A8000DF2EF02DD09268030F2EFEE6DF2EF02DE4
:104A9000D092690350936B0340936A030F2EF7E79C
:104AA000CF2EDD24D394F02DD0926D03C0926C03F1
:104AB00030936F0320936E03F0937103E0937003C0
:104AC000909372030F2EF5E2DF2EF02DD092730338
:104AD000B0927403F092750380937603809377030A
:104AE000809378038093790380937A030F2EFCE000
:104AF000FF2EF02DF0928C0350937C0340937B03A8
:104B000040E951E050937E0340937D03309380034E
:104B100020937F03F0938203E093810390938303B8
:104B200026E220938403809385038093860310926A
:104B30008703109288031092890310928A031092BF
:104B40008B0310928E0310928D031092900310929B
:104B50008F03E8E8F3E1F0939203E093910326E2F8
:104B600037E03093940320939303909395036093DD
:104B70009603E092970381E480939803A0939903AE
:104B800010929A0310929B0310929C0310929D0323
:104B900010929F0310929E031093A1030093A00311
:104BA000F093A303E093A2033093A5032093A403FF
:104BB0009093A6036093A703E092A8038093A903B0
:104BC0008093AA031092AB031092AC031092AD0332
:104BD0001092AE031092B0031092AF035093B20341
:104BE0004093B10340E157E25093B4034093B303C1
:104BF0003093B6032093B5039093B7036093B80343
:104C0000E092B9038093BA0380E68093BB031092CD
:104C1000BC031092BD031092BE031092BF0310920A
:104C2000C1031092C0031092C3031092C2031092EA
:104C3000C5031092C4033093C7032093C603909317
:104C4000C803B093C9037093CA031092CB031092A8
:104C5000CC031092CD031092CE031092CF0310928A
:104C6000D00380910901823008F04BC0B093E60375
:104C700069E172E08FE195E00E94571063E172E014
:104C800081E395E00E9457106DE072E08BE295E0C1
:104C90000E94571060E072E085E295E00E94571094
:104CA0008EE08093E5031092E40316E08091E40324
:104CB000843058F097EAA92E93E0B92E26ECE22E24
:104CC00023E0F22E30E4C32EAAC06DEF71E0CE01D6
:104CD00001960E94D3108091E403189FC001112413
:104CE000BE016F5F7F4F83599A4F0E94B710CE016C
:104CF00001960E94CE108091E4038F5F8093E403BD
:104D0000D5CF6093E60369EF71E08FE195E00E94F3
:104D1000571065EF71E081E395E00E94571061EF55
:104D200071E08BE295E00E94571066EE71E085E23B
:104D300095E00E945710F092E5031092E40316E00C
:104D40008091E403843008F0B5CF62EE71E0CE01CB
:104D500001960E94D3108091E403189FC001112492
:104D6000BE016F5F7F4F83599A4F0E94B710CE01EB
:104D700001960E94CE108091E4038F5F8093E4033C
:104D8000DFCFF5018491F7012491E82FF0E0EE0FD9
:104D9000FF1FE658FC4FA591B4919C91822F892367
:104DA00021F461E081E10E942A1E61E081E10E941C
:104DB000561F8CB580618CBD8CB580648CBD61E064
:104DC0008FE00E94561F61E080E10E94561F809193
:104DD000E7038F5F8093E703DFBE60E080911D05EE
:104DE0000E942A1E80EC0E94110E61E080911D0538
:104DF0000E942A1E6AE070E080E090E00E94921F0C
:104E0000C0921E0580E80E94581D882381F00E94F0
:104E10008B1864E670E080E090E00E94921FDFB69D
:104E2000F8948091E703882309F4ABCFD0CF61E0F9
:104E30008AE20E948D1761EB89E20E948D1765E07E
:104E400088E20E948D1720E030E0A90161E080E255
:104E50000E946A1D20E030E0A90161E084E20E9426
:104E60006A1D20E030E0A90161E080E00E946A1D37
:104E700020E030E0A90160E084E00E946A1D20E0AB
:104E800030E0A90161E088E00E946A1D20E030E086
:104E9000A90160E080E10E946A1D20E030E0A901E4
:104EA00061E084E10E946A1D20E030E0A90160E039
:104EB00088E10E946A1D10E360E0812F0E948D1737
:104EC00060E080E1810F0E948D1760E080E2810F39
:104ED0000E948D171F5F1E3379F760E080E60E9405
:104EE0008D1760E080E70E948D1763E08BE20E94DF
:104EF0008D1744E064E680E60E94351740E060E6E6
:104F000080E70E94351780911E050E94581D81116F
:104F10007ECF46E050E062E971E081EB94E00E94D0
:104F20003B0C42E050E069E971E081EB94E00E94C3
:104F30003B0C0E94581980E480931E050E94581D66
:104F40001092E80380E80E94581D81110CC020E0F7
:104F500030E04FEF57E060E080E20E946A1D8091F0
:104F60001E050E94581D80E80E94581D81110CC02A
:104F700020E030E04FEF57E060E084E20E946A1DDD
:104F800080911E050E94581D1092E4031091E403C5
:104F9000153058F440E050E063E274E0812F0E9445
:104FA000A91D1F5F1093E403F1CF81E08093E80314
:104FB00040E050E063E274E080E00E94A91D80912F
:104FC00009018823B1F080910A01882341F082E031
:104FD0008093E80340E050E06EE277E007C082E0B3
:104FE0008093E80340E050E065EB73E081E00E94CD
:104FF000A91D80910501882331F00E94C7158111F8
:105000000EC0109205018091E80391E0980F9093F3
:10501000E80340E050E066E674E00E94A91D1092AB
:105020001E0580E00E94581D1092E3031092E203D7
:1050300064EF71E080E090E00E94921F00E010E0D9
:105040000E94250201151105D9F30E940000F8CF36
:10505000CF93DF931F92CDB7DEB76983DC01ED916B
:10506000FC910488F589E02D41E050E0BE016F5FBE
:105070007F4F09950F90DF91CF9108950A970C9477
:105080002828FC0183818F5F0E94150A90E0089513
:105090000A970C944128FC01DC01A25ABF4F8D9164
:1050A0009C91119797FD05C02FEF3FEF2D933C93F7
:1050B000089583810C94260A0A970C944B28CF9369
:1050C000DF93EC01C25ADF4F2881398137FF06C0D8
:1050D000FC0183810E94260A9983888388819981B3
:1050E000DF91CF9108950A970C945F28FC01E25A52
:1050F000FF4F20813181FC01838137FD05C00E9473
:10510000600A90E0019608950E94600A90E0089578
:105110000A970C947628CF93DF93009769F0EC01FF
:105120008B818F5F0E94A20B181619066CF081E02C
:1051300090E09D878C8706C081E090E090930D0001
:1051400080930C0080E090E0DF91CF9108950A9762
:105150000C948B28FC0183818F5F0C94BD110A97FE
:105160000C94AA288FE195E00E94CE1085E295E08C
:105170000E94CE108BE295E00E94CE1081E395E074
:105180000E94CE1087E395E00E94CE108DE395E05B
:105190000E94CE1083E495E00E94CE1089E495E051
:1051A0000E94CE108FE495E00E94CE1085E595E038
:1051B0000E94CE108BE595E00E94CE1081E695E02E
:1051C0000E94CE1087E695E00E94CE108FE795E012
:1051D0000E94CE1089E795E00E94CE1083E795E00B
:1051E0000E94CE108DE695E00C94CE101092B4047F
:1051F0001092B30488EE93E0A0E0B0E08093B50491
:105200009093B604A093B704B093B80420E431E0BF
:105210003093B2042093B1042FEF3FEF3093BE04DC
:105220002093BD0410920405109203058093050598
:1052300090930605A0930705B093080522E531E099
:10524000309302052093010522E02093890521E097
:1052500020938A052DED35E030938C0520938B0546
:1052600010928E0510928D05109292051092910564
:105270008093930590939405A0939505B09396051C
:1052800084E691E090938605809385058EE791E012
:105290009093900580938F058FEF8093E5058CE9BF
:1052A00091E09093E7058093E60580ED91E090937F
:1052B000E9058093E80580E88093DD0581E8809327
:1052C000DE050E94FD0DFC0121818091890590E0A1
:1052D000820F911D0897C4F5A281B381109729F41C
:1052E00085E895E0938382830EC018968D919C91FA
:1052F0001997009711F0DC01F8CF85E895E0199631
:105300009C938E93189780818093870581818093E9
:105310008805908180918A05890F808380E0909133
:105320008905891788F4A0918B05B0918C05A80F89
:10533000B11D9C91A181B0E0A15DBE4F9C93918174
:105340009F5F91838F5FEBCF8DE695E00E94AA1A55
:1053500083E795E00E94AA1A89E795E00E94AA1ABD
:105360008FE795E00E94AA1A87E695E00E94AA1AA4
:1053700081E695E00E94AA1A8BE595E00E94AA1AA0
:1053800085E595E00E94AA1A8FE495E00E94AA1A8A
:1053900089E495E00E94AA1A83E495E00E94AA1A83
:1053A0008DE395E00E94AA1A87E395E00E94AA1A6D
:1053B0006BE971E081E395E00E94E5106BE971E033
:1053C0008BE295E00E94E5106BE971E085E295E0E3
:1053D0000E94E5106BE971E08FE195E00E94E51015
:1053E0008AE080931D0561E00E94561F61E0809174
:1053F0001D050C942A1EEF920F931F93CF93DF93FA
:10540000E80147FD02C034E001C034E1042E000C85
:10541000550B57FF03C0519541955109E32E022FBB
:10542000242FAE010E94502ACE01DF91CF911F910F
:105430000F91EF900895FB01DC0105900D92002083
:10544000E1F70895FC0105900020E9F7809590951B
:105450008E0F9F1F0895BB274A3031F4992322F401
:10546000BDE2909581959F4F0C94372ABB27FB0195
:105470005527AA27880F991FAA1FA41710F0A41B4D
:1054800083955051B9F7A05DAA3308F0A95DA193A7
:10549000009779F7B111B1931192CB010C948B2C39
:1054A000A9E0B0E0E6E5FAE20C94D92D6A01122FEA
:1054B000B02E2BE3201720F0FF24F394F00E02C04F
:1054C0002CE3F22E0F2D27E0AE014F5F5F4F0E94BD
:1054D000AA2BBC014981842F8970813031F0E1FC15
:1054E00006C0E0FE06C090E205C09DE203C09BE25C
:1054F00001C090E05E2D507143FF3CC0911102C08D
:1055000083E001C084E0811718F4212F281B01C01B
:1055100020E051110BC0F601822F30E2882319F0F0
:1055200031938150FBCFC20ED11C20E0992329F08A
:10553000D6019C93F60131966F01C6010396E2FEF7
:105540000AC03EE4D6013C9341E411964C93119776
:1055500012963C9306C03EE6F601308341E6418355
:105560003283FC01322F40E2332309F442C04193DD
:105570003150FACF42FF44C0911102C083E001C014
:1055800084E0811718F4212F281B01C020E051115D
:105590000BC0F601822F30E2882319F0319381503D
:1055A000FBCFC20ED11C20E0992329F0D6019C9399
:1055B000F60131966F01C6010396E2FE0BC039E495
:1055C000D6013C933EE411963C93119736E4129633
:1055D0003C9307C039E6F60130833EE6318336E678
:1055E0003283FC01322F40E2332319F041933150D2
:1055F000FBCFFC01E20FF11D10828EEF9FEFA6C0E2
:1056000021E030E0911102C020E030E016161706CC
:105610001CF4FB01319602C0E1E0F0E02E0F3F1FC9
:10562000BB2021F0EB2DF0E0319602C0E0E0F0E08D
:105630002E0F3F1FE12FF0E02E173F071CF4121B27
:10564000212F01C020E08E2D887159F4F601822FA0
:1056500030E2882319F031938150FBCFC20ED11C68
:1056600020E0992329F0D6019C93F60131966F0131
:1056700051110BC0F601822F90E3882319F091930A
:105680008150FBCFC20ED11C20E00F2D060F9A8156
:10569000342F307144FF03C0913309F401501016C8
:1056A00024F4093018F008E001C001E0AB0177FFF5
:1056B00002C040E050E0FB01E41BF50BA1E0B0E0CC
:1056C000AC0FBD1FEA0FFB1F8EE2A82E4B01801A04
:1056D00091080B2D10E01195019511094F3FBFEF77
:1056E0005B0721F4D601AC9211966D016417750722
:1056F0002CF08416950614F4818101C080E341509A
:1057000051093196D60111967D014017510724F0B9
:10571000D6018C936701E2CF6417750739F496338D
:1057200020F4953319F4311101C081E3F60180832F
:10573000F701822F90E2882319F091938150FBCFDB
:10574000F701E20FF11D108280E090E02996ECE075
:105750000C94F52D283008F027E03327DA01990F53
:10576000311D87FD916000966105710539F4326045
:105770002E5F3D9330E32A95E1F708959F3F30F087
:1057800080387105610509F03C5F3C5F3D939130C5
:1057900008F08068911DDF93CF931F930F93FF92C2
:1057A000EF92192F987F9695E92F96959695E90F88
:1057B000FF27EC5DFE4F99273327EE24FF24A70136
:1057C000E70105900894079428F4360FE71EF81EA9
:1057D000491F511D660F771F881F991F0694A1F757
:1057E0000590079428F4E70EF81E491F561FC11DA7
:1057F000770F881F991F661F0694A1F705900794DD
:1058000028F4F80E491F561FC71FD11D880F991F76
:10581000661F771F0694A1F70590079420F4490F9F
:10582000561FC71FD81F990F661F771F881F069422
:10583000A9F784911095177041F0D695C7955795A3
:105840004795F794E7941A95C1F7EAECF0E068946D
:105850001590159135916591959105907FE273951D
:10586000E118F10A430B560BC90BD009C0F7E10C44
:10587000F11E431F561FC91FD01D7EF4703311F453
:105880008A95E6CFE894015030F0080F0AF400271B
:10589000021708F4202F2395022F7A3328F079E39A
:1058A0007D932A95E9F710C07D932A9589F6069491
:1058B00097956795379517951794E118F10A430B5B
:1058C000560BC90BD00998F023957E9173957A33C6
:1058D00008F070E37C932013B8F77E9170617D939C
:1058E00030F0839571E37D9370E32A95E1F71124FD
:1058F000EF90FF900F911F91CF91DF91992787FD36
:105900009095089591110C94692D803219F0895069
:105910008550C8F70895DC01FC01672F719177234A
:10592000E1F7329704C07C916D9370836291AE175A
:10593000BF07C8F30895E89409C097FB3EF490951B
:105940008095709561957F4F8F4F9F4F9923A9F058
:10595000F92F96E9BB279395F695879577956795E7
:10596000B795F111F8CFFAF4BB0F11F460FF1BC02B
:105970006F5F7F4F8F4F9F4F16C0882311F096E9BE
:1059800011C0772321F09EE8872F762F05C066236C
:1059900071F096E8862F70E060E02AF09A95660F25
:1059A000771F881FDAF7880F9695879597F90895DE
:1059B000990F0008550FAA0BE0E8FEEF1616170620
:1059C000E807F907C0F012161306E407F50798F088
:1059D000621B730B840B950B39F40A2661F0232BA1
:1059E000242B252B21F408950A2609F4A140A6951D
:1059F0008FEF811D811D08950E940F2D0C94832D22
:105A00000E94752D38F00E947C2D20F0952311F016
:105A10000C946C2D0C94722D11240C94B72D0E94B3
:105A2000942D70F3959FC1F3950F50E0551F629F21
:105A3000F001729FBB27F00DB11D639FAA27F00DE7
:105A4000B11DAA1F649F6627B00DA11D661F829F0E
:105A50002227B00DA11D621F739FB00DA11D621FF3
:105A6000839FA00D611D221F749F3327A00D611D10
:105A7000231F849F600D211D822F762F6A2F1124F2
:105A80009F5750409AF0F1F088234AF0EE0FFF1F25
:105A9000BB1F661F771F881F91505040A9F79E3F7C
:105AA000510580F00C946C2D0C94B72D5F3FE4F3FE
:105AB000983ED4F3869577956795B795F795E795D2
:105AC0009F5FC1F7FE2B880F911D9695879597F9DB
:105AD000089599278827089597F99F6780E870E0CF
